{
  "contractName": "FrontChain",
  "abi": [
    {
      "inputs": [
        {
          "internalType": "string",
          "name": "description",
          "type": "string"
        },
        {
          "internalType": "string",
          "name": "reqId",
          "type": "string"
        },
        {
          "internalType": "string",
          "name": "timestamp",
          "type": "string"
        }
      ],
      "name": "addRequest",
      "outputs": [],
      "stateMutability": "nonpayable",
      "type": "function"
    },
    {
      "inputs": [
        {
          "internalType": "address",
          "name": "toAddress",
          "type": "address"
        },
        {
          "internalType": "uint256",
          "name": "amount",
          "type": "uint256"
        }
      ],
      "name": "airDrop",
      "outputs": [],
      "stateMutability": "payable",
      "type": "function"
    },
    {
      "inputs": [
        {
          "internalType": "string",
          "name": "name",
          "type": "string"
        },
        {
          "internalType": "string",
          "name": "componentId",
          "type": "string"
        },
        {
          "internalType": "uint256",
          "name": "price",
          "type": "uint256"
        },
        {
          "internalType": "string",
          "name": "description",
          "type": "string"
        }
      ],
      "name": "publishComponent",
      "outputs": [],
      "stateMutability": "payable",
      "type": "function"
    },
    {
      "inputs": [
        {
          "internalType": "string",
          "name": "componentId",
          "type": "string"
        }
      ],
      "name": "purchaseComponent",
      "outputs": [],
      "stateMutability": "payable",
      "type": "function"
    },
    {
      "inputs": [
        {
          "internalType": "string",
          "name": "name",
          "type": "string"
        },
        {
          "internalType": "string",
          "name": "userId",
          "type": "string"
        },
        {
          "internalType": "uint256",
          "name": "userType",
          "type": "uint256"
        }
      ],
      "name": "registerUser",
      "outputs": [],
      "stateMutability": "payable",
      "type": "function"
    },
    {
      "inputs": [],
      "stateMutability": "nonpayable",
      "type": "constructor"
    },
    {
      "anonymous": false,
      "inputs": [
        {
          "indexed": true,
          "internalType": "address",
          "name": "from",
          "type": "address"
        },
        {
          "indexed": true,
          "internalType": "address",
          "name": "to",
          "type": "address"
        },
        {
          "indexed": false,
          "internalType": "uint256",
          "name": "amount",
          "type": "uint256"
        }
      ],
      "name": "Transfer",
      "type": "event"
    },
    {
      "inputs": [],
      "name": "FC_ADDRESS",
      "outputs": [
        {
          "internalType": "address",
          "name": "",
          "type": "address"
        }
      ],
      "stateMutability": "view",
      "type": "function"
    },
    {
      "inputs": [],
      "name": "getAllComponents",
      "outputs": [
        {
          "components": [
            {
              "internalType": "string",
              "name": "name",
              "type": "string"
            },
            {
              "internalType": "string",
              "name": "componentId",
              "type": "string"
            },
            {
              "internalType": "uint256",
              "name": "price",
              "type": "uint256"
            },
            {
              "internalType": "bool",
              "name": "isSold",
              "type": "bool"
            },
            {
              "internalType": "string",
              "name": "ownerUUID",
              "type": "string"
            },
            {
              "internalType": "string",
              "name": "description",
              "type": "string"
            }
          ],
          "internalType": "struct FrontChain.Component[]",
          "name": "",
          "type": "tuple[]"
        }
      ],
      "stateMutability": "view",
      "type": "function"
    },
    {
      "inputs": [],
      "name": "getAllRequests",
      "outputs": [
        {
          "components": [
            {
              "internalType": "string",
              "name": "description",
              "type": "string"
            },
            {
              "internalType": "string",
              "name": "reqId",
              "type": "string"
            },
            {
              "internalType": "string",
              "name": "timestamp",
              "type": "string"
            }
          ],
          "internalType": "struct FrontChain.Request[]",
          "name": "",
          "type": "tuple[]"
        }
      ],
      "stateMutability": "view",
      "type": "function"
    },
    {
      "inputs": [
        {
          "internalType": "string",
          "name": "componentId",
          "type": "string"
        }
      ],
      "name": "getComponentDetails",
      "outputs": [
        {
          "components": [
            {
              "internalType": "string",
              "name": "name",
              "type": "string"
            },
            {
              "internalType": "string",
              "name": "componentId",
              "type": "string"
            },
            {
              "internalType": "uint256",
              "name": "price",
              "type": "uint256"
            },
            {
              "internalType": "bool",
              "name": "isSold",
              "type": "bool"
            },
            {
              "internalType": "string",
              "name": "ownerUUID",
              "type": "string"
            },
            {
              "internalType": "string",
              "name": "description",
              "type": "string"
            }
          ],
          "internalType": "struct FrontChain.Component",
          "name": "",
          "type": "tuple"
        }
      ],
      "stateMutability": "view",
      "type": "function"
    },
    {
      "inputs": [],
      "name": "getFCStartingBalance",
      "outputs": [
        {
          "internalType": "uint256",
          "name": "",
          "type": "uint256"
        },
        {
          "internalType": "uint256",
          "name": "",
          "type": "uint256"
        }
      ],
      "stateMutability": "view",
      "type": "function"
    },
    {
      "inputs": [],
      "name": "getFCUserBalance",
      "outputs": [
        {
          "internalType": "uint256",
          "name": "",
          "type": "uint256"
        }
      ],
      "stateMutability": "view",
      "type": "function"
    },
    {
      "inputs": [
        {
          "internalType": "string",
          "name": "componentId",
          "type": "string"
        }
      ],
      "name": "getOwnerDetails",
      "outputs": [
        {
          "internalType": "address",
          "name": "",
          "type": "address"
        },
        {
          "components": [
            {
              "internalType": "string",
              "name": "name",
              "type": "string"
            },
            {
              "internalType": "string",
              "name": "userId",
              "type": "string"
            },
            {
              "internalType": "uint256",
              "name": "balance",
              "type": "uint256"
            },
            {
              "internalType": "enum FrontChain.UserType",
              "name": "userType",
              "type": "uint8"
            }
          ],
          "internalType": "struct FrontChain.User",
          "name": "",
          "type": "tuple"
        }
      ],
      "stateMutability": "view",
      "type": "function"
    },
    {
      "inputs": [],
      "name": "getUser",
      "outputs": [
        {
          "components": [
            {
              "internalType": "string",
              "name": "name",
              "type": "string"
            },
            {
              "internalType": "string",
              "name": "userId",
              "type": "string"
            },
            {
              "internalType": "uint256",
              "name": "balance",
              "type": "uint256"
            },
            {
              "internalType": "enum FrontChain.UserType",
              "name": "userType",
              "type": "uint8"
            }
          ],
          "internalType": "struct FrontChain.User",
          "name": "",
          "type": "tuple"
        }
      ],
      "stateMutability": "view",
      "type": "function"
    },
    {
      "inputs": [],
      "name": "isUserCeo",
      "outputs": [
        {
          "internalType": "bool",
          "name": "",
          "type": "bool"
        }
      ],
      "stateMutability": "view",
      "type": "function"
    }
  ],
  "bytecode": "0x6080604052734fd550913dd3e93f8dd0312f92f47d5b3b50e8c8600760006101000a81548173ffffffffffffffffffffffffffffffffffffffff021916908373ffffffffffffffffffffffffffffffffffffffff16021790555034801561006557600080fd5b5033600660006101000a81548173ffffffffffffffffffffffffffffffffffffffff021916908373ffffffffffffffffffffffffffffffffffffffff160217905550612fd6806100b66000396000f3fe6080604052600436106100dd5760003560e01c8063832880e71161007f578063d6a636ec11610059578063d6a636ec14610286578063d6b5da08146102b2578063f209e74f146102dd578063fb1a002a146102f9576100dd565b8063832880e714610216578063b27d118414610241578063b63ebba01461026a576100dd565b80632b31ce34116100bb5780632b31ce341461016757806349a0b0b11461019257806366fadf0b146101cf57806373c480a1146101fa576100dd565b8063045f7850146100e257806308fcf6e5146100fe5780630ecada531461013c575b600080fd5b6100fc60048036038101906100f791906121ce565b610324565b005b34801561010a57600080fd5b5061012560048036038101906101209190612354565b6103ed565b604051610133929190612524565b60405180910390f35b34801561014857600080fd5b50610151610632565b60405161015e9190612563565b60405180910390f35b34801561017357600080fd5b5061017c6106d5565b6040516101899190612599565b60405180910390f35b34801561019e57600080fd5b506101b960048036038101906101b49190612354565b61072d565b6040516101c69190612661565b60405180910390f35b3480156101db57600080fd5b506101e46109d2565b6040516101f191906127e3565b60405180910390f35b610214600480360381019061020f9190612354565b610c9e565b005b34801561022257600080fd5b5061022b61122d565b6040516102389190612805565b60405180910390f35b34801561024d57600080fd5b5061026860048036038101906102639190612827565b6113ed565b005b610284600480360381019061027f91906128ce565b611497565b005b34801561029257600080fd5b5061029b611807565b6040516102a9929190612989565b60405180910390f35b3480156102be57600080fd5b506102c76118cf565b6040516102d491906129b2565b60405180910390f35b6102f760048036038101906102f291906129cd565b6118e7565b005b34801561030557600080fd5b5061030e611d6f565b60405161031b9190612b78565b60405180910390f35b600760009054906101000a900473ffffffffffffffffffffffffffffffffffffffff1673ffffffffffffffffffffffffffffffffffffffff166323b872dd600660009054906101000a900473ffffffffffffffffffffffffffffffffffffffff1684846040518463ffffffff1660e01b81526004016103a593929190612b9a565b6020604051808303816000875af11580156103c4573d6000803e3d6000fd5b505050506040513d601f19601f820116820180604052508101906103e89190612bfd565b505050565b60006103f7611f84565b6000836040516104079190612c66565b908152602001604051809103902060009054906101000a900473ffffffffffffffffffffffffffffffffffffffff166003600080866040516104499190612c66565b908152602001604051809103902060009054906101000a900473ffffffffffffffffffffffffffffffffffffffff1673ffffffffffffffffffffffffffffffffffffffff1673ffffffffffffffffffffffffffffffffffffffff168152602001908152602001600020806040518060800160405290816000820180546104ce90612cac565b80601f01602080910402602001604051908101604052809291908181526020018280546104fa90612cac565b80156105475780601f1061051c57610100808354040283529160200191610547565b820191906000526020600020905b81548152906001019060200180831161052a57829003601f168201915b5050505050815260200160018201805461056090612cac565b80601f016020809104026020016040519081016040528092919081815260200182805461058c90612cac565b80156105d95780601f106105ae576101008083540402835291602001916105d9565b820191906000526020600020905b8154815290600101906020018083116105bc57829003601f168201915b50505050508152602001600282015481526020016003820160009054906101000a900460ff16600281111561061157610610612443565b5b600281111561062357610622612443565b5b81525050905091509150915091565b6000600760009054906101000a900473ffffffffffffffffffffffffffffffffffffffff1673ffffffffffffffffffffffffffffffffffffffff166370a08231336040518263ffffffff1660e01b815260040161068f91906129b2565b602060405180830381865afa1580156106ac573d6000803e3d6000fd5b505050506040513d601f19601f820116820180604052508101906106d09190612cf3565b905090565b6000600660009054906101000a900473ffffffffffffffffffffffffffffffffffffffff1673ffffffffffffffffffffffffffffffffffffffff163373ffffffffffffffffffffffffffffffffffffffff1614905090565b610735611fbe565b6001826040516107459190612c66565b90815260200160405180910390206040518060c001604052908160008201805461076e90612cac565b80601f016020809104026020016040519081016040528092919081815260200182805461079a90612cac565b80156107e75780601f106107bc576101008083540402835291602001916107e7565b820191906000526020600020905b8154815290600101906020018083116107ca57829003601f168201915b5050505050815260200160018201805461080090612cac565b80601f016020809104026020016040519081016040528092919081815260200182805461082c90612cac565b80156108795780601f1061084e57610100808354040283529160200191610879565b820191906000526020600020905b81548152906001019060200180831161085c57829003601f168201915b50505050508152602001600282015481526020016003820160009054906101000a900460ff161515151581526020016004820180546108b790612cac565b80601f01602080910402602001604051908101604052809291908181526020018280546108e390612cac565b80156109305780601f1061090557610100808354040283529160200191610930565b820191906000526020600020905b81548152906001019060200180831161091357829003601f168201915b5050505050815260200160058201805461094990612cac565b80601f016020809104026020016040519081016040528092919081815260200182805461097590612cac565b80156109c25780601f10610997576101008083540402835291602001916109c2565b820191906000526020600020905b8154815290600101906020018083116109a557829003601f168201915b5050505050815250509050919050565b60606002805480602002602001604051908101604052809291908181526020016000905b82821015610c9557838290600052602060002090600602016040518060c0016040529081600082018054610a2990612cac565b80601f0160208091040260200160405190810160405280929190818152602001828054610a5590612cac565b8015610aa25780601f10610a7757610100808354040283529160200191610aa2565b820191906000526020600020905b815481529060010190602001808311610a8557829003601f168201915b50505050508152602001600182018054610abb90612cac565b80601f0160208091040260200160405190810160405280929190818152602001828054610ae790612cac565b8015610b345780601f10610b0957610100808354040283529160200191610b34565b820191906000526020600020905b815481529060010190602001808311610b1757829003601f168201915b50505050508152602001600282015481526020016003820160009054906101000a900460ff16151515158152602001600482018054610b7290612cac565b80601f0160208091040260200160405190810160405280929190818152602001828054610b9e90612cac565b8015610beb5780601f10610bc057610100808354040283529160200191610beb565b820191906000526020600020905b815481529060010190602001808311610bce57829003601f168201915b50505050508152602001600582018054610c0490612cac565b80601f0160208091040260200160405190810160405280929190818152602001828054610c3090612cac565b8015610c7d5780601f10610c5257610100808354040283529160200191610c7d565b820191906000526020600020905b815481529060010190602001808311610c6057829003601f168201915b505050505081525050815260200190600101906109f6565b50505050905090565b6001806002811115610cb357610cb2612443565b5b600360003373ffffffffffffffffffffffffffffffffffffffff1673ffffffffffffffffffffffffffffffffffffffff16815260200190815260200160002060030160009054906101000a900460ff166002811115610d1557610d14612443565b5b14610d1f57600080fd5b60008083604051610d309190612c66565b908152602001604051809103902060009054906101000a900473ffffffffffffffffffffffffffffffffffffffff16905060018084604051610d729190612c66565b908152602001604051809103902060030160006101000a81548160ff021916908315150217905550600360003373ffffffffffffffffffffffffffffffffffffffff1673ffffffffffffffffffffffffffffffffffffffff168152602001908152602001600020600101600184604051610dec9190612c66565b9081526020016040518091039020600401908054610e0990612cac565b610e14929190611ff6565b5060005b600280549050811015610f4257838051906020012060028281548110610e4157610e40612d20565b5b9060005260206000209060060201600101604051610e5f9190612dee565b60405180910390201415610f2f57600160028281548110610e8357610e82612d20565b5b906000526020600020906006020160030160006101000a81548160ff021916908315150217905550600360003373ffffffffffffffffffffffffffffffffffffffff1673ffffffffffffffffffffffffffffffffffffffff16815260200190815260200160002060010160028281548110610f0157610f00612d20565b5b9060005260206000209060060201600401908054610f1e90612cac565b610f29929190611ff6565b50610f42565b8080610f3a90612e34565b915050610e18565b5033600084604051610f549190612c66565b908152602001604051809103902060006101000a81548173ffffffffffffffffffffffffffffffffffffffff021916908373ffffffffffffffffffffffffffffffffffffffff160217905550600760009054906101000a900473ffffffffffffffffffffffffffffffffffffffff1673ffffffffffffffffffffffffffffffffffffffff166323b872dd3383600187604051610ff09190612c66565b9081526020016040518091039020600201546040518463ffffffff1660e01b815260040161102093929190612edc565b6020604051808303816000875af115801561103f573d6000803e3d6000fd5b505050506040513d601f19601f820116820180604052508101906110639190612bfd565b50600760009054906101000a900473ffffffffffffffffffffffffffffffffffffffff1673ffffffffffffffffffffffffffffffffffffffff166370a08231336040518263ffffffff1660e01b81526004016110bf91906129b2565b602060405180830381865afa1580156110dc573d6000803e3d6000fd5b505050506040513d601f19601f820116820180604052508101906111009190612cf3565b600360003373ffffffffffffffffffffffffffffffffffffffff1673ffffffffffffffffffffffffffffffffffffffff16815260200190815260200160002060020181905550600760009054906101000a900473ffffffffffffffffffffffffffffffffffffffff1673ffffffffffffffffffffffffffffffffffffffff166370a08231826040518263ffffffff1660e01b81526004016111a19190612f13565b602060405180830381865afa1580156111be573d6000803e3d6000fd5b505050506040513d601f19601f820116820180604052508101906111e29190612cf3565b600360008373ffffffffffffffffffffffffffffffffffffffff1673ffffffffffffffffffffffffffffffffffffffff16815260200190815260200160002060020181905550505050565b611235611f84565b600360003373ffffffffffffffffffffffffffffffffffffffff1673ffffffffffffffffffffffffffffffffffffffff16815260200190815260200160002060405180608001604052908160008201805461128f90612cac565b80601f01602080910402602001604051908101604052809291908181526020018280546112bb90612cac565b80156113085780601f106112dd57610100808354040283529160200191611308565b820191906000526020600020905b8154815290600101906020018083116112eb57829003601f168201915b5050505050815260200160018201805461132190612cac565b80601f016020809104026020016040519081016040528092919081815260200182805461134d90612cac565b801561139a5780601f1061136f5761010080835404028352916020019161139a565b820191906000526020600020905b81548152906001019060200180831161137d57829003601f168201915b50505050508152602001600282015481526020016003820160009054906101000a900460ff1660028111156113d2576113d1612443565b5b60028111156113e4576113e3612443565b5b81525050905090565b6000604051806060016040528085815260200184815260200183815250905060058190806001815401808255809150506001900390600052602060002090600302016000909190919091506000820151816000019080519060200190611454929190612083565b506020820151816001019080519060200190611471929190612083565b50604082015181600201908051906020019061148e929190612083565b50505050505050565b60008060028111156114ac576114ab612443565b5b600360003373ffffffffffffffffffffffffffffffffffffffff1673ffffffffffffffffffffffffffffffffffffffff16815260200190815260200160002060030160009054906101000a900460ff16600281111561150e5761150d612443565b5b1461151857600080fd5b60006040518060c00160405280878152602001868152602001858152602001600015158152602001600360003373ffffffffffffffffffffffffffffffffffffffff1673ffffffffffffffffffffffffffffffffffffffff168152602001908152602001600020600101805461158d90612cac565b80601f01602080910402602001604051908101604052809291908181526020018280546115b990612cac565b80156116065780601f106115db57610100808354040283529160200191611606565b820191906000526020600020905b8154815290600101906020018083116115e957829003601f168201915b505050505081526020018481525090506002819080600181540180825580915050600190039060005260206000209060060201600090919091909150600082015181600001908051906020019061165e929190612083565b50602082015181600101908051906020019061167b929190612083565b506040820151816002015560608201518160030160006101000a81548160ff02191690831515021790555060808201518160040190805190602001906116c2929190612083565b5060a08201518160050190805190602001906116df929190612083565b505050336000866040516116f39190612c66565b908152602001604051809103902060006101000a81548173ffffffffffffffffffffffffffffffffffffffff021916908373ffffffffffffffffffffffffffffffffffffffff160217905550806001866040516117509190612c66565b9081526020016040518091039020600082015181600001908051906020019061177a929190612083565b506020820151816001019080519060200190611797929190612083565b506040820151816002015560608201518160030160006101000a81548160ff02191690831515021790555060808201518160040190805190602001906117de929190612083565b5060a08201518160050190805190602001906117fb929190612083565b50905050505050505050565b600080600760009054906101000a900473ffffffffffffffffffffffffffffffffffffffff1673ffffffffffffffffffffffffffffffffffffffff166318160ddd6040518163ffffffff1660e01b8152600401602060405180830381865afa158015611877573d6000803e3d6000fd5b505050506040513d601f19601f8201168201806040525081019061189b9190612cf3565b734fd550913dd3e93f8dd0312f92f47d5b3b50e8c873ffffffffffffffffffffffffffffffffffffffff1631915091509091565b734fd550913dd3e93f8dd0312f92f47d5b3b50e8c881565b6118ef611f84565b600660009054906101000a900473ffffffffffffffffffffffffffffffffffffffff1673ffffffffffffffffffffffffffffffffffffffff163373ffffffffffffffffffffffffffffffffffffffff161415611a1a576040518060800160405280858152602001848152602001600760009054906101000a900473ffffffffffffffffffffffffffffffffffffffff1673ffffffffffffffffffffffffffffffffffffffff166370a08231336040518263ffffffff1660e01b81526004016119b791906129b2565b602060405180830381865afa1580156119d4573d6000803e3d6000fd5b505050506040513d601f19601f820116820180604052508101906119f89190612cf3565b8152602001600280811115611a1057611a0f612443565b5b8152509050611c84565b600760009054906101000a900473ffffffffffffffffffffffffffffffffffffffff1673ffffffffffffffffffffffffffffffffffffffff166323b872dd600660009054906101000a900473ffffffffffffffffffffffffffffffffffffffff163360646040518463ffffffff1660e01b8152600401611a9c93929190612f69565b6020604051808303816000875af1158015611abb573d6000803e3d6000fd5b505050506040513d601f19601f82011682018060405250810190611adf9190612bfd565b50600760009054906101000a900473ffffffffffffffffffffffffffffffffffffffff1673ffffffffffffffffffffffffffffffffffffffff166370a08231600660009054906101000a900473ffffffffffffffffffffffffffffffffffffffff166040518263ffffffff1660e01b8152600401611b5d91906129b2565b602060405180830381865afa158015611b7a573d6000803e3d6000fd5b505050506040513d601f19601f82011682018060405250810190611b9e9190612cf3565b60036000600660009054906101000a900473ffffffffffffffffffffffffffffffffffffffff1673ffffffffffffffffffffffffffffffffffffffff1673ffffffffffffffffffffffffffffffffffffffff168152602001908152602001600020600201819055506000821415611c4b5760405180608001604052808581526020018481526020016064815260200160006002811115611c4157611c40612443565b5b8152509050611c83565b60405180608001604052808581526020018481526020016064815260200160016002811115611c7d57611c7c612443565b5b81525090505b5b60405180602001604052806000815250805190602001208160200151805190602001201415611cb257600080fd5b80600360003373ffffffffffffffffffffffffffffffffffffffff1673ffffffffffffffffffffffffffffffffffffffff1681526020019081526020016000206000820151816000019080519060200190611d0e929190612083565b506020820151816001019080519060200190611d2b929190612083565b506040820151816002015560608201518160030160006101000a81548160ff02191690836002811115611d6157611d60612443565b5b021790555090505050505050565b60606005805480602002602001604051908101604052809291908181526020016000905b82821015611f7b5783829060005260206000209060030201604051806060016040529081600082018054611dc690612cac565b80601f0160208091040260200160405190810160405280929190818152602001828054611df290612cac565b8015611e3f5780601f10611e1457610100808354040283529160200191611e3f565b820191906000526020600020905b815481529060010190602001808311611e2257829003601f168201915b50505050508152602001600182018054611e5890612cac565b80601f0160208091040260200160405190810160405280929190818152602001828054611e8490612cac565b8015611ed15780601f10611ea657610100808354040283529160200191611ed1565b820191906000526020600020905b815481529060010190602001808311611eb457829003601f168201915b50505050508152602001600282018054611eea90612cac565b80601f0160208091040260200160405190810160405280929190818152602001828054611f1690612cac565b8015611f635780601f10611f3857610100808354040283529160200191611f63565b820191906000526020600020905b815481529060010190602001808311611f4657829003601f168201915b50505050508152505081526020019060010190611d93565b50505050905090565b604051806080016040528060608152602001606081526020016000815260200160006002811115611fb857611fb7612443565b5b81525090565b6040518060c0016040528060608152602001606081526020016000815260200160001515815260200160608152602001606081525090565b82805461200290612cac565b90600052602060002090601f0160209004810192826120245760008555612072565b82601f106120355780548555612072565b8280016001018555821561207257600052602060002091601f016020900482015b82811115612071578254825591600101919060010190612056565b5b50905061207f9190612109565b5090565b82805461208f90612cac565b90600052602060002090601f0160209004810192826120b157600085556120f8565b82601f106120ca57805160ff19168380011785556120f8565b828001600101855582156120f8579182015b828111156120f75782518255916020019190600101906120dc565b5b5090506121059190612109565b5090565b5b8082111561212257600081600090555060010161210a565b5090565b6000604051905090565b600080fd5b600080fd5b600073ffffffffffffffffffffffffffffffffffffffff82169050919050565b60006121658261213a565b9050919050565b6121758161215a565b811461218057600080fd5b50565b6000813590506121928161216c565b92915050565b6000819050919050565b6121ab81612198565b81146121b657600080fd5b50565b6000813590506121c8816121a2565b92915050565b600080604083850312156121e5576121e4612130565b5b60006121f385828601612183565b9250506020612204858286016121b9565b9150509250929050565b600080fd5b600080fd5b6000601f19601f8301169050919050565b7f4e487b7100000000000000000000000000000000000000000000000000000000600052604160045260246000fd5b61226182612218565b810181811067ffffffffffffffff821117156122805761227f612229565b5b80604052505050565b6000612293612126565b905061229f8282612258565b919050565b600067ffffffffffffffff8211156122bf576122be612229565b5b6122c882612218565b9050602081019050919050565b82818337600083830152505050565b60006122f76122f2846122a4565b612289565b90508281526020810184848401111561231357612312612213565b5b61231e8482856122d5565b509392505050565b600082601f83011261233b5761233a61220e565b5b813561234b8482602086016122e4565b91505092915050565b60006020828403121561236a57612369612130565b5b600082013567ffffffffffffffff81111561238857612387612135565b5b61239484828501612326565b91505092915050565b6123a68161215a565b82525050565b600081519050919050565b600082825260208201905092915050565b60005b838110156123e65780820151818401526020810190506123cb565b838111156123f5576000848401525b50505050565b6000612406826123ac565b61241081856123b7565b93506124208185602086016123c8565b61242981612218565b840191505092915050565b61243d81612198565b82525050565b7f4e487b7100000000000000000000000000000000000000000000000000000000600052602160045260246000fd5b6003811061248357612482612443565b5b50565b600081905061249482612472565b919050565b60006124a482612486565b9050919050565b6124b481612499565b82525050565b600060808301600083015184820360008601526124d782826123fb565b915050602083015184820360208601526124f182826123fb565b91505060408301516125066040860182612434565b50606083015161251960608601826124ab565b508091505092915050565b6000604082019050612539600083018561239d565b818103602083015261254b81846124ba565b90509392505050565b61255d81612198565b82525050565b60006020820190506125786000830184612554565b92915050565b60008115159050919050565b6125938161257e565b82525050565b60006020820190506125ae600083018461258a565b92915050565b6125bd8161257e565b82525050565b600060c08301600083015184820360008601526125e082826123fb565b915050602083015184820360208601526125fa82826123fb565b915050604083015161260f6040860182612434565b50606083015161262260608601826125b4565b506080830151848203608086015261263a82826123fb565b91505060a083015184820360a086015261265482826123fb565b9150508091505092915050565b6000602082019050818103600083015261267b81846125c3565b905092915050565b600081519050919050565b600082825260208201905092915050565b6000819050602082019050919050565b600060c08301600083015184820360008601526126cc82826123fb565b915050602083015184820360208601526126e682826123fb565b91505060408301516126fb6040860182612434565b50606083015161270e60608601826125b4565b506080830151848203608086015261272682826123fb565b91505060a083015184820360a086015261274082826123fb565b9150508091505092915050565b600061275983836126af565b905092915050565b6000602082019050919050565b600061277982612683565b612783818561268e565b9350836020820285016127958561269f565b8060005b858110156127d157848403895281516127b2858261274d565b94506127bd83612761565b925060208a01995050600181019050612799565b50829750879550505050505092915050565b600060208201905081810360008301526127fd818461276e565b905092915050565b6000602082019050818103600083015261281f81846124ba565b905092915050565b6000806000606084860312156128405761283f612130565b5b600084013567ffffffffffffffff81111561285e5761285d612135565b5b61286a86828701612326565b935050602084013567ffffffffffffffff81111561288b5761288a612135565b5b61289786828701612326565b925050604084013567ffffffffffffffff8111156128b8576128b7612135565b5b6128c486828701612326565b9150509250925092565b600080600080608085870312156128e8576128e7612130565b5b600085013567ffffffffffffffff81111561290657612905612135565b5b61291287828801612326565b945050602085013567ffffffffffffffff81111561293357612932612135565b5b61293f87828801612326565b9350506040612950878288016121b9565b925050606085013567ffffffffffffffff81111561297157612970612135565b5b61297d87828801612326565b91505092959194509250565b600060408201905061299e6000830185612554565b6129ab6020830184612554565b9392505050565b60006020820190506129c7600083018461239d565b92915050565b6000806000606084860312156129e6576129e5612130565b5b600084013567ffffffffffffffff811115612a0457612a03612135565b5b612a1086828701612326565b935050602084013567ffffffffffffffff811115612a3157612a30612135565b5b612a3d86828701612326565b9250506040612a4e868287016121b9565b9150509250925092565b600081519050919050565b600082825260208201905092915050565b6000819050602082019050919050565b60006060830160008301518482036000860152612aa182826123fb565b91505060208301518482036020860152612abb82826123fb565b91505060408301518482036040860152612ad582826123fb565b9150508091505092915050565b6000612aee8383612a84565b905092915050565b6000602082019050919050565b6000612b0e82612a58565b612b188185612a63565b935083602082028501612b2a85612a74565b8060005b85811015612b665784840389528151612b478582612ae2565b9450612b5283612af6565b925060208a01995050600181019050612b2e565b50829750879550505050505092915050565b60006020820190508181036000830152612b928184612b03565b905092915050565b6000606082019050612baf600083018661239d565b612bbc602083018561239d565b612bc96040830184612554565b949350505050565b612bda8161257e565b8114612be557600080fd5b50565b600081519050612bf781612bd1565b92915050565b600060208284031215612c1357612c12612130565b5b6000612c2184828501612be8565b91505092915050565b600081905092915050565b6000612c40826123ac565b612c4a8185612c2a565b9350612c5a8185602086016123c8565b80840191505092915050565b6000612c728284612c35565b915081905092915050565b7f4e487b7100000000000000000000000000000000000000000000000000000000600052602260045260246000fd5b60006002820490506001821680612cc457607f821691505b60208210811415612cd857612cd7612c7d565b5b50919050565b600081519050612ced816121a2565b92915050565b600060208284031215612d0957612d08612130565b5b6000612d1784828501612cde565b91505092915050565b7f4e487b7100000000000000000000000000000000000000000000000000000000600052603260045260246000fd5b600081905092915050565b60008190508160005260206000209050919050565b60008154612d7c81612cac565b612d868186612d4f565b94506001821660008114612da15760018114612db257612de5565b60ff19831686528186019350612de5565b612dbb85612d5a565b60005b83811015612ddd57815481890152600182019150602081019050612dbe565b838801955050505b50505092915050565b6000612dfa8284612d6f565b915081905092915050565b7f4e487b7100000000000000000000000000000000000000000000000000000000600052601160045260246000fd5b6000612e3f82612198565b91507fffffffffffffffffffffffffffffffffffffffffffffffffffffffffffffffff821415612e7257612e71612e05565b5b600182019050919050565b6000819050919050565b6000612ea2612e9d612e988461213a565b612e7d565b61213a565b9050919050565b6000612eb482612e87565b9050919050565b6000612ec682612ea9565b9050919050565b612ed681612ebb565b82525050565b6000606082019050612ef1600083018661239d565b612efe6020830185612ecd565b612f0b6040830184612554565b949350505050565b6000602082019050612f286000830184612ecd565b92915050565b6000819050919050565b6000612f53612f4e612f4984612f2e565b612e7d565b612198565b9050919050565b612f6381612f38565b82525050565b6000606082019050612f7e600083018661239d565b612f8b602083018561239d565b612f986040830184612f5a565b94935050505056fea2646970667358221220b7c72f4e29177c27b9383365159a7f3f4285b224f0d82b9bfcc9df2ec0c5c59864736f6c634300080c0033",
  "deployedBytecode": "0x6080604052734fd550913dd3e93f8dd0312f92f47d5b3b50e8c8600760006101000a81548173ffffffffffffffffffffffffffffffffffffffff021916908373ffffffffffffffffffffffffffffffffffffffff16021790555034801561006557600080fd5b5033600660006101000a81548173ffffffffffffffffffffffffffffffffffffffff021916908373ffffffffffffffffffffffffffffffffffffffff160217905550612fd6806100b66000396000f3fe6080604052600436106100dd5760003560e01c8063832880e71161007f578063d6a636ec11610059578063d6a636ec14610286578063d6b5da08146102b2578063f209e74f146102dd578063fb1a002a146102f9576100dd565b8063832880e714610216578063b27d118414610241578063b63ebba01461026a576100dd565b80632b31ce34116100bb5780632b31ce341461016757806349a0b0b11461019257806366fadf0b146101cf57806373c480a1146101fa576100dd565b8063045f7850146100e257806308fcf6e5146100fe5780630ecada531461013c575b600080fd5b6100fc60048036038101906100f791906121ce565b610324565b005b34801561010a57600080fd5b5061012560048036038101906101209190612354565b6103ed565b604051610133929190612524565b60405180910390f35b34801561014857600080fd5b50610151610632565b60405161015e9190612563565b60405180910390f35b34801561017357600080fd5b5061017c6106d5565b6040516101899190612599565b60405180910390f35b34801561019e57600080fd5b506101b960048036038101906101b49190612354565b61072d565b6040516101c69190612661565b60405180910390f35b3480156101db57600080fd5b506101e46109d2565b6040516101f191906127e3565b60405180910390f35b610214600480360381019061020f9190612354565b610c9e565b005b34801561022257600080fd5b5061022b61122d565b6040516102389190612805565b60405180910390f35b34801561024d57600080fd5b5061026860048036038101906102639190612827565b6113ed565b005b610284600480360381019061027f91906128ce565b611497565b005b34801561029257600080fd5b5061029b611807565b6040516102a9929190612989565b60405180910390f35b3480156102be57600080fd5b506102c76118cf565b6040516102d491906129b2565b60405180910390f35b6102f760048036038101906102f291906129cd565b6118e7565b005b34801561030557600080fd5b5061030e611d6f565b60405161031b9190612b78565b60405180910390f35b600760009054906101000a900473ffffffffffffffffffffffffffffffffffffffff1673ffffffffffffffffffffffffffffffffffffffff166323b872dd600660009054906101000a900473ffffffffffffffffffffffffffffffffffffffff1684846040518463ffffffff1660e01b81526004016103a593929190612b9a565b6020604051808303816000875af11580156103c4573d6000803e3d6000fd5b505050506040513d601f19601f820116820180604052508101906103e89190612bfd565b505050565b60006103f7611f84565b6000836040516104079190612c66565b908152602001604051809103902060009054906101000a900473ffffffffffffffffffffffffffffffffffffffff166003600080866040516104499190612c66565b908152602001604051809103902060009054906101000a900473ffffffffffffffffffffffffffffffffffffffff1673ffffffffffffffffffffffffffffffffffffffff1673ffffffffffffffffffffffffffffffffffffffff168152602001908152602001600020806040518060800160405290816000820180546104ce90612cac565b80601f01602080910402602001604051908101604052809291908181526020018280546104fa90612cac565b80156105475780601f1061051c57610100808354040283529160200191610547565b820191906000526020600020905b81548152906001019060200180831161052a57829003601f168201915b5050505050815260200160018201805461056090612cac565b80601f016020809104026020016040519081016040528092919081815260200182805461058c90612cac565b80156105d95780601f106105ae576101008083540402835291602001916105d9565b820191906000526020600020905b8154815290600101906020018083116105bc57829003601f168201915b50505050508152602001600282015481526020016003820160009054906101000a900460ff16600281111561061157610610612443565b5b600281111561062357610622612443565b5b81525050905091509150915091565b6000600760009054906101000a900473ffffffffffffffffffffffffffffffffffffffff1673ffffffffffffffffffffffffffffffffffffffff166370a08231336040518263ffffffff1660e01b815260040161068f91906129b2565b602060405180830381865afa1580156106ac573d6000803e3d6000fd5b505050506040513d601f19601f820116820180604052508101906106d09190612cf3565b905090565b6000600660009054906101000a900473ffffffffffffffffffffffffffffffffffffffff1673ffffffffffffffffffffffffffffffffffffffff163373ffffffffffffffffffffffffffffffffffffffff1614905090565b610735611fbe565b6001826040516107459190612c66565b90815260200160405180910390206040518060c001604052908160008201805461076e90612cac565b80601f016020809104026020016040519081016040528092919081815260200182805461079a90612cac565b80156107e75780601f106107bc576101008083540402835291602001916107e7565b820191906000526020600020905b8154815290600101906020018083116107ca57829003601f168201915b5050505050815260200160018201805461080090612cac565b80601f016020809104026020016040519081016040528092919081815260200182805461082c90612cac565b80156108795780601f1061084e57610100808354040283529160200191610879565b820191906000526020600020905b81548152906001019060200180831161085c57829003601f168201915b50505050508152602001600282015481526020016003820160009054906101000a900460ff161515151581526020016004820180546108b790612cac565b80601f01602080910402602001604051908101604052809291908181526020018280546108e390612cac565b80156109305780601f1061090557610100808354040283529160200191610930565b820191906000526020600020905b81548152906001019060200180831161091357829003601f168201915b5050505050815260200160058201805461094990612cac565b80601f016020809104026020016040519081016040528092919081815260200182805461097590612cac565b80156109c25780601f10610997576101008083540402835291602001916109c2565b820191906000526020600020905b8154815290600101906020018083116109a557829003601f168201915b5050505050815250509050919050565b60606002805480602002602001604051908101604052809291908181526020016000905b82821015610c9557838290600052602060002090600602016040518060c0016040529081600082018054610a2990612cac565b80601f0160208091040260200160405190810160405280929190818152602001828054610a5590612cac565b8015610aa25780601f10610a7757610100808354040283529160200191610aa2565b820191906000526020600020905b815481529060010190602001808311610a8557829003601f168201915b50505050508152602001600182018054610abb90612cac565b80601f0160208091040260200160405190810160405280929190818152602001828054610ae790612cac565b8015610b345780601f10610b0957610100808354040283529160200191610b34565b820191906000526020600020905b815481529060010190602001808311610b1757829003601f168201915b50505050508152602001600282015481526020016003820160009054906101000a900460ff16151515158152602001600482018054610b7290612cac565b80601f0160208091040260200160405190810160405280929190818152602001828054610b9e90612cac565b8015610beb5780601f10610bc057610100808354040283529160200191610beb565b820191906000526020600020905b815481529060010190602001808311610bce57829003601f168201915b50505050508152602001600582018054610c0490612cac565b80601f0160208091040260200160405190810160405280929190818152602001828054610c3090612cac565b8015610c7d5780601f10610c5257610100808354040283529160200191610c7d565b820191906000526020600020905b815481529060010190602001808311610c6057829003601f168201915b505050505081525050815260200190600101906109f6565b50505050905090565b6001806002811115610cb357610cb2612443565b5b600360003373ffffffffffffffffffffffffffffffffffffffff1673ffffffffffffffffffffffffffffffffffffffff16815260200190815260200160002060030160009054906101000a900460ff166002811115610d1557610d14612443565b5b14610d1f57600080fd5b60008083604051610d309190612c66565b908152602001604051809103902060009054906101000a900473ffffffffffffffffffffffffffffffffffffffff16905060018084604051610d729190612c66565b908152602001604051809103902060030160006101000a81548160ff021916908315150217905550600360003373ffffffffffffffffffffffffffffffffffffffff1673ffffffffffffffffffffffffffffffffffffffff168152602001908152602001600020600101600184604051610dec9190612c66565b9081526020016040518091039020600401908054610e0990612cac565b610e14929190611ff6565b5060005b600280549050811015610f4257838051906020012060028281548110610e4157610e40612d20565b5b9060005260206000209060060201600101604051610e5f9190612dee565b60405180910390201415610f2f57600160028281548110610e8357610e82612d20565b5b906000526020600020906006020160030160006101000a81548160ff021916908315150217905550600360003373ffffffffffffffffffffffffffffffffffffffff1673ffffffffffffffffffffffffffffffffffffffff16815260200190815260200160002060010160028281548110610f0157610f00612d20565b5b9060005260206000209060060201600401908054610f1e90612cac565b610f29929190611ff6565b50610f42565b8080610f3a90612e34565b915050610e18565b5033600084604051610f549190612c66565b908152602001604051809103902060006101000a81548173ffffffffffffffffffffffffffffffffffffffff021916908373ffffffffffffffffffffffffffffffffffffffff160217905550600760009054906101000a900473ffffffffffffffffffffffffffffffffffffffff1673ffffffffffffffffffffffffffffffffffffffff166323b872dd3383600187604051610ff09190612c66565b9081526020016040518091039020600201546040518463ffffffff1660e01b815260040161102093929190612edc565b6020604051808303816000875af115801561103f573d6000803e3d6000fd5b505050506040513d601f19601f820116820180604052508101906110639190612bfd565b50600760009054906101000a900473ffffffffffffffffffffffffffffffffffffffff1673ffffffffffffffffffffffffffffffffffffffff166370a08231336040518263ffffffff1660e01b81526004016110bf91906129b2565b602060405180830381865afa1580156110dc573d6000803e3d6000fd5b505050506040513d601f19601f820116820180604052508101906111009190612cf3565b600360003373ffffffffffffffffffffffffffffffffffffffff1673ffffffffffffffffffffffffffffffffffffffff16815260200190815260200160002060020181905550600760009054906101000a900473ffffffffffffffffffffffffffffffffffffffff1673ffffffffffffffffffffffffffffffffffffffff166370a08231826040518263ffffffff1660e01b81526004016111a19190612f13565b602060405180830381865afa1580156111be573d6000803e3d6000fd5b505050506040513d601f19601f820116820180604052508101906111e29190612cf3565b600360008373ffffffffffffffffffffffffffffffffffffffff1673ffffffffffffffffffffffffffffffffffffffff16815260200190815260200160002060020181905550505050565b611235611f84565b600360003373ffffffffffffffffffffffffffffffffffffffff1673ffffffffffffffffffffffffffffffffffffffff16815260200190815260200160002060405180608001604052908160008201805461128f90612cac565b80601f01602080910402602001604051908101604052809291908181526020018280546112bb90612cac565b80156113085780601f106112dd57610100808354040283529160200191611308565b820191906000526020600020905b8154815290600101906020018083116112eb57829003601f168201915b5050505050815260200160018201805461132190612cac565b80601f016020809104026020016040519081016040528092919081815260200182805461134d90612cac565b801561139a5780601f1061136f5761010080835404028352916020019161139a565b820191906000526020600020905b81548152906001019060200180831161137d57829003601f168201915b50505050508152602001600282015481526020016003820160009054906101000a900460ff1660028111156113d2576113d1612443565b5b60028111156113e4576113e3612443565b5b81525050905090565b6000604051806060016040528085815260200184815260200183815250905060058190806001815401808255809150506001900390600052602060002090600302016000909190919091506000820151816000019080519060200190611454929190612083565b506020820151816001019080519060200190611471929190612083565b50604082015181600201908051906020019061148e929190612083565b50505050505050565b60008060028111156114ac576114ab612443565b5b600360003373ffffffffffffffffffffffffffffffffffffffff1673ffffffffffffffffffffffffffffffffffffffff16815260200190815260200160002060030160009054906101000a900460ff16600281111561150e5761150d612443565b5b1461151857600080fd5b60006040518060c00160405280878152602001868152602001858152602001600015158152602001600360003373ffffffffffffffffffffffffffffffffffffffff1673ffffffffffffffffffffffffffffffffffffffff168152602001908152602001600020600101805461158d90612cac565b80601f01602080910402602001604051908101604052809291908181526020018280546115b990612cac565b80156116065780601f106115db57610100808354040283529160200191611606565b820191906000526020600020905b8154815290600101906020018083116115e957829003601f168201915b505050505081526020018481525090506002819080600181540180825580915050600190039060005260206000209060060201600090919091909150600082015181600001908051906020019061165e929190612083565b50602082015181600101908051906020019061167b929190612083565b506040820151816002015560608201518160030160006101000a81548160ff02191690831515021790555060808201518160040190805190602001906116c2929190612083565b5060a08201518160050190805190602001906116df929190612083565b505050336000866040516116f39190612c66565b908152602001604051809103902060006101000a81548173ffffffffffffffffffffffffffffffffffffffff021916908373ffffffffffffffffffffffffffffffffffffffff160217905550806001866040516117509190612c66565b9081526020016040518091039020600082015181600001908051906020019061177a929190612083565b506020820151816001019080519060200190611797929190612083565b506040820151816002015560608201518160030160006101000a81548160ff02191690831515021790555060808201518160040190805190602001906117de929190612083565b5060a08201518160050190805190602001906117fb929190612083565b50905050505050505050565b600080600760009054906101000a900473ffffffffffffffffffffffffffffffffffffffff1673ffffffffffffffffffffffffffffffffffffffff166318160ddd6040518163ffffffff1660e01b8152600401602060405180830381865afa158015611877573d6000803e3d6000fd5b505050506040513d601f19601f8201168201806040525081019061189b9190612cf3565b734fd550913dd3e93f8dd0312f92f47d5b3b50e8c873ffffffffffffffffffffffffffffffffffffffff1631915091509091565b734fd550913dd3e93f8dd0312f92f47d5b3b50e8c881565b6118ef611f84565b600660009054906101000a900473ffffffffffffffffffffffffffffffffffffffff1673ffffffffffffffffffffffffffffffffffffffff163373ffffffffffffffffffffffffffffffffffffffff161415611a1a576040518060800160405280858152602001848152602001600760009054906101000a900473ffffffffffffffffffffffffffffffffffffffff1673ffffffffffffffffffffffffffffffffffffffff166370a08231336040518263ffffffff1660e01b81526004016119b791906129b2565b602060405180830381865afa1580156119d4573d6000803e3d6000fd5b505050506040513d601f19601f820116820180604052508101906119f89190612cf3565b8152602001600280811115611a1057611a0f612443565b5b8152509050611c84565b600760009054906101000a900473ffffffffffffffffffffffffffffffffffffffff1673ffffffffffffffffffffffffffffffffffffffff166323b872dd600660009054906101000a900473ffffffffffffffffffffffffffffffffffffffff163360646040518463ffffffff1660e01b8152600401611a9c93929190612f69565b6020604051808303816000875af1158015611abb573d6000803e3d6000fd5b505050506040513d601f19601f82011682018060405250810190611adf9190612bfd565b50600760009054906101000a900473ffffffffffffffffffffffffffffffffffffffff1673ffffffffffffffffffffffffffffffffffffffff166370a08231600660009054906101000a900473ffffffffffffffffffffffffffffffffffffffff166040518263ffffffff1660e01b8152600401611b5d91906129b2565b602060405180830381865afa158015611b7a573d6000803e3d6000fd5b505050506040513d601f19601f82011682018060405250810190611b9e9190612cf3565b60036000600660009054906101000a900473ffffffffffffffffffffffffffffffffffffffff1673ffffffffffffffffffffffffffffffffffffffff1673ffffffffffffffffffffffffffffffffffffffff168152602001908152602001600020600201819055506000821415611c4b5760405180608001604052808581526020018481526020016064815260200160006002811115611c4157611c40612443565b5b8152509050611c83565b60405180608001604052808581526020018481526020016064815260200160016002811115611c7d57611c7c612443565b5b81525090505b5b60405180602001604052806000815250805190602001208160200151805190602001201415611cb257600080fd5b80600360003373ffffffffffffffffffffffffffffffffffffffff1673ffffffffffffffffffffffffffffffffffffffff1681526020019081526020016000206000820151816000019080519060200190611d0e929190612083565b506020820151816001019080519060200190611d2b929190612083565b506040820151816002015560608201518160030160006101000a81548160ff02191690836002811115611d6157611d60612443565b5b021790555090505050505050565b60606005805480602002602001604051908101604052809291908181526020016000905b82821015611f7b5783829060005260206000209060030201604051806060016040529081600082018054611dc690612cac565b80601f0160208091040260200160405190810160405280929190818152602001828054611df290612cac565b8015611e3f5780601f10611e1457610100808354040283529160200191611e3f565b820191906000526020600020905b815481529060010190602001808311611e2257829003601f168201915b50505050508152602001600182018054611e5890612cac565b80601f0160208091040260200160405190810160405280929190818152602001828054611e8490612cac565b8015611ed15780601f10611ea657610100808354040283529160200191611ed1565b820191906000526020600020905b815481529060010190602001808311611eb457829003601f168201915b50505050508152602001600282018054611eea90612cac565b80601f0160208091040260200160405190810160405280929190818152602001828054611f1690612cac565b8015611f635780601f10611f3857610100808354040283529160200191611f63565b820191906000526020600020905b815481529060010190602001808311611f4657829003601f168201915b50505050508152505081526020019060010190611d93565b50505050905090565b604051806080016040528060608152602001606081526020016000815260200160006002811115611fb857611fb7612443565b5b81525090565b6040518060c0016040528060608152602001606081526020016000815260200160001515815260200160608152602001606081525090565b82805461200290612cac565b90600052602060002090601f0160209004810192826120245760008555612072565b82601f106120355780548555612072565b8280016001018555821561207257600052602060002091601f016020900482015b82811115612071578254825591600101919060010190612056565b5b50905061207f9190612109565b5090565b82805461208f90612cac565b90600052602060002090601f0160209004810192826120b157600085556120f8565b82601f106120ca57805160ff19168380011785556120f8565b828001600101855582156120f8579182015b828111156120f75782518255916020019190600101906120dc565b5b5090506121059190612109565b5090565b5b8082111561212257600081600090555060010161210a565b5090565b6000604051905090565b600080fd5b600080fd5b600073ffffffffffffffffffffffffffffffffffffffff82169050919050565b60006121658261213a565b9050919050565b6121758161215a565b811461218057600080fd5b50565b6000813590506121928161216c565b92915050565b6000819050919050565b6121ab81612198565b81146121b657600080fd5b50565b6000813590506121c8816121a2565b92915050565b600080604083850312156121e5576121e4612130565b5b60006121f385828601612183565b9250506020612204858286016121b9565b9150509250929050565b600080fd5b600080fd5b6000601f19601f8301169050919050565b7f4e487b7100000000000000000000000000000000000000000000000000000000600052604160045260246000fd5b61226182612218565b810181811067ffffffffffffffff821117156122805761227f612229565b5b80604052505050565b6000612293612126565b905061229f8282612258565b919050565b600067ffffffffffffffff8211156122bf576122be612229565b5b6122c882612218565b9050602081019050919050565b82818337600083830152505050565b60006122f76122f2846122a4565b612289565b90508281526020810184848401111561231357612312612213565b5b61231e8482856122d5565b509392505050565b600082601f83011261233b5761233a61220e565b5b813561234b8482602086016122e4565b91505092915050565b60006020828403121561236a57612369612130565b5b600082013567ffffffffffffffff81111561238857612387612135565b5b61239484828501612326565b91505092915050565b6123a68161215a565b82525050565b600081519050919050565b600082825260208201905092915050565b60005b838110156123e65780820151818401526020810190506123cb565b838111156123f5576000848401525b50505050565b6000612406826123ac565b61241081856123b7565b93506124208185602086016123c8565b61242981612218565b840191505092915050565b61243d81612198565b82525050565b7f4e487b7100000000000000000000000000000000000000000000000000000000600052602160045260246000fd5b6003811061248357612482612443565b5b50565b600081905061249482612472565b919050565b60006124a482612486565b9050919050565b6124b481612499565b82525050565b600060808301600083015184820360008601526124d782826123fb565b915050602083015184820360208601526124f182826123fb565b91505060408301516125066040860182612434565b50606083015161251960608601826124ab565b508091505092915050565b6000604082019050612539600083018561239d565b818103602083015261254b81846124ba565b90509392505050565b61255d81612198565b82525050565b60006020820190506125786000830184612554565b92915050565b60008115159050919050565b6125938161257e565b82525050565b60006020820190506125ae600083018461258a565b92915050565b6125bd8161257e565b82525050565b600060c08301600083015184820360008601526125e082826123fb565b915050602083015184820360208601526125fa82826123fb565b915050604083015161260f6040860182612434565b50606083015161262260608601826125b4565b506080830151848203608086015261263a82826123fb565b91505060a083015184820360a086015261265482826123fb565b9150508091505092915050565b6000602082019050818103600083015261267b81846125c3565b905092915050565b600081519050919050565b600082825260208201905092915050565b6000819050602082019050919050565b600060c08301600083015184820360008601526126cc82826123fb565b915050602083015184820360208601526126e682826123fb565b91505060408301516126fb6040860182612434565b50606083015161270e60608601826125b4565b506080830151848203608086015261272682826123fb565b91505060a083015184820360a086015261274082826123fb565b9150508091505092915050565b600061275983836126af565b905092915050565b6000602082019050919050565b600061277982612683565b612783818561268e565b9350836020820285016127958561269f565b8060005b858110156127d157848403895281516127b2858261274d565b94506127bd83612761565b925060208a01995050600181019050612799565b50829750879550505050505092915050565b600060208201905081810360008301526127fd818461276e565b905092915050565b6000602082019050818103600083015261281f81846124ba565b905092915050565b6000806000606084860312156128405761283f612130565b5b600084013567ffffffffffffffff81111561285e5761285d612135565b5b61286a86828701612326565b935050602084013567ffffffffffffffff81111561288b5761288a612135565b5b61289786828701612326565b925050604084013567ffffffffffffffff8111156128b8576128b7612135565b5b6128c486828701612326565b9150509250925092565b600080600080608085870312156128e8576128e7612130565b5b600085013567ffffffffffffffff81111561290657612905612135565b5b61291287828801612326565b945050602085013567ffffffffffffffff81111561293357612932612135565b5b61293f87828801612326565b9350506040612950878288016121b9565b925050606085013567ffffffffffffffff81111561297157612970612135565b5b61297d87828801612326565b91505092959194509250565b600060408201905061299e6000830185612554565b6129ab6020830184612554565b9392505050565b60006020820190506129c7600083018461239d565b92915050565b6000806000606084860312156129e6576129e5612130565b5b600084013567ffffffffffffffff811115612a0457612a03612135565b5b612a1086828701612326565b935050602084013567ffffffffffffffff811115612a3157612a30612135565b5b612a3d86828701612326565b9250506040612a4e868287016121b9565b9150509250925092565b600081519050919050565b600082825260208201905092915050565b6000819050602082019050919050565b60006060830160008301518482036000860152612aa182826123fb565b91505060208301518482036020860152612abb82826123fb565b91505060408301518482036040860152612ad582826123fb565b9150508091505092915050565b6000612aee8383612a84565b905092915050565b6000602082019050919050565b6000612b0e82612a58565b612b188185612a63565b935083602082028501612b2a85612a74565b8060005b85811015612b665784840389528151612b478582612ae2565b9450612b5283612af6565b925060208a01995050600181019050612b2e565b50829750879550505050505092915050565b60006020820190508181036000830152612b928184612b03565b905092915050565b6000606082019050612baf600083018661239d565b612bbc602083018561239d565b612bc96040830184612554565b949350505050565b612bda8161257e565b8114612be557600080fd5b50565b600081519050612bf781612bd1565b92915050565b600060208284031215612c1357612c12612130565b5b6000612c2184828501612be8565b91505092915050565b600081905092915050565b6000612c40826123ac565b612c4a8185612c2a565b9350612c5a8185602086016123c8565b80840191505092915050565b6000612c728284612c35565b915081905092915050565b7f4e487b7100000000000000000000000000000000000000000000000000000000600052602260045260246000fd5b60006002820490506001821680612cc457607f821691505b60208210811415612cd857612cd7612c7d565b5b50919050565b600081519050612ced816121a2565b92915050565b600060208284031215612d0957612d08612130565b5b6000612d1784828501612cde565b91505092915050565b7f4e487b7100000000000000000000000000000000000000000000000000000000600052603260045260246000fd5b600081905092915050565b60008190508160005260206000209050919050565b60008154612d7c81612cac565b612d868186612d4f565b94506001821660008114612da15760018114612db257612de5565b60ff19831686528186019350612de5565b612dbb85612d5a565b60005b83811015612ddd57815481890152600182019150602081019050612dbe565b838801955050505b50505092915050565b6000612dfa8284612d6f565b915081905092915050565b7f4e487b7100000000000000000000000000000000000000000000000000000000600052601160045260246000fd5b6000612e3f82612198565b91507fffffffffffffffffffffffffffffffffffffffffffffffffffffffffffffffff821415612e7257612e71612e05565b5b600182019050919050565b6000819050919050565b6000612ea2612e9d612e988461213a565b612e7d565b61213a565b9050919050565b6000612eb482612e87565b9050919050565b6000612ec682612ea9565b9050919050565b612ed681612ebb565b82525050565b6000606082019050612ef1600083018661239d565b612efe6020830185612ecd565b612f0b6040830184612554565b949350505050565b6000602082019050612f286000830184612ecd565b92915050565b6000819050919050565b6000612f53612f4e612f4984612f2e565b612e7d565b612198565b9050919050565b612f6381612f38565b82525050565b6000606082019050612f7e600083018661239d565b612f8b602083018561239d565b612f986040830184612f5a565b94935050505056fea264697066735822122096bdee10c4ce600e28fdb72c5731adfedbb1d42ae82c85de30cb6e3ebeb9473664736f6c634300080c0033",
  "immutableReferences": {},
  "source": "// SPDX-License-Identifier: MIT\n\npragma solidity ^0.8.12;\n\ninterface FrontCoinInterface {\n    function totalSupply() external view returns (uint256);\n    function transferFrom(address owner, address buyer, uint numTokens) external returns (bool);\n    function balanceOf(address tokenOwner) external view returns (uint);\n}\n\ncontract FrontChain {\n\n    // Struct component used to store the frontend component basic information\n    // It doesn't store the actual codes. Instead it stores a unique UUID which identifies\n    // it uniquely and can be used to fetch the component's codes through a central server.\n    struct Component {\n        string name;\n        string componentId; // UUID for components\n        uint price;\n        bool isSold;\n        string ownerUUID;\n        string description;\n    }\n    // MAPPING: componentId => owner\n    mapping(string => address) componentOwner;\n    // MAPPING: componentId => Component : To get the component details\n    mapping(string => Component) componentDetails;\n    // Stores all components\n    Component[] components;\n\n    // Used to store information regarding the user. Every user is identified uniquely by \n    // a userId which is a unique UUID generated at the time of Register from the DAPP UI.\n    struct User{\n        string name;\n        string userId;\n        uint balance;\n        UserType userType;\n    }\n    // MAPPING: address => User\n    mapping(address => User) userAddress;\n    // ENUM: user type | SELLER => 0; BUYER => 1\n    enum UserType{ SELLER, BUYER, CEO }\n\n    // Stores the information about any feature request for any FE component that is needed by \n    // the user\n    struct Request{\n        string description;\n        string reqId; // UUID for request | React\n        string timestamp;\n    }\n    // MAPPING: reqId => Request\n    mapping(string => Request) requestMap;\n    // Stores all requests\n    Request[] requests;\n\n    // stores the address of the contract deployer\n    address ceo;\n\n    // stored to compare null string values with\n    string constant NULL_STRING = '';\n\n    // Transfer event for cryptocurrency transfer between two accounts.\n    event Transfer(address indexed from, address indexed to, uint amount);\n\n    address public constant FC_ADDRESS = 0x4fD550913Dd3e93F8DD0312f92F47d5B3B50e8c8;\n    \n    FrontCoinInterface fcInterface = FrontCoinInterface(FC_ADDRESS);\n\n    constructor() {\n        ceo = msg.sender;\n    }\n\n    // Generic modifier based on enum UserType\n    modifier onlyUserType(UserType userType){\n        require(userAddress[msg.sender].userType == userType);\n        _;\n    }\n\n    modifier onlyBuyerAndCeo{\n        require(userAddress[msg.sender].userType == UserType.BUYER || msg.sender == ceo);\n        _;\n    }\n\n    modifier onlyCeo{\n        require(msg.sender == ceo);\n        _;\n    }\n\n    function getFCStartingBalance() view public returns (uint256, uint256) {\n        return (fcInterface.totalSupply(), address(FC_ADDRESS).balance);\n    }\n\n    function getFCUserBalance() view public returns (uint256) {\n        return fcInterface.balanceOf(msg.sender);\n    }\n\n    function isUserCeo() view public returns (bool){\n        return msg.sender == ceo;\n    }\n\n    function airDrop(address toAddress, uint amount) public payable {\n        fcInterface.transferFrom(ceo, toAddress, amount);\n    }\n\n    // [WORKING] REGISTER USER\n    // Registers a new user based on his user type and then maps its address with the struct User.\n    function registerUser(string memory name, string memory userId, uint userType) payable public {\n        // create new user\n        User memory newUser;\n\n        if(msg.sender == ceo){\n            // ceo registering\n            newUser = User(name, userId, fcInterface.balanceOf(msg.sender), UserType.CEO);\n        }else{\n            // other user registering\n            fcInterface.transferFrom(ceo, msg.sender, 100);\n            \n            // update balance of ceo after registration\n            userAddress[ceo].balance = fcInterface.balanceOf(ceo);\n\n            if(userType == 0)\n                newUser = User(name, userId, 100, UserType.SELLER);\n            else\n                newUser = User(name, userId, 100, UserType.BUYER);\n        }\n\n        // userId should not be null | Comparing userId string with Null String\n        require(keccak256(bytes(newUser.userId)) != keccak256(bytes(NULL_STRING)));\n        // map user address to its details\n        userAddress[msg.sender] = newUser;\n    }\n\n    // [WORKING] PUBLISH COMPONENT - Modifier: onlySeller\n    // This function accepts the component's name, its uuid, price and a description and none of the codes\n    // and stores this information onto the blockchain.\n    function publishComponent(string memory name, string memory componentId, uint price, string memory description) onlyUserType(UserType.SELLER) payable public{\n        Component memory newComponent = Component(name, componentId, price, false, userAddress[msg.sender].userId, description);\n        // push new component to all component list\n        components.push(newComponent);\n        // map owner of the new component\n        componentOwner[componentId] = msg.sender;\n        // map componentId to its details\n        componentDetails[componentId] = newComponent;\n    }\n\n    // [WORKING] GET ALL COMPONENTS\n    function getAllComponents() view public returns(Component[] memory) {\n        return components;\n    }\n\n    // [WORKING] GET COMPONENT OWNER\n    function getOwnerDetails(string memory componentId) view public returns(address, User memory) {\n        return (componentOwner[componentId], userAddress[componentOwner[componentId]]);\n    }\n\n    // GET ANY USER from Registered Users\n    function getUser() view public returns (User memory){\n        return userAddress[msg.sender];\n    }\n\n    // [WORKING] GET COMPONENT DETAILS\n    function getComponentDetails(string memory componentId) view public returns (Component memory) {\n        return componentDetails[componentId];\n    }\n\n    // ADD REQUEST\n    function addRequest(string memory description, string memory reqId, string memory timestamp) public {\n        Request memory temp = Request(description, reqId, timestamp);\n        // Push new request to all request list\n        requests.push(temp);\n    }\n\n    // GET ALL REQUESTS\n    function getAllRequests() view public returns(Request[] memory){\n        return requests;\n    }\n\n    // [WORKING] PURCHASE COMPONENT - Modifier: Owner can not purchase himself/herself. - onlyBuyer\n    function purchaseComponent(string memory componentId) payable onlyUserType(UserType.BUYER) public {\n\n        // GET OWNER ADDRESS\n        address payable ownerAddress = payable(componentOwner[componentId]);\n\n        // sell the component\n        componentDetails[componentId].isSold = true;\n        componentDetails[componentId].ownerUUID = userAddress[msg.sender].userId;\n\n        // change components list\n        for(uint i=0; i<components.length; i++){\n            if(keccak256(bytes(components[i].componentId)) == keccak256(bytes(componentId))){\n                // found\n                components[i].isSold = true;\n                components[i].ownerUUID = userAddress[msg.sender].userId;\n                break;\n            }\n        }\n\n        // transfer component mapping to buyer\n        componentOwner[componentId] = msg.sender;\n\n        // Pay Owner\n        fcInterface.transferFrom(msg.sender, ownerAddress, componentDetails[componentId].price);\n\n        // Change balances\n        userAddress[msg.sender].balance = fcInterface.balanceOf(msg.sender); // BUYER\n        userAddress[ownerAddress].balance = fcInterface.balanceOf(ownerAddress); // SELLER\n    }\n}\n",
  "sourcePath": "/Users/rahulsharma/Desktop/BlockChain-Sandbox/FrontChain/contracts/FrontChain.sol",
  "compiler": {
    "name": "solc",
    "version": "0.8.12+commit.f00d7308.Emscripten.clang"
  },
  "schemaVersion": "3.4.6",
  "updatedAt": "2022-04-25T02:19:14.306Z",
  "networkType": "ethereum",
  "devdoc": {
    "kind": "dev",
    "methods": {},
    "version": 1
  },
  "userdoc": {
    "kind": "user",
    "methods": {},
    "version": 1
  }
}