{
  "contractName": "FrontChain",
  "abi": [
    {
      "inputs": [],
      "stateMutability": "nonpayable",
      "type": "constructor"
    },
    {
      "anonymous": false,
      "inputs": [
        {
          "indexed": true,
          "internalType": "address",
          "name": "from",
          "type": "address"
        },
        {
          "indexed": true,
          "internalType": "address",
          "name": "to",
          "type": "address"
        },
        {
          "indexed": false,
          "internalType": "uint256",
          "name": "amount",
          "type": "uint256"
        }
      ],
      "name": "Transfer",
      "type": "event"
    },
    {
      "inputs": [],
      "name": "FC_ADDRESS",
      "outputs": [
        {
          "internalType": "address",
          "name": "",
          "type": "address"
        }
      ],
      "stateMutability": "view",
      "type": "function",
      "constant": true
    },
    {
      "inputs": [
        {
          "internalType": "uint256",
          "name": "numTokens",
          "type": "uint256"
        }
      ],
      "name": "approveDealer",
      "outputs": [
        {
          "internalType": "bool",
          "name": "",
          "type": "bool"
        }
      ],
      "stateMutability": "nonpayable",
      "type": "function"
    },
    {
      "inputs": [
        {
          "internalType": "address",
          "name": "buyer",
          "type": "address"
        }
      ],
      "name": "getDealerAllowance",
      "outputs": [
        {
          "internalType": "uint256",
          "name": "",
          "type": "uint256"
        }
      ],
      "stateMutability": "view",
      "type": "function",
      "constant": true
    },
    {
      "inputs": [],
      "name": "getFCStartingBalance",
      "outputs": [
        {
          "internalType": "uint256",
          "name": "",
          "type": "uint256"
        },
        {
          "internalType": "uint256",
          "name": "",
          "type": "uint256"
        }
      ],
      "stateMutability": "view",
      "type": "function",
      "constant": true
    },
    {
      "inputs": [],
      "name": "getFCUserBalance",
      "outputs": [
        {
          "internalType": "uint256",
          "name": "",
          "type": "uint256"
        }
      ],
      "stateMutability": "view",
      "type": "function",
      "constant": true
    },
    {
      "inputs": [],
      "name": "isUserCeo",
      "outputs": [
        {
          "internalType": "bool",
          "name": "",
          "type": "bool"
        }
      ],
      "stateMutability": "view",
      "type": "function",
      "constant": true
    },
    {
      "inputs": [
        {
          "internalType": "address",
          "name": "toAddress",
          "type": "address"
        },
        {
          "internalType": "uint256",
          "name": "amount",
          "type": "uint256"
        }
      ],
      "name": "airDrop",
      "outputs": [],
      "stateMutability": "payable",
      "type": "function",
      "payable": true
    },
    {
      "inputs": [
        {
          "internalType": "string",
          "name": "name",
          "type": "string"
        },
        {
          "internalType": "string",
          "name": "userId",
          "type": "string"
        },
        {
          "internalType": "uint256",
          "name": "userType",
          "type": "uint256"
        }
      ],
      "name": "registerUser",
      "outputs": [],
      "stateMutability": "payable",
      "type": "function",
      "payable": true
    },
    {
      "inputs": [
        {
          "internalType": "string",
          "name": "name",
          "type": "string"
        },
        {
          "internalType": "string",
          "name": "componentId",
          "type": "string"
        },
        {
          "internalType": "uint256",
          "name": "price",
          "type": "uint256"
        },
        {
          "internalType": "string",
          "name": "description",
          "type": "string"
        }
      ],
      "name": "publishComponent",
      "outputs": [],
      "stateMutability": "payable",
      "type": "function",
      "payable": true
    },
    {
      "inputs": [],
      "name": "getAllComponents",
      "outputs": [
        {
          "components": [
            {
              "internalType": "string",
              "name": "name",
              "type": "string"
            },
            {
              "internalType": "string",
              "name": "componentId",
              "type": "string"
            },
            {
              "internalType": "uint256",
              "name": "price",
              "type": "uint256"
            },
            {
              "internalType": "bool",
              "name": "isSold",
              "type": "bool"
            },
            {
              "internalType": "string",
              "name": "ownerUUID",
              "type": "string"
            },
            {
              "internalType": "string",
              "name": "description",
              "type": "string"
            }
          ],
          "internalType": "struct FrontChain.Component[]",
          "name": "",
          "type": "tuple[]"
        }
      ],
      "stateMutability": "view",
      "type": "function",
      "constant": true
    },
    {
      "inputs": [
        {
          "internalType": "string",
          "name": "componentId",
          "type": "string"
        }
      ],
      "name": "getOwnerDetails",
      "outputs": [
        {
          "internalType": "address",
          "name": "",
          "type": "address"
        },
        {
          "components": [
            {
              "internalType": "string",
              "name": "name",
              "type": "string"
            },
            {
              "internalType": "string",
              "name": "userId",
              "type": "string"
            },
            {
              "internalType": "uint256",
              "name": "balance",
              "type": "uint256"
            },
            {
              "internalType": "enum FrontChain.UserType",
              "name": "userType",
              "type": "uint8"
            }
          ],
          "internalType": "struct FrontChain.User",
          "name": "",
          "type": "tuple"
        }
      ],
      "stateMutability": "view",
      "type": "function",
      "constant": true
    },
    {
      "inputs": [],
      "name": "getUser",
      "outputs": [
        {
          "components": [
            {
              "internalType": "string",
              "name": "name",
              "type": "string"
            },
            {
              "internalType": "string",
              "name": "userId",
              "type": "string"
            },
            {
              "internalType": "uint256",
              "name": "balance",
              "type": "uint256"
            },
            {
              "internalType": "enum FrontChain.UserType",
              "name": "userType",
              "type": "uint8"
            }
          ],
          "internalType": "struct FrontChain.User",
          "name": "",
          "type": "tuple"
        }
      ],
      "stateMutability": "view",
      "type": "function",
      "constant": true
    },
    {
      "inputs": [
        {
          "internalType": "string",
          "name": "componentId",
          "type": "string"
        }
      ],
      "name": "getComponentDetails",
      "outputs": [
        {
          "components": [
            {
              "internalType": "string",
              "name": "name",
              "type": "string"
            },
            {
              "internalType": "string",
              "name": "componentId",
              "type": "string"
            },
            {
              "internalType": "uint256",
              "name": "price",
              "type": "uint256"
            },
            {
              "internalType": "bool",
              "name": "isSold",
              "type": "bool"
            },
            {
              "internalType": "string",
              "name": "ownerUUID",
              "type": "string"
            },
            {
              "internalType": "string",
              "name": "description",
              "type": "string"
            }
          ],
          "internalType": "struct FrontChain.Component",
          "name": "",
          "type": "tuple"
        }
      ],
      "stateMutability": "view",
      "type": "function",
      "constant": true
    },
    {
      "inputs": [
        {
          "internalType": "string",
          "name": "description",
          "type": "string"
        },
        {
          "internalType": "string",
          "name": "reqId",
          "type": "string"
        },
        {
          "internalType": "string",
          "name": "timestamp",
          "type": "string"
        }
      ],
      "name": "addRequest",
      "outputs": [],
      "stateMutability": "nonpayable",
      "type": "function"
    },
    {
      "inputs": [],
      "name": "getAllRequests",
      "outputs": [
        {
          "components": [
            {
              "internalType": "string",
              "name": "description",
              "type": "string"
            },
            {
              "internalType": "string",
              "name": "reqId",
              "type": "string"
            },
            {
              "internalType": "string",
              "name": "timestamp",
              "type": "string"
            }
          ],
          "internalType": "struct FrontChain.Request[]",
          "name": "",
          "type": "tuple[]"
        }
      ],
      "stateMutability": "view",
      "type": "function",
      "constant": true
    },
    {
      "inputs": [
        {
          "internalType": "string",
          "name": "componentId",
          "type": "string"
        }
      ],
      "name": "purchaseComponent",
      "outputs": [],
      "stateMutability": "payable",
      "type": "function",
      "payable": true
    }
  ],
  "bytecode": "0x608060405273690e47bad8f972dc1f2dfa1e0ee9eaabc49597b4600760006101000a81548173ffffffffffffffffffffffffffffffffffffffff021916908373ffffffffffffffffffffffffffffffffffffffff16021790555034801561006557600080fd5b5033600660006101000a81548173ffffffffffffffffffffffffffffffffffffffff021916908373ffffffffffffffffffffffffffffffffffffffff160217905550613252806100b66000396000f3fe6080604052600436106100f35760003560e01c8063832880e71161008a578063d6a636ec11610059578063d6a636ec14610316578063d6b5da0814610342578063f209e74f1461036d578063fb1a002a14610389576100f3565b8063832880e714610269578063b27d118414610294578063b579f627146102bd578063b63ebba0146102fa576100f3565b806349a0b0b1116100c657806349a0b0b1146101a85780635e4e25fa146101e557806366fadf0b1461022257806373c480a11461024d576100f3565b8063045f7850146100f857806308fcf6e5146101145780630ecada53146101525780632b31ce341461017d575b600080fd5b610112600480360381019061010d919061242b565b6103b4565b005b34801561012057600080fd5b5061013b600480360381019061013691906125b1565b6106df565b604051610149929190612781565b60405180910390f35b34801561015e57600080fd5b50610167610924565b60405161017491906127c0565b60405180910390f35b34801561018957600080fd5b506101926109c7565b60405161019f91906127f6565b60405180910390f35b3480156101b457600080fd5b506101cf60048036038101906101ca91906125b1565b610a1f565b6040516101dc91906128be565b60405180910390f35b3480156101f157600080fd5b5061020c600480360381019061020791906128e0565b610cc4565b60405161021991906127f6565b60405180910390f35b34801561022e57600080fd5b50610237610d72565b6040516102449190612a6d565b60405180910390f35b610267600480360381019061026291906125b1565b61103e565b005b34801561027557600080fd5b5061027e6115cf565b60405161028b9190612a8f565b60405180910390f35b3480156102a057600080fd5b506102bb60048036038101906102b69190612ab1565b61178f565b005b3480156102c957600080fd5b506102e460048036038101906102df9190612b58565b611839565b6040516102f191906127c0565b60405180910390f35b610314600480360381019061030f9190612b85565b6118e0565b005b34801561032257600080fd5b5061032b611c50565b604051610339929190612c40565b60405180910390f35b34801561034e57600080fd5b50610357611d18565b6040516103649190612c69565b60405180910390f35b61038760048036038101906103829190612c84565b611d30565b005b34801561039557600080fd5b5061039e611fcc565b6040516103ab9190612e2f565b60405180910390f35b600660009054906101000a900473ffffffffffffffffffffffffffffffffffffffff1673ffffffffffffffffffffffffffffffffffffffff163373ffffffffffffffffffffffffffffffffffffffff161461040e57600080fd5b600760009054906101000a900473ffffffffffffffffffffffffffffffffffffffff1673ffffffffffffffffffffffffffffffffffffffff1663beabacc8600660009054906101000a900473ffffffffffffffffffffffffffffffffffffffff1684846040518463ffffffff1660e01b815260040161048f93929190612e51565b6020604051808303816000875af11580156104ae573d6000803e3d6000fd5b505050506040513d601f19601f820116820180604052508101906104d29190612eb4565b50600760009054906101000a900473ffffffffffffffffffffffffffffffffffffffff1673ffffffffffffffffffffffffffffffffffffffff166370a08231600660009054906101000a900473ffffffffffffffffffffffffffffffffffffffff166040518263ffffffff1660e01b81526004016105509190612c69565b602060405180830381865afa15801561056d573d6000803e3d6000fd5b505050506040513d601f19601f820116820180604052508101906105919190612ef6565b60036000600660009054906101000a900473ffffffffffffffffffffffffffffffffffffffff1673ffffffffffffffffffffffffffffffffffffffff1673ffffffffffffffffffffffffffffffffffffffff16815260200190815260200160002060020181905550600760009054906101000a900473ffffffffffffffffffffffffffffffffffffffff1673ffffffffffffffffffffffffffffffffffffffff166370a08231836040518263ffffffff1660e01b81526004016106549190612c69565b602060405180830381865afa158015610671573d6000803e3d6000fd5b505050506040513d601f19601f820116820180604052508101906106959190612ef6565b600360008473ffffffffffffffffffffffffffffffffffffffff1673ffffffffffffffffffffffffffffffffffffffff168152602001908152602001600020600201819055505050565b60006106e96121e1565b6000836040516106f99190612f5f565b908152602001604051809103902060009054906101000a900473ffffffffffffffffffffffffffffffffffffffff1660036000808660405161073b9190612f5f565b908152602001604051809103902060009054906101000a900473ffffffffffffffffffffffffffffffffffffffff1673ffffffffffffffffffffffffffffffffffffffff1673ffffffffffffffffffffffffffffffffffffffff168152602001908152602001600020806040518060800160405290816000820180546107c090612fa5565b80601f01602080910402602001604051908101604052809291908181526020018280546107ec90612fa5565b80156108395780601f1061080e57610100808354040283529160200191610839565b820191906000526020600020905b81548152906001019060200180831161081c57829003601f168201915b5050505050815260200160018201805461085290612fa5565b80601f016020809104026020016040519081016040528092919081815260200182805461087e90612fa5565b80156108cb5780601f106108a0576101008083540402835291602001916108cb565b820191906000526020600020905b8154815290600101906020018083116108ae57829003601f168201915b50505050508152602001600282015481526020016003820160009054906101000a900460ff166002811115610903576109026126a0565b5b6002811115610915576109146126a0565b5b81525050905091509150915091565b6000600760009054906101000a900473ffffffffffffffffffffffffffffffffffffffff1673ffffffffffffffffffffffffffffffffffffffff166370a08231336040518263ffffffff1660e01b81526004016109819190612c69565b602060405180830381865afa15801561099e573d6000803e3d6000fd5b505050506040513d601f19601f820116820180604052508101906109c29190612ef6565b905090565b6000600660009054906101000a900473ffffffffffffffffffffffffffffffffffffffff1673ffffffffffffffffffffffffffffffffffffffff163373ffffffffffffffffffffffffffffffffffffffff1614905090565b610a2761221b565b600182604051610a379190612f5f565b90815260200160405180910390206040518060c0016040529081600082018054610a6090612fa5565b80601f0160208091040260200160405190810160405280929190818152602001828054610a8c90612fa5565b8015610ad95780601f10610aae57610100808354040283529160200191610ad9565b820191906000526020600020905b815481529060010190602001808311610abc57829003601f168201915b50505050508152602001600182018054610af290612fa5565b80601f0160208091040260200160405190810160405280929190818152602001828054610b1e90612fa5565b8015610b6b5780601f10610b4057610100808354040283529160200191610b6b565b820191906000526020600020905b815481529060010190602001808311610b4e57829003601f168201915b50505050508152602001600282015481526020016003820160009054906101000a900460ff16151515158152602001600482018054610ba990612fa5565b80601f0160208091040260200160405190810160405280929190818152602001828054610bd590612fa5565b8015610c225780601f10610bf757610100808354040283529160200191610c22565b820191906000526020600020905b815481529060010190602001808311610c0557829003601f168201915b50505050508152602001600582018054610c3b90612fa5565b80601f0160208091040260200160405190810160405280929190818152602001828054610c6790612fa5565b8015610cb45780601f10610c8957610100808354040283529160200191610cb4565b820191906000526020600020905b815481529060010190602001808311610c9757829003601f168201915b5050505050815250509050919050565b6000600760009054906101000a900473ffffffffffffffffffffffffffffffffffffffff1673ffffffffffffffffffffffffffffffffffffffff1663e1f21c673330856040518463ffffffff1660e01b8152600401610d2593929190612e51565b6020604051808303816000875af1158015610d44573d6000803e3d6000fd5b505050506040513d601f19601f82011682018060405250810190610d689190612eb4565b5060019050919050565b60606002805480602002602001604051908101604052809291908181526020016000905b8282101561103557838290600052602060002090600602016040518060c0016040529081600082018054610dc990612fa5565b80601f0160208091040260200160405190810160405280929190818152602001828054610df590612fa5565b8015610e425780601f10610e1757610100808354040283529160200191610e42565b820191906000526020600020905b815481529060010190602001808311610e2557829003601f168201915b50505050508152602001600182018054610e5b90612fa5565b80601f0160208091040260200160405190810160405280929190818152602001828054610e8790612fa5565b8015610ed45780601f10610ea957610100808354040283529160200191610ed4565b820191906000526020600020905b815481529060010190602001808311610eb757829003601f168201915b50505050508152602001600282015481526020016003820160009054906101000a900460ff16151515158152602001600482018054610f1290612fa5565b80601f0160208091040260200160405190810160405280929190818152602001828054610f3e90612fa5565b8015610f8b5780601f10610f6057610100808354040283529160200191610f8b565b820191906000526020600020905b815481529060010190602001808311610f6e57829003601f168201915b50505050508152602001600582018054610fa490612fa5565b80601f0160208091040260200160405190810160405280929190818152602001828054610fd090612fa5565b801561101d5780601f10610ff25761010080835404028352916020019161101d565b820191906000526020600020905b81548152906001019060200180831161100057829003601f168201915b50505050508152505081526020019060010190610d96565b50505050905090565b6001806002811115611053576110526126a0565b5b600360003373ffffffffffffffffffffffffffffffffffffffff1673ffffffffffffffffffffffffffffffffffffffff16815260200190815260200160002060030160009054906101000a900460ff1660028111156110b5576110b46126a0565b5b146110bf57600080fd5b600080836040516110d09190612f5f565b908152602001604051809103902060009054906101000a900473ffffffffffffffffffffffffffffffffffffffff169050600180846040516111129190612f5f565b908152602001604051809103902060030160006101000a81548160ff021916908315150217905550600360003373ffffffffffffffffffffffffffffffffffffffff1673ffffffffffffffffffffffffffffffffffffffff16815260200190815260200160002060010160018460405161118c9190612f5f565b90815260200160405180910390206004019080546111a990612fa5565b6111b4929190612253565b5060005b6002805490508110156112e2578380519060200120600282815481106111e1576111e0612fd7565b5b90600052602060002090600602016001016040516111ff91906130a5565b604051809103902014156112cf5760016002828154811061122357611222612fd7565b5b906000526020600020906006020160030160006101000a81548160ff021916908315150217905550600360003373ffffffffffffffffffffffffffffffffffffffff1673ffffffffffffffffffffffffffffffffffffffff168152602001908152602001600020600101600282815481106112a1576112a0612fd7565b5b90600052602060002090600602016004019080546112be90612fa5565b6112c9929190612253565b506112e2565b80806112da906130eb565b9150506111b8565b50336000846040516112f49190612f5f565b908152602001604051809103902060006101000a81548173ffffffffffffffffffffffffffffffffffffffff021916908373ffffffffffffffffffffffffffffffffffffffff160217905550600760009054906101000a900473ffffffffffffffffffffffffffffffffffffffff1673ffffffffffffffffffffffffffffffffffffffff16635fc9309c33836001876040516113909190612f5f565b908152602001604051809103902060020154306040518563ffffffff1660e01b81526004016113c29493929190613193565b6020604051808303816000875af11580156113e1573d6000803e3d6000fd5b505050506040513d601f19601f820116820180604052508101906114059190612eb4565b50600760009054906101000a900473ffffffffffffffffffffffffffffffffffffffff1673ffffffffffffffffffffffffffffffffffffffff166370a08231336040518263ffffffff1660e01b81526004016114619190612c69565b602060405180830381865afa15801561147e573d6000803e3d6000fd5b505050506040513d601f19601f820116820180604052508101906114a29190612ef6565b600360003373ffffffffffffffffffffffffffffffffffffffff1673ffffffffffffffffffffffffffffffffffffffff16815260200190815260200160002060020181905550600760009054906101000a900473ffffffffffffffffffffffffffffffffffffffff1673ffffffffffffffffffffffffffffffffffffffff166370a08231826040518263ffffffff1660e01b815260040161154391906131d8565b602060405180830381865afa158015611560573d6000803e3d6000fd5b505050506040513d601f19601f820116820180604052508101906115849190612ef6565b600360008373ffffffffffffffffffffffffffffffffffffffff1673ffffffffffffffffffffffffffffffffffffffff16815260200190815260200160002060020181905550505050565b6115d76121e1565b600360003373ffffffffffffffffffffffffffffffffffffffff1673ffffffffffffffffffffffffffffffffffffffff16815260200190815260200160002060405180608001604052908160008201805461163190612fa5565b80601f016020809104026020016040519081016040528092919081815260200182805461165d90612fa5565b80156116aa5780601f1061167f576101008083540402835291602001916116aa565b820191906000526020600020905b81548152906001019060200180831161168d57829003601f168201915b505050505081526020016001820180546116c390612fa5565b80601f01602080910402602001604051908101604052809291908181526020018280546116ef90612fa5565b801561173c5780601f106117115761010080835404028352916020019161173c565b820191906000526020600020905b81548152906001019060200180831161171f57829003601f168201915b50505050508152602001600282015481526020016003820160009054906101000a900460ff166002811115611774576117736126a0565b5b6002811115611786576117856126a0565b5b81525050905090565b60006040518060600160405280858152602001848152602001838152509050600581908060018154018082558091505060019003906000526020600020906003020160009091909190915060008201518160000190805190602001906117f69291906122e0565b5060208201518160010190805190602001906118139291906122e0565b5060408201518160020190805190602001906118309291906122e0565b50505050505050565b6000600760009054906101000a900473ffffffffffffffffffffffffffffffffffffffff1673ffffffffffffffffffffffffffffffffffffffff1663dd62ed3e83306040518363ffffffff1660e01b81526004016118989291906131f3565b602060405180830381865afa1580156118b5573d6000803e3d6000fd5b505050506040513d601f19601f820116820180604052508101906118d99190612ef6565b9050919050565b60008060028111156118f5576118f46126a0565b5b600360003373ffffffffffffffffffffffffffffffffffffffff1673ffffffffffffffffffffffffffffffffffffffff16815260200190815260200160002060030160009054906101000a900460ff166002811115611957576119566126a0565b5b1461196157600080fd5b60006040518060c00160405280878152602001868152602001858152602001600015158152602001600360003373ffffffffffffffffffffffffffffffffffffffff1673ffffffffffffffffffffffffffffffffffffffff16815260200190815260200160002060010180546119d690612fa5565b80601f0160208091040260200160405190810160405280929190818152602001828054611a0290612fa5565b8015611a4f5780601f10611a2457610100808354040283529160200191611a4f565b820191906000526020600020905b815481529060010190602001808311611a3257829003601f168201915b5050505050815260200184815250905060028190806001815401808255809150506001900390600052602060002090600602016000909190919091506000820151816000019080519060200190611aa79291906122e0565b506020820151816001019080519060200190611ac49291906122e0565b506040820151816002015560608201518160030160006101000a81548160ff0219169083151502179055506080820151816004019080519060200190611b0b9291906122e0565b5060a0820151816005019080519060200190611b289291906122e0565b50505033600086604051611b3c9190612f5f565b908152602001604051809103902060006101000a81548173ffffffffffffffffffffffffffffffffffffffff021916908373ffffffffffffffffffffffffffffffffffffffff16021790555080600186604051611b999190612f5f565b90815260200160405180910390206000820151816000019080519060200190611bc39291906122e0565b506020820151816001019080519060200190611be09291906122e0565b506040820151816002015560608201518160030160006101000a81548160ff0219169083151502179055506080820151816004019080519060200190611c279291906122e0565b5060a0820151816005019080519060200190611c449291906122e0565b50905050505050505050565b600080600760009054906101000a900473ffffffffffffffffffffffffffffffffffffffff1673ffffffffffffffffffffffffffffffffffffffff166318160ddd6040518163ffffffff1660e01b8152600401602060405180830381865afa158015611cc0573d6000803e3d6000fd5b505050506040513d601f19601f82011682018060405250810190611ce49190612ef6565b73690e47bad8f972dc1f2dfa1e0ee9eaabc49597b473ffffffffffffffffffffffffffffffffffffffff1631915091509091565b73690e47bad8f972dc1f2dfa1e0ee9eaabc49597b481565b611d386121e1565b600660009054906101000a900473ffffffffffffffffffffffffffffffffffffffff1673ffffffffffffffffffffffffffffffffffffffff163373ffffffffffffffffffffffffffffffffffffffff161415611e63576040518060800160405280858152602001848152602001600760009054906101000a900473ffffffffffffffffffffffffffffffffffffffff1673ffffffffffffffffffffffffffffffffffffffff166370a08231336040518263ffffffff1660e01b8152600401611e009190612c69565b602060405180830381865afa158015611e1d573d6000803e3d6000fd5b505050506040513d601f19601f82011682018060405250810190611e419190612ef6565b8152602001600280811115611e5957611e586126a0565b5b8152509050611ee1565b6000821415611ea85760405180608001604052808581526020018481526020016000815260200160006002811115611e9e57611e9d6126a0565b5b8152509050611ee0565b60405180608001604052808581526020018481526020016000815260200160016002811115611eda57611ed96126a0565b5b81525090505b5b60405180602001604052806000815250805190602001208160200151805190602001201415611f0f57600080fd5b80600360003373ffffffffffffffffffffffffffffffffffffffff1673ffffffffffffffffffffffffffffffffffffffff1681526020019081526020016000206000820151816000019080519060200190611f6b9291906122e0565b506020820151816001019080519060200190611f889291906122e0565b506040820151816002015560608201518160030160006101000a81548160ff02191690836002811115611fbe57611fbd6126a0565b5b021790555090505050505050565b60606005805480602002602001604051908101604052809291908181526020016000905b828210156121d8578382906000526020600020906003020160405180606001604052908160008201805461202390612fa5565b80601f016020809104026020016040519081016040528092919081815260200182805461204f90612fa5565b801561209c5780601f106120715761010080835404028352916020019161209c565b820191906000526020600020905b81548152906001019060200180831161207f57829003601f168201915b505050505081526020016001820180546120b590612fa5565b80601f01602080910402602001604051908101604052809291908181526020018280546120e190612fa5565b801561212e5780601f106121035761010080835404028352916020019161212e565b820191906000526020600020905b81548152906001019060200180831161211157829003601f168201915b5050505050815260200160028201805461214790612fa5565b80601f016020809104026020016040519081016040528092919081815260200182805461217390612fa5565b80156121c05780601f10612195576101008083540402835291602001916121c0565b820191906000526020600020905b8154815290600101906020018083116121a357829003601f168201915b50505050508152505081526020019060010190611ff0565b50505050905090565b604051806080016040528060608152602001606081526020016000815260200160006002811115612215576122146126a0565b5b81525090565b6040518060c0016040528060608152602001606081526020016000815260200160001515815260200160608152602001606081525090565b82805461225f90612fa5565b90600052602060002090601f01602090048101928261228157600085556122cf565b82601f1061229257805485556122cf565b828001600101855582156122cf57600052602060002091601f016020900482015b828111156122ce5782548255916001019190600101906122b3565b5b5090506122dc9190612366565b5090565b8280546122ec90612fa5565b90600052602060002090601f01602090048101928261230e5760008555612355565b82601f1061232757805160ff1916838001178555612355565b82800160010185558215612355579182015b82811115612354578251825591602001919060010190612339565b5b5090506123629190612366565b5090565b5b8082111561237f576000816000905550600101612367565b5090565b6000604051905090565b600080fd5b600080fd5b600073ffffffffffffffffffffffffffffffffffffffff82169050919050565b60006123c282612397565b9050919050565b6123d2816123b7565b81146123dd57600080fd5b50565b6000813590506123ef816123c9565b92915050565b6000819050919050565b612408816123f5565b811461241357600080fd5b50565b600081359050612425816123ff565b92915050565b600080604083850312156124425761244161238d565b5b6000612450858286016123e0565b925050602061246185828601612416565b9150509250929050565b600080fd5b600080fd5b6000601f19601f8301169050919050565b7f4e487b7100000000000000000000000000000000000000000000000000000000600052604160045260246000fd5b6124be82612475565b810181811067ffffffffffffffff821117156124dd576124dc612486565b5b80604052505050565b60006124f0612383565b90506124fc82826124b5565b919050565b600067ffffffffffffffff82111561251c5761251b612486565b5b61252582612475565b9050602081019050919050565b82818337600083830152505050565b600061255461254f84612501565b6124e6565b9050828152602081018484840111156125705761256f612470565b5b61257b848285612532565b509392505050565b600082601f8301126125985761259761246b565b5b81356125a8848260208601612541565b91505092915050565b6000602082840312156125c7576125c661238d565b5b600082013567ffffffffffffffff8111156125e5576125e4612392565b5b6125f184828501612583565b91505092915050565b612603816123b7565b82525050565b600081519050919050565b600082825260208201905092915050565b60005b83811015612643578082015181840152602081019050612628565b83811115612652576000848401525b50505050565b600061266382612609565b61266d8185612614565b935061267d818560208601612625565b61268681612475565b840191505092915050565b61269a816123f5565b82525050565b7f4e487b7100000000000000000000000000000000000000000000000000000000600052602160045260246000fd5b600381106126e0576126df6126a0565b5b50565b60008190506126f1826126cf565b919050565b6000612701826126e3565b9050919050565b612711816126f6565b82525050565b600060808301600083015184820360008601526127348282612658565b9150506020830151848203602086015261274e8282612658565b91505060408301516127636040860182612691565b5060608301516127766060860182612708565b508091505092915050565b600060408201905061279660008301856125fa565b81810360208301526127a88184612717565b90509392505050565b6127ba816123f5565b82525050565b60006020820190506127d560008301846127b1565b92915050565b60008115159050919050565b6127f0816127db565b82525050565b600060208201905061280b60008301846127e7565b92915050565b61281a816127db565b82525050565b600060c083016000830151848203600086015261283d8282612658565b915050602083015184820360208601526128578282612658565b915050604083015161286c6040860182612691565b50606083015161287f6060860182612811565b50608083015184820360808601526128978282612658565b91505060a083015184820360a08601526128b18282612658565b9150508091505092915050565b600060208201905081810360008301526128d88184612820565b905092915050565b6000602082840312156128f6576128f561238d565b5b600061290484828501612416565b91505092915050565b600081519050919050565b600082825260208201905092915050565b6000819050602082019050919050565b600060c08301600083015184820360008601526129568282612658565b915050602083015184820360208601526129708282612658565b91505060408301516129856040860182612691565b5060608301516129986060860182612811565b50608083015184820360808601526129b08282612658565b91505060a083015184820360a08601526129ca8282612658565b9150508091505092915050565b60006129e38383612939565b905092915050565b6000602082019050919050565b6000612a038261290d565b612a0d8185612918565b935083602082028501612a1f85612929565b8060005b85811015612a5b5784840389528151612a3c85826129d7565b9450612a47836129eb565b925060208a01995050600181019050612a23565b50829750879550505050505092915050565b60006020820190508181036000830152612a8781846129f8565b905092915050565b60006020820190508181036000830152612aa98184612717565b905092915050565b600080600060608486031215612aca57612ac961238d565b5b600084013567ffffffffffffffff811115612ae857612ae7612392565b5b612af486828701612583565b935050602084013567ffffffffffffffff811115612b1557612b14612392565b5b612b2186828701612583565b925050604084013567ffffffffffffffff811115612b4257612b41612392565b5b612b4e86828701612583565b9150509250925092565b600060208284031215612b6e57612b6d61238d565b5b6000612b7c848285016123e0565b91505092915050565b60008060008060808587031215612b9f57612b9e61238d565b5b600085013567ffffffffffffffff811115612bbd57612bbc612392565b5b612bc987828801612583565b945050602085013567ffffffffffffffff811115612bea57612be9612392565b5b612bf687828801612583565b9350506040612c0787828801612416565b925050606085013567ffffffffffffffff811115612c2857612c27612392565b5b612c3487828801612583565b91505092959194509250565b6000604082019050612c5560008301856127b1565b612c6260208301846127b1565b9392505050565b6000602082019050612c7e60008301846125fa565b92915050565b600080600060608486031215612c9d57612c9c61238d565b5b600084013567ffffffffffffffff811115612cbb57612cba612392565b5b612cc786828701612583565b935050602084013567ffffffffffffffff811115612ce857612ce7612392565b5b612cf486828701612583565b9250506040612d0586828701612416565b9150509250925092565b600081519050919050565b600082825260208201905092915050565b6000819050602082019050919050565b60006060830160008301518482036000860152612d588282612658565b91505060208301518482036020860152612d728282612658565b91505060408301518482036040860152612d8c8282612658565b9150508091505092915050565b6000612da58383612d3b565b905092915050565b6000602082019050919050565b6000612dc582612d0f565b612dcf8185612d1a565b935083602082028501612de185612d2b565b8060005b85811015612e1d5784840389528151612dfe8582612d99565b9450612e0983612dad565b925060208a01995050600181019050612de5565b50829750879550505050505092915050565b60006020820190508181036000830152612e498184612dba565b905092915050565b6000606082019050612e6660008301866125fa565b612e7360208301856125fa565b612e8060408301846127b1565b949350505050565b612e91816127db565b8114612e9c57600080fd5b50565b600081519050612eae81612e88565b92915050565b600060208284031215612eca57612ec961238d565b5b6000612ed884828501612e9f565b91505092915050565b600081519050612ef0816123ff565b92915050565b600060208284031215612f0c57612f0b61238d565b5b6000612f1a84828501612ee1565b91505092915050565b600081905092915050565b6000612f3982612609565b612f438185612f23565b9350612f53818560208601612625565b80840191505092915050565b6000612f6b8284612f2e565b915081905092915050565b7f4e487b7100000000000000000000000000000000000000000000000000000000600052602260045260246000fd5b60006002820490506001821680612fbd57607f821691505b60208210811415612fd157612fd0612f76565b5b50919050565b7f4e487b7100000000000000000000000000000000000000000000000000000000600052603260045260246000fd5b600081905092915050565b60008190508160005260206000209050919050565b6000815461303381612fa5565b61303d8186613006565b9450600182166000811461305857600181146130695761309c565b60ff1983168652818601935061309c565b61307285613011565b60005b8381101561309457815481890152600182019150602081019050613075565b838801955050505b50505092915050565b60006130b18284613026565b915081905092915050565b7f4e487b7100000000000000000000000000000000000000000000000000000000600052601160045260246000fd5b60006130f6826123f5565b91507fffffffffffffffffffffffffffffffffffffffffffffffffffffffffffffffff821415613129576131286130bc565b5b600182019050919050565b6000819050919050565b600061315961315461314f84612397565b613134565b612397565b9050919050565b600061316b8261313e565b9050919050565b600061317d82613160565b9050919050565b61318d81613172565b82525050565b60006080820190506131a860008301876125fa565b6131b56020830186613184565b6131c260408301856127b1565b6131cf60608301846125fa565b95945050505050565b60006020820190506131ed6000830184613184565b92915050565b600060408201905061320860008301856125fa565b61321560208301846125fa565b939250505056fea2646970667358221220ef8d83dfc294450ba25c4049042466a2ca22ec8c8c8e8430079c82643ba102e964736f6c634300080c0033",
  "immutableReferences": {},
  "source": "// SPDX-License-Identifier: MIT\n\npragma solidity ^0.8.12;\n\ninterface FrontCoinInterface {\n    function totalSupply() external view returns (uint256);\n    function transfer(address sender, address receiver, uint numTokens) external returns (bool);\n    function transferFrom(address owner, address buyer, uint numTokens, address dealer) external returns (bool);\n    function balanceOf(address tokenOwner) external view returns (uint);\n    function approve(address sender, address dealer, uint numTokens) external returns (bool);\n    function allowance(address owner, address dealer) external view returns (uint);\n}\n\ncontract FrontChain {\n\n    // Struct component used to store the frontend component basic information\n    // It doesn't store the actual codes. Instead it stores a unique UUID which identifies\n    // it uniquely and can be used to fetch the component's codes through a central server.\n    struct Component {\n        string name;\n        string componentId; // UUID for components\n        uint price;\n        bool isSold;\n        string ownerUUID;\n        string description;\n    }\n    // MAPPING: componentId => owner\n    mapping(string => address) componentOwner;\n    // MAPPING: componentId => Component : To get the component details\n    mapping(string => Component) componentDetails;\n    // Stores all components\n    Component[] components;\n\n    // Used to store information regarding the user. Every user is identified uniquely by \n    // a userId which is a unique UUID generated at the time of Register from the DAPP UI.\n    struct User{\n        string name;\n        string userId;\n        uint balance;\n        UserType userType;\n    }\n    // MAPPING: address => User\n    mapping(address => User) userAddress;\n    // ENUM: user type | SELLER => 0; BUYER => 1\n    enum UserType{ SELLER, BUYER, CEO }\n\n    // Stores the information about any feature request for any FE component that is needed by \n    // the user\n    struct Request{\n        string description;\n        string reqId; // UUID for request | React\n        string timestamp;\n    }\n    // MAPPING: reqId => Request\n    mapping(string => Request) requestMap;\n    // Stores all requests\n    Request[] requests;\n\n    // stores the address of the contract deployer\n    address ceo;\n\n    // stored to compare null string values with\n    string constant NULL_STRING = '';\n\n    // Transfer event for cryptocurrency transfer between two accounts.\n    event Transfer(address indexed from, address indexed to, uint amount);\n\n    address public constant FC_ADDRESS = 0x690e47bAD8F972Dc1f2dFa1E0Ee9EAAbc49597B4;\n    \n    FrontCoinInterface fcInterface = FrontCoinInterface(FC_ADDRESS);\n\n    constructor() {\n        ceo = msg.sender;\n    }\n\n    // Generic modifier based on enum UserType\n    modifier onlyUserType(UserType userType){\n        require(userAddress[msg.sender].userType == userType);\n        _;\n    }\n\n    modifier onlyBuyerAndCeo{\n        require(userAddress[msg.sender].userType == UserType.BUYER || msg.sender == ceo);\n        _;\n    }\n\n    modifier onlyCeo{\n        require(msg.sender == ceo);\n        _;\n    }\n\n    function approveDealer(uint numTokens) public returns (bool) {\n        fcInterface.approve(msg.sender, address(this), numTokens);\n        return true;\n    }\n\n    function getDealerAllowance(address buyer) public view returns (uint) {\n        return fcInterface.allowance(buyer, address(this));\n    }\n\n    function getFCStartingBalance() view public returns (uint256, uint256) {\n        return (fcInterface.totalSupply(), address(FC_ADDRESS).balance);\n    }\n\n    function getFCUserBalance() view public returns (uint256) {\n        return fcInterface.balanceOf(msg.sender);\n    }\n\n    function isUserCeo() view public returns (bool){\n        return msg.sender == ceo;\n    }\n\n    function airDrop(address toAddress, uint amount) onlyCeo public payable {\n        fcInterface.transfer(ceo, toAddress, amount);\n        userAddress[ceo].balance = fcInterface.balanceOf(ceo);\n        userAddress[toAddress].balance = fcInterface.balanceOf(toAddress);\n    }\n\n    // [WORKING] REGISTER USER\n    // Registers a new user based on his user type and then maps its address with the struct User.\n    function registerUser(string memory name, string memory userId, uint userType) payable public {\n        // create new user\n        User memory newUser;\n\n        if(msg.sender == ceo){\n            // ceo registering\n            newUser = User(name, userId, fcInterface.balanceOf(msg.sender), UserType.CEO);\n        }else{\n            // other user registering\n            // fcInterface.transferFrom(ceo, msg.sender, 100);\n            \n            // update balance of ceo after registration\n            // userAddress[ceo].balance = fcInterface.balanceOf(ceo);\n\n            if(userType == 0)\n                newUser = User(name, userId, 0, UserType.SELLER);\n            else\n                newUser = User(name, userId, 0, UserType.BUYER);\n        }\n\n        // userId should not be null | Comparing userId string with Null String\n        require(keccak256(bytes(newUser.userId)) != keccak256(bytes(NULL_STRING)));\n        // map user address to its details\n        userAddress[msg.sender] = newUser;\n    }\n\n    // [WORKING] PUBLISH COMPONENT - Modifier: onlySeller\n    // This function accepts the component's name, its uuid, price and a description and none of the codes\n    // and stores this information onto the blockchain.\n    function publishComponent(string memory name, string memory componentId, uint price, string memory description) onlyUserType(UserType.SELLER) payable public{\n        Component memory newComponent = Component(name, componentId, price, false, userAddress[msg.sender].userId, description);\n        // push new component to all component list\n        components.push(newComponent);\n        // map owner of the new component\n        componentOwner[componentId] = msg.sender;\n        // map componentId to its details\n        componentDetails[componentId] = newComponent;\n    }\n\n    // [WORKING] GET ALL COMPONENTS\n    function getAllComponents() view public returns(Component[] memory) {\n        return components;\n    }\n\n    // [WORKING] GET COMPONENT OWNER\n    function getOwnerDetails(string memory componentId) view public returns(address, User memory) {\n        return (componentOwner[componentId], userAddress[componentOwner[componentId]]);\n    }\n\n    // GET ANY USER from Registered Users\n    function getUser() view public returns (User memory){\n        return userAddress[msg.sender];\n    }\n\n    // [WORKING] GET COMPONENT DETAILS\n    function getComponentDetails(string memory componentId) view public returns (Component memory) {\n        return componentDetails[componentId];\n    }\n\n    // ADD REQUEST\n    function addRequest(string memory description, string memory reqId, string memory timestamp) public {\n        Request memory temp = Request(description, reqId, timestamp);\n        // Push new request to all request list\n        requests.push(temp);\n    }\n\n    // GET ALL REQUESTS\n    function getAllRequests() view public returns(Request[] memory){\n        return requests;\n    }\n\n    // [WORKING] PURCHASE COMPONENT - Modifier: Owner can not purchase himself/herself. - onlyBuyer\n    function purchaseComponent(string memory componentId) payable onlyUserType(UserType.BUYER) public {\n\n        // GET OWNER ADDRESS\n        address payable ownerAddress = payable(componentOwner[componentId]);\n\n        // sell the component\n        componentDetails[componentId].isSold = true;\n        componentDetails[componentId].ownerUUID = userAddress[msg.sender].userId;\n\n        // change components list\n        for(uint i=0; i<components.length; i++){\n            if(keccak256(bytes(components[i].componentId)) == keccak256(bytes(componentId))){\n                // found\n                components[i].isSold = true;\n                components[i].ownerUUID = userAddress[msg.sender].userId;\n                break;\n            }\n        }\n\n        // transfer component mapping to buyer\n        componentOwner[componentId] = msg.sender;\n\n        // Pay Owner\n        fcInterface.transferFrom(msg.sender, ownerAddress, componentDetails[componentId].price, address(this));\n\n        // Change balances\n        userAddress[msg.sender].balance = fcInterface.balanceOf(msg.sender); // BUYER\n        userAddress[ownerAddress].balance = fcInterface.balanceOf(ownerAddress); // SELLER\n    }\n}\n",
  "sourcePath": "/Users/rahulsharma/Desktop/BlockChain-Sandbox/FrontChain/contracts/FrontChain.sol",
  "compiler": {
    "name": "solc",
    "version": "0.8.12+commit.f00d7308.Emscripten.clang"
  },
  "schemaVersion": "3.4.6",
  "updatedAt": "2022-05-05T06:45:08.957Z",
  "networkType": "ethereum",
  "devdoc": {
    "kind": "dev",
    "methods": {},
    "version": 1
  },
  "userdoc": {
    "kind": "user",
    "methods": {},
    "version": 1
  }
}