{
  "contractName": "FrontChain",
  "abi": [
    {
      "inputs": [],
      "stateMutability": "nonpayable",
      "type": "constructor"
    },
    {
      "anonymous": false,
      "inputs": [
        {
          "indexed": true,
          "internalType": "address",
          "name": "from",
          "type": "address"
        },
        {
          "indexed": true,
          "internalType": "address",
          "name": "to",
          "type": "address"
        },
        {
          "indexed": false,
          "internalType": "uint256",
          "name": "amount",
          "type": "uint256"
        }
      ],
      "name": "Transfer",
      "type": "event"
    },
    {
      "inputs": [
        {
          "internalType": "string",
          "name": "name",
          "type": "string"
        },
        {
          "internalType": "string",
          "name": "userId",
          "type": "string"
        },
        {
          "internalType": "uint256",
          "name": "userType",
          "type": "uint256"
        }
      ],
      "name": "registerUser",
      "outputs": [],
      "stateMutability": "payable",
      "type": "function",
      "payable": true
    },
    {
      "inputs": [
        {
          "internalType": "string",
          "name": "name",
          "type": "string"
        },
        {
          "internalType": "string",
          "name": "componentId",
          "type": "string"
        },
        {
          "internalType": "uint256",
          "name": "price",
          "type": "uint256"
        }
      ],
      "name": "publishComponent",
      "outputs": [],
      "stateMutability": "payable",
      "type": "function",
      "payable": true
    },
    {
      "inputs": [],
      "name": "getAllComponents",
      "outputs": [
        {
          "components": [
            {
              "internalType": "string",
              "name": "name",
              "type": "string"
            },
            {
              "internalType": "string",
              "name": "componentId",
              "type": "string"
            },
            {
              "internalType": "uint256",
              "name": "price",
              "type": "uint256"
            },
            {
              "internalType": "bool",
              "name": "isSold",
              "type": "bool"
            },
            {
              "internalType": "string",
              "name": "ownerUUID",
              "type": "string"
            }
          ],
          "internalType": "struct FrontChain.Component[]",
          "name": "",
          "type": "tuple[]"
        }
      ],
      "stateMutability": "view",
      "type": "function",
      "constant": true
    },
    {
      "inputs": [
        {
          "internalType": "string",
          "name": "componentId",
          "type": "string"
        }
      ],
      "name": "getOwnerDetails",
      "outputs": [
        {
          "internalType": "address",
          "name": "",
          "type": "address"
        },
        {
          "components": [
            {
              "internalType": "string",
              "name": "name",
              "type": "string"
            },
            {
              "internalType": "string",
              "name": "userId",
              "type": "string"
            },
            {
              "internalType": "uint256",
              "name": "balance",
              "type": "uint256"
            },
            {
              "internalType": "enum FrontChain.UserType",
              "name": "userType",
              "type": "uint8"
            }
          ],
          "internalType": "struct FrontChain.User",
          "name": "",
          "type": "tuple"
        }
      ],
      "stateMutability": "view",
      "type": "function",
      "constant": true
    },
    {
      "inputs": [],
      "name": "getUser",
      "outputs": [
        {
          "components": [
            {
              "internalType": "string",
              "name": "name",
              "type": "string"
            },
            {
              "internalType": "string",
              "name": "userId",
              "type": "string"
            },
            {
              "internalType": "uint256",
              "name": "balance",
              "type": "uint256"
            },
            {
              "internalType": "enum FrontChain.UserType",
              "name": "userType",
              "type": "uint8"
            }
          ],
          "internalType": "struct FrontChain.User",
          "name": "",
          "type": "tuple"
        }
      ],
      "stateMutability": "view",
      "type": "function",
      "constant": true
    },
    {
      "inputs": [
        {
          "internalType": "string",
          "name": "componentId",
          "type": "string"
        }
      ],
      "name": "getComponentDetails",
      "outputs": [
        {
          "components": [
            {
              "internalType": "string",
              "name": "name",
              "type": "string"
            },
            {
              "internalType": "string",
              "name": "componentId",
              "type": "string"
            },
            {
              "internalType": "uint256",
              "name": "price",
              "type": "uint256"
            },
            {
              "internalType": "bool",
              "name": "isSold",
              "type": "bool"
            },
            {
              "internalType": "string",
              "name": "ownerUUID",
              "type": "string"
            }
          ],
          "internalType": "struct FrontChain.Component",
          "name": "",
          "type": "tuple"
        }
      ],
      "stateMutability": "view",
      "type": "function",
      "constant": true
    },
    {
      "inputs": [
        {
          "internalType": "string",
          "name": "description",
          "type": "string"
        },
        {
          "internalType": "string",
          "name": "reqId",
          "type": "string"
        },
        {
          "internalType": "string",
          "name": "timestamp",
          "type": "string"
        }
      ],
      "name": "addRequest",
      "outputs": [],
      "stateMutability": "nonpayable",
      "type": "function"
    },
    {
      "inputs": [],
      "name": "getAllRequests",
      "outputs": [
        {
          "components": [
            {
              "internalType": "string",
              "name": "description",
              "type": "string"
            },
            {
              "internalType": "string",
              "name": "reqId",
              "type": "string"
            },
            {
              "internalType": "string",
              "name": "timestamp",
              "type": "string"
            }
          ],
          "internalType": "struct FrontChain.Request[]",
          "name": "",
          "type": "tuple[]"
        }
      ],
      "stateMutability": "view",
      "type": "function",
      "constant": true
    },
    {
      "inputs": [
        {
          "internalType": "string",
          "name": "componentId",
          "type": "string"
        }
      ],
      "name": "purchaseComponent",
      "outputs": [],
      "stateMutability": "payable",
      "type": "function",
      "payable": true
    }
  ],
  "bytecode": "0x608060405234801561001057600080fd5b5033600660006101000a81548173ffffffffffffffffffffffffffffffffffffffff021916908373ffffffffffffffffffffffffffffffffffffffff160217905550612349806100616000396000f3fe6080604052600436106100865760003560e01c8063832880e711610059578063832880e71461014d578063ab08e3e414610178578063b27d118414610194578063f209e74f146101bd578063fb1a002a146101d957610086565b806308fcf6e51461008b57806349a0b0b1146100c957806366fadf0b1461010657806373c480a114610131575b600080fd5b34801561009757600080fd5b506100b260048036038101906100ad9190611927565b610204565b6040516100c0929190611b33565b60405180910390f35b3480156100d557600080fd5b506100f060048036038101906100eb9190611927565b610449565b6040516100fd9190611c02565b60405180910390f35b34801561011257600080fd5b5061011b61065c565b6040516101289190611d6a565b60405180910390f35b61014b60048036038101906101469190611927565b610896565b005b34801561015957600080fd5b50610162610d17565b60405161016f9190611d8c565b60405180910390f35b610192600480360381019061018d9190611dda565b610ed7565b005b3480156101a057600080fd5b506101bb60048036038101906101b69190611e65565b611206565b005b6101d760048036038101906101d29190611dda565b6112b0565b005b3480156101e557600080fd5b506101ee61141d565b6040516101fb919061202c565b60405180910390f35b600061020e611632565b60008360405161021e919061208a565b908152602001604051809103902060009054906101000a900473ffffffffffffffffffffffffffffffffffffffff16600360008086604051610260919061208a565b908152602001604051809103902060009054906101000a900473ffffffffffffffffffffffffffffffffffffffff1673ffffffffffffffffffffffffffffffffffffffff1673ffffffffffffffffffffffffffffffffffffffff168152602001908152602001600020806040518060800160405290816000820180546102e5906120d0565b80601f0160208091040260200160405190810160405280929190818152602001828054610311906120d0565b801561035e5780601f106103335761010080835404028352916020019161035e565b820191906000526020600020905b81548152906001019060200180831161034157829003601f168201915b50505050508152602001600182018054610377906120d0565b80601f01602080910402602001604051908101604052809291908181526020018280546103a3906120d0565b80156103f05780601f106103c5576101008083540402835291602001916103f0565b820191906000526020600020905b8154815290600101906020018083116103d357829003601f168201915b50505050508152602001600282015481526020016003820160009054906101000a900460ff16600181111561042857610427611a52565b5b600181111561043a57610439611a52565b5b81525050905091509150915091565b61045161166c565b600182604051610461919061208a565b90815260200160405180910390206040518060a001604052908160008201805461048a906120d0565b80601f01602080910402602001604051908101604052809291908181526020018280546104b6906120d0565b80156105035780601f106104d857610100808354040283529160200191610503565b820191906000526020600020905b8154815290600101906020018083116104e657829003601f168201915b5050505050815260200160018201805461051c906120d0565b80601f0160208091040260200160405190810160405280929190818152602001828054610548906120d0565b80156105955780601f1061056a57610100808354040283529160200191610595565b820191906000526020600020905b81548152906001019060200180831161057857829003601f168201915b50505050508152602001600282015481526020016003820160009054906101000a900460ff161515151581526020016004820180546105d3906120d0565b80601f01602080910402602001604051908101604052809291908181526020018280546105ff906120d0565b801561064c5780601f106106215761010080835404028352916020019161064c565b820191906000526020600020905b81548152906001019060200180831161062f57829003601f168201915b5050505050815250509050919050565b60606002805480602002602001604051908101604052809291908181526020016000905b8282101561088d57838290600052602060002090600502016040518060a00160405290816000820180546106b3906120d0565b80601f01602080910402602001604051908101604052809291908181526020018280546106df906120d0565b801561072c5780601f106107015761010080835404028352916020019161072c565b820191906000526020600020905b81548152906001019060200180831161070f57829003601f168201915b50505050508152602001600182018054610745906120d0565b80601f0160208091040260200160405190810160405280929190818152602001828054610771906120d0565b80156107be5780601f10610793576101008083540402835291602001916107be565b820191906000526020600020905b8154815290600101906020018083116107a157829003601f168201915b50505050508152602001600282015481526020016003820160009054906101000a900460ff161515151581526020016004820180546107fc906120d0565b80601f0160208091040260200160405190810160405280929190818152602001828054610828906120d0565b80156108755780601f1061084a57610100808354040283529160200191610875565b820191906000526020600020905b81548152906001019060200180831161085857829003601f168201915b50505050508152505081526020019060010190610680565b50505050905090565b60018060018111156108ab576108aa611a52565b5b600360003373ffffffffffffffffffffffffffffffffffffffff1673ffffffffffffffffffffffffffffffffffffffff16815260200190815260200160002060030160009054906101000a900460ff16600181111561090d5761090c611a52565b5b1461091757600080fd5b60008083604051610928919061208a565b908152602001604051809103902060009054906101000a900473ffffffffffffffffffffffffffffffffffffffff1690506001808460405161096a919061208a565b908152602001604051809103902060030160006101000a81548160ff021916908315150217905550600360003373ffffffffffffffffffffffffffffffffffffffff1673ffffffffffffffffffffffffffffffffffffffff1681526020019081526020016000206001016001846040516109e4919061208a565b9081526020016040518091039020600401908054610a01906120d0565b610a0c92919061169d565b5060005b600280549050811015610b3a57838051906020012060028281548110610a3957610a38612102565b5b9060005260206000209060050201600101604051610a5791906121d0565b60405180910390201415610b2757600160028281548110610a7b57610a7a612102565b5b906000526020600020906005020160030160006101000a81548160ff021916908315150217905550600360003373ffffffffffffffffffffffffffffffffffffffff1673ffffffffffffffffffffffffffffffffffffffff16815260200190815260200160002060010160028281548110610af957610af8612102565b5b9060005260206000209060050201600401908054610b16906120d0565b610b2192919061169d565b50610b3a565b8080610b3290612216565b915050610a10565b50600183604051610b4b919061208a565b908152602001604051809103902060020154600360008373ffffffffffffffffffffffffffffffffffffffff1673ffffffffffffffffffffffffffffffffffffffff1681526020019081526020016000206002016000828254610bae919061225f565b92505081905550600183604051610bc5919061208a565b908152602001604051809103902060020154600360003373ffffffffffffffffffffffffffffffffffffffff1673ffffffffffffffffffffffffffffffffffffffff1681526020019081526020016000206002016000828254610c2891906122b5565b9250508190555033600084604051610c40919061208a565b908152602001604051809103902060006101000a81548173ffffffffffffffffffffffffffffffffffffffff021916908373ffffffffffffffffffffffffffffffffffffffff1602179055508073ffffffffffffffffffffffffffffffffffffffff163373ffffffffffffffffffffffffffffffffffffffff167fddf252ad1be2c89b69c2b068fc378daa952ba7f163c4a11628f55a4df523b3ef600186604051610ceb919061208a565b908152602001604051809103902060020154604051610d0a91906122f8565b60405180910390a3505050565b610d1f611632565b600360003373ffffffffffffffffffffffffffffffffffffffff1673ffffffffffffffffffffffffffffffffffffffff168152602001908152602001600020604051806080016040529081600082018054610d79906120d0565b80601f0160208091040260200160405190810160405280929190818152602001828054610da5906120d0565b8015610df25780601f10610dc757610100808354040283529160200191610df2565b820191906000526020600020905b815481529060010190602001808311610dd557829003601f168201915b50505050508152602001600182018054610e0b906120d0565b80601f0160208091040260200160405190810160405280929190818152602001828054610e37906120d0565b8015610e845780601f10610e5957610100808354040283529160200191610e84565b820191906000526020600020905b815481529060010190602001808311610e6757829003601f168201915b50505050508152602001600282015481526020016003820160009054906101000a900460ff166001811115610ebc57610ebb611a52565b5b6001811115610ece57610ecd611a52565b5b81525050905090565b6000806001811115610eec57610eeb611a52565b5b600360003373ffffffffffffffffffffffffffffffffffffffff1673ffffffffffffffffffffffffffffffffffffffff16815260200190815260200160002060030160009054906101000a900460ff166001811115610f4e57610f4d611a52565b5b14610f5857600080fd5b60006040518060a00160405280868152602001858152602001848152602001600015158152602001600360003373ffffffffffffffffffffffffffffffffffffffff1673ffffffffffffffffffffffffffffffffffffffff1681526020019081526020016000206001018054610fcd906120d0565b80601f0160208091040260200160405190810160405280929190818152602001828054610ff9906120d0565b80156110465780601f1061101b57610100808354040283529160200191611046565b820191906000526020600020905b81548152906001019060200180831161102957829003601f168201915b505050505081525090506002819080600181540180825580915050600190039060005260206000209060050201600090919091909150600082015181600001908051906020019061109892919061172a565b5060208201518160010190805190602001906110b592919061172a565b506040820151816002015560608201518160030160006101000a81548160ff02191690831515021790555060808201518160040190805190602001906110fc92919061172a565b50505033600085604051611110919061208a565b908152602001604051809103902060006101000a81548173ffffffffffffffffffffffffffffffffffffffff021916908373ffffffffffffffffffffffffffffffffffffffff1602179055508060018560405161116d919061208a565b9081526020016040518091039020600082015181600001908051906020019061119792919061172a565b5060208201518160010190805190602001906111b492919061172a565b506040820151816002015560608201518160030160006101000a81548160ff02191690831515021790555060808201518160040190805190602001906111fb92919061172a565b509050505050505050565b600060405180606001604052808581526020018481526020018381525090506005819080600181540180825580915050600190039060005260206000209060030201600090919091909150600082015181600001908051906020019061126d92919061172a565b50602082015181600101908051906020019061128a92919061172a565b5060408201518160020190805190602001906112a792919061172a565b50505050505050565b6112b8611632565b60008214156112fc576040518060800160405280858152602001848152602001348152602001600060018111156112f2576112f1611a52565b5b8152509050611332565b604051806080016040528085815260200184815260200134815260200160018081111561132c5761132b611a52565b5b81525090505b6040518060200160405280600081525080519060200120816020015180519060200120141561136057600080fd5b80600360003373ffffffffffffffffffffffffffffffffffffffff1673ffffffffffffffffffffffffffffffffffffffff16815260200190815260200160002060008201518160000190805190602001906113bc92919061172a565b5060208201518160010190805190602001906113d992919061172a565b506040820151816002015560608201518160030160006101000a81548160ff0219169083600181111561140f5761140e611a52565b5b021790555090505050505050565b60606005805480602002602001604051908101604052809291908181526020016000905b828210156116295783829060005260206000209060030201604051806060016040529081600082018054611474906120d0565b80601f01602080910402602001604051908101604052809291908181526020018280546114a0906120d0565b80156114ed5780601f106114c2576101008083540402835291602001916114ed565b820191906000526020600020905b8154815290600101906020018083116114d057829003601f168201915b50505050508152602001600182018054611506906120d0565b80601f0160208091040260200160405190810160405280929190818152602001828054611532906120d0565b801561157f5780601f106115545761010080835404028352916020019161157f565b820191906000526020600020905b81548152906001019060200180831161156257829003601f168201915b50505050508152602001600282018054611598906120d0565b80601f01602080910402602001604051908101604052809291908181526020018280546115c4906120d0565b80156116115780601f106115e657610100808354040283529160200191611611565b820191906000526020600020905b8154815290600101906020018083116115f457829003601f168201915b50505050508152505081526020019060010190611441565b50505050905090565b60405180608001604052806060815260200160608152602001600081526020016000600181111561166657611665611a52565b5b81525090565b6040518060a00160405280606081526020016060815260200160008152602001600015158152602001606081525090565b8280546116a9906120d0565b90600052602060002090601f0160209004810192826116cb5760008555611719565b82601f106116dc5780548555611719565b8280016001018555821561171957600052602060002091601f016020900482015b828111156117185782548255916001019190600101906116fd565b5b50905061172691906117b0565b5090565b828054611736906120d0565b90600052602060002090601f016020900481019282611758576000855561179f565b82601f1061177157805160ff191683800117855561179f565b8280016001018555821561179f579182015b8281111561179e578251825591602001919060010190611783565b5b5090506117ac91906117b0565b5090565b5b808211156117c95760008160009055506001016117b1565b5090565b6000604051905090565b600080fd5b600080fd5b600080fd5b600080fd5b6000601f19601f8301169050919050565b7f4e487b7100000000000000000000000000000000000000000000000000000000600052604160045260246000fd5b611834826117eb565b810181811067ffffffffffffffff82111715611853576118526117fc565b5b80604052505050565b60006118666117cd565b9050611872828261182b565b919050565b600067ffffffffffffffff821115611892576118916117fc565b5b61189b826117eb565b9050602081019050919050565b82818337600083830152505050565b60006118ca6118c584611877565b61185c565b9050828152602081018484840111156118e6576118e56117e6565b5b6118f18482856118a8565b509392505050565b600082601f83011261190e5761190d6117e1565b5b813561191e8482602086016118b7565b91505092915050565b60006020828403121561193d5761193c6117d7565b5b600082013567ffffffffffffffff81111561195b5761195a6117dc565b5b611967848285016118f9565b91505092915050565b600073ffffffffffffffffffffffffffffffffffffffff82169050919050565b600061199b82611970565b9050919050565b6119ab81611990565b82525050565b600081519050919050565b600082825260208201905092915050565b60005b838110156119eb5780820151818401526020810190506119d0565b838111156119fa576000848401525b50505050565b6000611a0b826119b1565b611a1581856119bc565b9350611a258185602086016119cd565b611a2e816117eb565b840191505092915050565b6000819050919050565b611a4c81611a39565b82525050565b7f4e487b7100000000000000000000000000000000000000000000000000000000600052602160045260246000fd5b60028110611a9257611a91611a52565b5b50565b6000819050611aa382611a81565b919050565b6000611ab382611a95565b9050919050565b611ac381611aa8565b82525050565b60006080830160008301518482036000860152611ae68282611a00565b91505060208301518482036020860152611b008282611a00565b9150506040830151611b156040860182611a43565b506060830151611b286060860182611aba565b508091505092915050565b6000604082019050611b4860008301856119a2565b8181036020830152611b5a8184611ac9565b90509392505050565b60008115159050919050565b611b7881611b63565b82525050565b600060a0830160008301518482036000860152611b9b8282611a00565b91505060208301518482036020860152611bb58282611a00565b9150506040830151611bca6040860182611a43565b506060830151611bdd6060860182611b6f565b5060808301518482036080860152611bf58282611a00565b9150508091505092915050565b60006020820190508181036000830152611c1c8184611b7e565b905092915050565b600081519050919050565b600082825260208201905092915050565b6000819050602082019050919050565b600060a0830160008301518482036000860152611c6d8282611a00565b91505060208301518482036020860152611c878282611a00565b9150506040830151611c9c6040860182611a43565b506060830151611caf6060860182611b6f565b5060808301518482036080860152611cc78282611a00565b9150508091505092915050565b6000611ce08383611c50565b905092915050565b6000602082019050919050565b6000611d0082611c24565b611d0a8185611c2f565b935083602082028501611d1c85611c40565b8060005b85811015611d585784840389528151611d398582611cd4565b9450611d4483611ce8565b925060208a01995050600181019050611d20565b50829750879550505050505092915050565b60006020820190508181036000830152611d848184611cf5565b905092915050565b60006020820190508181036000830152611da68184611ac9565b905092915050565b611db781611a39565b8114611dc257600080fd5b50565b600081359050611dd481611dae565b92915050565b600080600060608486031215611df357611df26117d7565b5b600084013567ffffffffffffffff811115611e1157611e106117dc565b5b611e1d868287016118f9565b935050602084013567ffffffffffffffff811115611e3e57611e3d6117dc565b5b611e4a868287016118f9565b9250506040611e5b86828701611dc5565b9150509250925092565b600080600060608486031215611e7e57611e7d6117d7565b5b600084013567ffffffffffffffff811115611e9c57611e9b6117dc565b5b611ea8868287016118f9565b935050602084013567ffffffffffffffff811115611ec957611ec86117dc565b5b611ed5868287016118f9565b925050604084013567ffffffffffffffff811115611ef657611ef56117dc565b5b611f02868287016118f9565b9150509250925092565b600081519050919050565b600082825260208201905092915050565b6000819050602082019050919050565b60006060830160008301518482036000860152611f558282611a00565b91505060208301518482036020860152611f6f8282611a00565b91505060408301518482036040860152611f898282611a00565b9150508091505092915050565b6000611fa28383611f38565b905092915050565b6000602082019050919050565b6000611fc282611f0c565b611fcc8185611f17565b935083602082028501611fde85611f28565b8060005b8581101561201a5784840389528151611ffb8582611f96565b945061200683611faa565b925060208a01995050600181019050611fe2565b50829750879550505050505092915050565b600060208201905081810360008301526120468184611fb7565b905092915050565b600081905092915050565b6000612064826119b1565b61206e818561204e565b935061207e8185602086016119cd565b80840191505092915050565b60006120968284612059565b915081905092915050565b7f4e487b7100000000000000000000000000000000000000000000000000000000600052602260045260246000fd5b600060028204905060018216806120e857607f821691505b602082108114156120fc576120fb6120a1565b5b50919050565b7f4e487b7100000000000000000000000000000000000000000000000000000000600052603260045260246000fd5b600081905092915050565b60008190508160005260206000209050919050565b6000815461215e816120d0565b6121688186612131565b945060018216600081146121835760018114612194576121c7565b60ff198316865281860193506121c7565b61219d8561213c565b60005b838110156121bf578154818901526001820191506020810190506121a0565b838801955050505b50505092915050565b60006121dc8284612151565b915081905092915050565b7f4e487b7100000000000000000000000000000000000000000000000000000000600052601160045260246000fd5b600061222182611a39565b91507fffffffffffffffffffffffffffffffffffffffffffffffffffffffffffffffff821415612254576122536121e7565b5b600182019050919050565b600061226a82611a39565b915061227583611a39565b9250827fffffffffffffffffffffffffffffffffffffffffffffffffffffffffffffffff038211156122aa576122a96121e7565b5b828201905092915050565b60006122c082611a39565b91506122cb83611a39565b9250828210156122de576122dd6121e7565b5b828203905092915050565b6122f281611a39565b82525050565b600060208201905061230d60008301846122e9565b9291505056fea2646970667358221220049a9a6efa8775085ac377dcce67696fc40cbad9248a5cb42e3c6886978dad8164736f6c634300080c0033",
  "immutableReferences": {},
  "source": "// SPDX-License-Identifier: MIT\n\npragma solidity ^0.8.12;\n\ncontract FrontChain {\n    struct Component {\n        string name;\n        string componentId;\n        uint price;\n        bool isSold;\n        string ownerUUID;\n    }\n    // componentId => owner\n    mapping(string => address) componentOwner;\n    // componentId => Component : To get the component details\n    mapping(string => Component) componentDetails;\n    // all components\n    Component[] components;\n\n\n    struct User{\n        string name;\n        string userId;\n        uint balance;\n        UserType userType;\n    }\n    // address => User\n    mapping(address => User) userAddress;\n    // user type\n    enum UserType{ SELLER, BUYER}\n\n    struct Request{\n        string description;\n        string reqId;\n        string timestamp;\n    }\n    // reqId => Request\n    mapping(string => Request) requestMap;\n    // ALL REQUESTS\n    Request[] requests;\n\n    address ceo;\n\n    string constant NULL_STRING = '';\n\n    event Transfer(address indexed from, address indexed to, uint amount);\n\n\n    constructor() {\n        ceo = msg.sender;\n    }\n\n    modifier onlyUserType(UserType userType){\n        require(userAddress[msg.sender].userType == userType);\n        _;\n    }\n\n    modifier onlyBuyerAndCeo{\n        require(userAddress[msg.sender].userType == UserType.BUYER || msg.sender == ceo);\n        _;\n    }\n\n    modifier onlyCeo{\n        require(msg.sender == ceo);\n        _;\n    }\n\n\n    // [WORKING] REGISTER USER\n    function registerUser(string memory name, string memory userId, uint userType) payable public {\n        // create new user\n        User memory newUser;\n        if(userType == 0)\n            newUser = User(name, userId, msg.value, UserType.SELLER);\n        else\n            newUser = User(name, userId, msg.value, UserType.BUYER);\n\n        // userId should not be null | Comparing userId string with Null String\n        require(keccak256(bytes(newUser.userId)) != keccak256(bytes(NULL_STRING)));\n        // map user address to its details\n        userAddress[msg.sender] = newUser;\n    }\n\n    // [WORKING] PUBLISH COMPONENT - Modifier: onlySeller\n    function publishComponent(string memory name, string memory componentId, uint price) onlyUserType(UserType.SELLER) payable public{\n        Component memory newComponent = Component(name, componentId, price, false, userAddress[msg.sender].userId);\n        // push new component to all component list\n        components.push(newComponent);\n        // map owner of the new component\n        componentOwner[componentId] = msg.sender;\n        // map componentId to its details\n        componentDetails[componentId] = newComponent;\n    }\n\n    // [WORKING] GET ALL COMPONENTS\n    function getAllComponents() view public returns(Component[] memory) {\n        return components;\n    }\n\n    // [WORKING] GET COMPONENT OWNER\n    function getOwnerDetails(string memory componentId) view public returns(address, User memory) {\n        return (componentOwner[componentId], userAddress[componentOwner[componentId]]);\n    }\n\n    // GET ANY USER from Registered Users\n    function getUser() view public returns (User memory){\n        return userAddress[msg.sender];\n    }\n\n    // [WORKING] GET COMPONENT DETAILS\n    function getComponentDetails(string memory componentId) view public returns (Component memory) {\n        return componentDetails[componentId];\n    }\n\n    // ADD REQUEST\n    function addRequest(string memory description, string memory reqId, string memory timestamp) public {\n        Request memory temp = Request(description, reqId, timestamp);\n        // Push new request to all request list\n        requests.push(temp);\n    }\n\n    // GET ALL REQUESTS\n    function getAllRequests() view public returns(Request[] memory){\n        return requests;\n    }\n\n    // [WORKING] PURCHASE COMPONENT - Modifier: Owner can not purchase himself/herself. - onlyBuyer\n    function purchaseComponent(string memory componentId) payable onlyUserType(UserType.BUYER) public {\n        // GET OWNER ADDRESS\n        address payable ownerAddress = payable(componentOwner[componentId]);\n\n        // sell the component\n        componentDetails[componentId].isSold = true;\n        componentDetails[componentId].ownerUUID = userAddress[msg.sender].userId;\n\n        // change components list\n        for(uint i=0; i<components.length; i++){\n            if(keccak256(bytes(components[i].componentId)) == keccak256(bytes(componentId))){\n                // found\n                components[i].isSold = true;\n                components[i].ownerUUID = userAddress[msg.sender].userId;\n                break;\n            }\n        }\n\n         // // Handle transaction balances\n        userAddress[ownerAddress].balance += componentDetails[componentId].price; // OWNER\n        userAddress[msg.sender].balance -= componentDetails[componentId].price; // BUYER\n\n        // transfer component mapping to buyer\n        componentOwner[componentId] = msg.sender;\n\n        // Pay Owner\n        // ownerAddress.transfer(componentDetails[componentId].price);\n        emit Transfer(msg.sender, ownerAddress,componentDetails[componentId].price);\n\n       \n    }\n}\n",
  "sourcePath": "/Users/rahulsharma/Desktop/BlockChain-Sandbox/FrontChain/contracts/FrontChain.sol",
  "compiler": {
    "name": "solc",
    "version": "0.8.12+commit.f00d7308.Emscripten.clang"
  },
  "schemaVersion": "3.4.6",
  "updatedAt": "2022-04-12T20:15:03.451Z",
  "networkType": "ethereum",
  "devdoc": {
    "kind": "dev",
    "methods": {},
    "version": 1
  },
  "userdoc": {
    "kind": "user",
    "methods": {},
    "version": 1
  }
}