{
  "contractName": "FrontChain",
  "abi": [
    {
      "inputs": [],
      "stateMutability": "nonpayable",
      "type": "constructor"
    },
    {
      "anonymous": false,
      "inputs": [
        {
          "indexed": true,
          "internalType": "address",
          "name": "from",
          "type": "address"
        },
        {
          "indexed": true,
          "internalType": "address",
          "name": "to",
          "type": "address"
        },
        {
          "indexed": false,
          "internalType": "uint256",
          "name": "amount",
          "type": "uint256"
        }
      ],
      "name": "Transfer",
      "type": "event"
    },
    {
      "inputs": [
        {
          "internalType": "string",
          "name": "name",
          "type": "string"
        },
        {
          "internalType": "string",
          "name": "userId",
          "type": "string"
        },
        {
          "internalType": "uint256",
          "name": "userType",
          "type": "uint256"
        }
      ],
      "name": "registerUser",
      "outputs": [],
      "stateMutability": "payable",
      "type": "function",
      "payable": true
    },
    {
      "inputs": [
        {
          "internalType": "string",
          "name": "name",
          "type": "string"
        },
        {
          "internalType": "string",
          "name": "componentId",
          "type": "string"
        },
        {
          "internalType": "uint256",
          "name": "price",
          "type": "uint256"
        }
      ],
      "name": "publishComponent",
      "outputs": [],
      "stateMutability": "payable",
      "type": "function",
      "payable": true
    },
    {
      "inputs": [],
      "name": "getAllComponents",
      "outputs": [
        {
          "components": [
            {
              "internalType": "string",
              "name": "name",
              "type": "string"
            },
            {
              "internalType": "string",
              "name": "componentId",
              "type": "string"
            },
            {
              "internalType": "uint256",
              "name": "price",
              "type": "uint256"
            },
            {
              "internalType": "bool",
              "name": "isSold",
              "type": "bool"
            }
          ],
          "internalType": "struct FrontChain.Component[]",
          "name": "",
          "type": "tuple[]"
        }
      ],
      "stateMutability": "view",
      "type": "function",
      "constant": true
    },
    {
      "inputs": [
        {
          "internalType": "string",
          "name": "componentId",
          "type": "string"
        }
      ],
      "name": "getOwnerDetails",
      "outputs": [
        {
          "internalType": "address",
          "name": "",
          "type": "address"
        },
        {
          "components": [
            {
              "internalType": "string",
              "name": "name",
              "type": "string"
            },
            {
              "internalType": "string",
              "name": "userId",
              "type": "string"
            },
            {
              "internalType": "uint256",
              "name": "balance",
              "type": "uint256"
            },
            {
              "internalType": "enum FrontChain.UserType",
              "name": "userType",
              "type": "uint8"
            }
          ],
          "internalType": "struct FrontChain.User",
          "name": "",
          "type": "tuple"
        }
      ],
      "stateMutability": "view",
      "type": "function",
      "constant": true
    },
    {
      "inputs": [],
      "name": "getUser",
      "outputs": [
        {
          "components": [
            {
              "internalType": "string",
              "name": "name",
              "type": "string"
            },
            {
              "internalType": "string",
              "name": "userId",
              "type": "string"
            },
            {
              "internalType": "uint256",
              "name": "balance",
              "type": "uint256"
            },
            {
              "internalType": "enum FrontChain.UserType",
              "name": "userType",
              "type": "uint8"
            }
          ],
          "internalType": "struct FrontChain.User",
          "name": "",
          "type": "tuple"
        }
      ],
      "stateMutability": "view",
      "type": "function",
      "constant": true
    },
    {
      "inputs": [
        {
          "internalType": "string",
          "name": "componentId",
          "type": "string"
        }
      ],
      "name": "getComponentDetails",
      "outputs": [
        {
          "components": [
            {
              "internalType": "string",
              "name": "name",
              "type": "string"
            },
            {
              "internalType": "string",
              "name": "componentId",
              "type": "string"
            },
            {
              "internalType": "uint256",
              "name": "price",
              "type": "uint256"
            },
            {
              "internalType": "bool",
              "name": "isSold",
              "type": "bool"
            }
          ],
          "internalType": "struct FrontChain.Component",
          "name": "",
          "type": "tuple"
        }
      ],
      "stateMutability": "view",
      "type": "function",
      "constant": true
    },
    {
      "inputs": [
        {
          "internalType": "string",
          "name": "componentId",
          "type": "string"
        }
      ],
      "name": "purchaseComponent",
      "outputs": [],
      "stateMutability": "payable",
      "type": "function",
      "payable": true
    }
  ],
  "bytecode": "0x608060405234801561001057600080fd5b5033600460006101000a81548173ffffffffffffffffffffffffffffffffffffffff021916908373ffffffffffffffffffffffffffffffffffffffff160217905550611bf5806100616000396000f3fe6080604052600436106100705760003560e01c806373c480a11161004e57806373c480a11461011b578063832880e714610137578063ab08e3e414610162578063f209e74f1461017e57610070565b806308fcf6e51461007557806349a0b0b1146100b357806366fadf0b146100f0575b600080fd5b34801561008157600080fd5b5061009c600480360381019061009791906113f0565b61019a565b6040516100aa9291906115fc565b60405180910390f35b3480156100bf57600080fd5b506100da60048036038101906100d591906113f0565b6104b6565b6040516100e791906116b1565b60405180910390f35b3480156100fc57600080fd5b5061010561070e565b60405161011291906117ff565b60405180910390f35b610135600480360381019061013091906113f0565b6108b6565b005b34801561014357600080fd5b5061014c610c3d565b6040516101599190611821565b60405180910390f35b61017c6004803603810190610177919061186f565b610dfd565b005b6101986004803603810190610193919061186f565b611022565b005b60006101a461118f565b6001808111156101b7576101b661151b565b5b600360003373ffffffffffffffffffffffffffffffffffffffff1673ffffffffffffffffffffffffffffffffffffffff16815260200190815260200160002060030160009054906101000a900460ff1660018111156102195761021861151b565b5b14806102725750600460009054906101000a900473ffffffffffffffffffffffffffffffffffffffff1673ffffffffffffffffffffffffffffffffffffffff163373ffffffffffffffffffffffffffffffffffffffff16145b61027b57600080fd5b60008360405161028b9190611936565b908152602001604051809103902060009054906101000a900473ffffffffffffffffffffffffffffffffffffffff166003600080866040516102cd9190611936565b908152602001604051809103902060009054906101000a900473ffffffffffffffffffffffffffffffffffffffff1673ffffffffffffffffffffffffffffffffffffffff1673ffffffffffffffffffffffffffffffffffffffff168152602001908152602001600020806040518060800160405290816000820180546103529061197c565b80601f016020809104026020016040519081016040528092919081815260200182805461037e9061197c565b80156103cb5780601f106103a0576101008083540402835291602001916103cb565b820191906000526020600020905b8154815290600101906020018083116103ae57829003601f168201915b505050505081526020016001820180546103e49061197c565b80601f01602080910402602001604051908101604052809291908181526020018280546104109061197c565b801561045d5780601f106104325761010080835404028352916020019161045d565b820191906000526020600020905b81548152906001019060200180831161044057829003601f168201915b50505050508152602001600282015481526020016003820160009054906101000a900460ff1660018111156104955761049461151b565b5b60018111156104a7576104a661151b565b5b81525050905091509150915091565b6104be6111c9565b6001808111156104d1576104d061151b565b5b600360003373ffffffffffffffffffffffffffffffffffffffff1673ffffffffffffffffffffffffffffffffffffffff16815260200190815260200160002060030160009054906101000a900460ff1660018111156105335761053261151b565b5b148061058c5750600460009054906101000a900473ffffffffffffffffffffffffffffffffffffffff1673ffffffffffffffffffffffffffffffffffffffff163373ffffffffffffffffffffffffffffffffffffffff16145b61059557600080fd5b6001826040516105a59190611936565b90815260200160405180910390206040518060800160405290816000820180546105ce9061197c565b80601f01602080910402602001604051908101604052809291908181526020018280546105fa9061197c565b80156106475780601f1061061c57610100808354040283529160200191610647565b820191906000526020600020905b81548152906001019060200180831161062a57829003601f168201915b505050505081526020016001820180546106609061197c565b80601f016020809104026020016040519081016040528092919081815260200182805461068c9061197c565b80156106d95780601f106106ae576101008083540402835291602001916106d9565b820191906000526020600020905b8154815290600101906020018083116106bc57829003601f168201915b50505050508152602001600282015481526020016003820160009054906101000a900460ff1615151515815250509050919050565b60606002805480602002602001604051908101604052809291908181526020016000905b828210156108ad57838290600052602060002090600402016040518060800160405290816000820180546107659061197c565b80601f01602080910402602001604051908101604052809291908181526020018280546107919061197c565b80156107de5780601f106107b3576101008083540402835291602001916107de565b820191906000526020600020905b8154815290600101906020018083116107c157829003601f168201915b505050505081526020016001820180546107f79061197c565b80601f01602080910402602001604051908101604052809291908181526020018280546108239061197c565b80156108705780601f1061084557610100808354040283529160200191610870565b820191906000526020600020905b81548152906001019060200180831161085357829003601f168201915b50505050508152602001600282015481526020016003820160009054906101000a900460ff16151515158152505081526020019060010190610732565b50505050905090565b60018060018111156108cb576108ca61151b565b5b600360003373ffffffffffffffffffffffffffffffffffffffff1673ffffffffffffffffffffffffffffffffffffffff16815260200190815260200160002060030160009054906101000a900460ff16600181111561092d5761092c61151b565b5b1461093757600080fd5b600080836040516109489190611936565b908152602001604051809103902060009054906101000a900473ffffffffffffffffffffffffffffffffffffffff1690506001808460405161098a9190611936565b908152602001604051809103902060030160006101000a81548160ff02191690831515021790555060005b600280549050811015610a60578380519060200120600282815481106109de576109dd6119ae565b5b90600052602060002090600402016001016040516109fc9190611a7c565b60405180910390201415610a4d57600160028281548110610a2057610a1f6119ae565b5b906000526020600020906004020160030160006101000a81548160ff021916908315150217905550610a60565b8080610a5890611ac2565b9150506109b5565b50600183604051610a719190611936565b908152602001604051809103902060020154600360008373ffffffffffffffffffffffffffffffffffffffff1673ffffffffffffffffffffffffffffffffffffffff1681526020019081526020016000206002016000828254610ad49190611b0b565b92505081905550600183604051610aeb9190611936565b908152602001604051809103902060020154600360003373ffffffffffffffffffffffffffffffffffffffff1673ffffffffffffffffffffffffffffffffffffffff1681526020019081526020016000206002016000828254610b4e9190611b61565b9250508190555033600084604051610b669190611936565b908152602001604051809103902060006101000a81548173ffffffffffffffffffffffffffffffffffffffff021916908373ffffffffffffffffffffffffffffffffffffffff1602179055508073ffffffffffffffffffffffffffffffffffffffff163373ffffffffffffffffffffffffffffffffffffffff167fddf252ad1be2c89b69c2b068fc378daa952ba7f163c4a11628f55a4df523b3ef600186604051610c119190611936565b908152602001604051809103902060020154604051610c309190611ba4565b60405180910390a3505050565b610c4561118f565b600360003373ffffffffffffffffffffffffffffffffffffffff1673ffffffffffffffffffffffffffffffffffffffff168152602001908152602001600020604051806080016040529081600082018054610c9f9061197c565b80601f0160208091040260200160405190810160405280929190818152602001828054610ccb9061197c565b8015610d185780601f10610ced57610100808354040283529160200191610d18565b820191906000526020600020905b815481529060010190602001808311610cfb57829003601f168201915b50505050508152602001600182018054610d319061197c565b80601f0160208091040260200160405190810160405280929190818152602001828054610d5d9061197c565b8015610daa5780601f10610d7f57610100808354040283529160200191610daa565b820191906000526020600020905b815481529060010190602001808311610d8d57829003601f168201915b50505050508152602001600282015481526020016003820160009054906101000a900460ff166001811115610de257610de161151b565b5b6001811115610df457610df361151b565b5b81525050905090565b6000806001811115610e1257610e1161151b565b5b600360003373ffffffffffffffffffffffffffffffffffffffff1673ffffffffffffffffffffffffffffffffffffffff16815260200190815260200160002060030160009054906101000a900460ff166001811115610e7457610e7361151b565b5b14610e7e57600080fd5b6000604051806080016040528086815260200185815260200184815260200160001515815250905060028190806001815401808255809150506001900390600052602060002090600402016000909190919091506000820151816000019080519060200190610eee9291906111f3565b506020820151816001019080519060200190610f0b9291906111f3565b506040820151816002015560608201518160030160006101000a81548160ff021916908315150217905550505033600085604051610f499190611936565b908152602001604051809103902060006101000a81548173ffffffffffffffffffffffffffffffffffffffff021916908373ffffffffffffffffffffffffffffffffffffffff16021790555080600185604051610fa69190611936565b90815260200160405180910390206000820151816000019080519060200190610fd09291906111f3565b506020820151816001019080519060200190610fed9291906111f3565b506040820151816002015560608201518160030160006101000a81548160ff0219169083151502179055509050505050505050565b61102a61118f565b600082141561106e576040518060800160405280858152602001848152602001348152602001600060018111156110645761106361151b565b5b81525090506110a4565b604051806080016040528085815260200184815260200134815260200160018081111561109e5761109d61151b565b5b81525090505b604051806020016040528060008152508051906020012081602001518051906020012014156110d257600080fd5b80600360003373ffffffffffffffffffffffffffffffffffffffff1673ffffffffffffffffffffffffffffffffffffffff168152602001908152602001600020600082015181600001908051906020019061112e9291906111f3565b50602082015181600101908051906020019061114b9291906111f3565b506040820151816002015560608201518160030160006101000a81548160ff021916908360018111156111815761118061151b565b5b021790555090505050505050565b6040518060800160405280606081526020016060815260200160008152602001600060018111156111c3576111c261151b565b5b81525090565b60405180608001604052806060815260200160608152602001600081526020016000151581525090565b8280546111ff9061197c565b90600052602060002090601f0160209004810192826112215760008555611268565b82601f1061123a57805160ff1916838001178555611268565b82800160010185558215611268579182015b8281111561126757825182559160200191906001019061124c565b5b5090506112759190611279565b5090565b5b8082111561129257600081600090555060010161127a565b5090565b6000604051905090565b600080fd5b600080fd5b600080fd5b600080fd5b6000601f19601f8301169050919050565b7f4e487b7100000000000000000000000000000000000000000000000000000000600052604160045260246000fd5b6112fd826112b4565b810181811067ffffffffffffffff8211171561131c5761131b6112c5565b5b80604052505050565b600061132f611296565b905061133b82826112f4565b919050565b600067ffffffffffffffff82111561135b5761135a6112c5565b5b611364826112b4565b9050602081019050919050565b82818337600083830152505050565b600061139361138e84611340565b611325565b9050828152602081018484840111156113af576113ae6112af565b5b6113ba848285611371565b509392505050565b600082601f8301126113d7576113d66112aa565b5b81356113e7848260208601611380565b91505092915050565b600060208284031215611406576114056112a0565b5b600082013567ffffffffffffffff811115611424576114236112a5565b5b611430848285016113c2565b91505092915050565b600073ffffffffffffffffffffffffffffffffffffffff82169050919050565b600061146482611439565b9050919050565b61147481611459565b82525050565b600081519050919050565b600082825260208201905092915050565b60005b838110156114b4578082015181840152602081019050611499565b838111156114c3576000848401525b50505050565b60006114d48261147a565b6114de8185611485565b93506114ee818560208601611496565b6114f7816112b4565b840191505092915050565b6000819050919050565b61151581611502565b82525050565b7f4e487b7100000000000000000000000000000000000000000000000000000000600052602160045260246000fd5b6002811061155b5761155a61151b565b5b50565b600081905061156c8261154a565b919050565b600061157c8261155e565b9050919050565b61158c81611571565b82525050565b600060808301600083015184820360008601526115af82826114c9565b915050602083015184820360208601526115c982826114c9565b91505060408301516115de604086018261150c565b5060608301516115f16060860182611583565b508091505092915050565b6000604082019050611611600083018561146b565b81810360208301526116238184611592565b90509392505050565b60008115159050919050565b6116418161162c565b82525050565b6000608083016000830151848203600086015261166482826114c9565b9150506020830151848203602086015261167e82826114c9565b9150506040830151611693604086018261150c565b5060608301516116a66060860182611638565b508091505092915050565b600060208201905081810360008301526116cb8184611647565b905092915050565b600081519050919050565b600082825260208201905092915050565b6000819050602082019050919050565b6000608083016000830151848203600086015261171c82826114c9565b9150506020830151848203602086015261173682826114c9565b915050604083015161174b604086018261150c565b50606083015161175e6060860182611638565b508091505092915050565b600061177583836116ff565b905092915050565b6000602082019050919050565b6000611795826116d3565b61179f81856116de565b9350836020820285016117b1856116ef565b8060005b858110156117ed57848403895281516117ce8582611769565b94506117d98361177d565b925060208a019950506001810190506117b5565b50829750879550505050505092915050565b60006020820190508181036000830152611819818461178a565b905092915050565b6000602082019050818103600083015261183b8184611592565b905092915050565b61184c81611502565b811461185757600080fd5b50565b60008135905061186981611843565b92915050565b600080600060608486031215611888576118876112a0565b5b600084013567ffffffffffffffff8111156118a6576118a56112a5565b5b6118b2868287016113c2565b935050602084013567ffffffffffffffff8111156118d3576118d26112a5565b5b6118df868287016113c2565b92505060406118f08682870161185a565b9150509250925092565b600081905092915050565b60006119108261147a565b61191a81856118fa565b935061192a818560208601611496565b80840191505092915050565b60006119428284611905565b915081905092915050565b7f4e487b7100000000000000000000000000000000000000000000000000000000600052602260045260246000fd5b6000600282049050600182168061199457607f821691505b602082108114156119a8576119a761194d565b5b50919050565b7f4e487b7100000000000000000000000000000000000000000000000000000000600052603260045260246000fd5b600081905092915050565b60008190508160005260206000209050919050565b60008154611a0a8161197c565b611a1481866119dd565b94506001821660008114611a2f5760018114611a4057611a73565b60ff19831686528186019350611a73565b611a49856119e8565b60005b83811015611a6b57815481890152600182019150602081019050611a4c565b838801955050505b50505092915050565b6000611a8882846119fd565b915081905092915050565b7f4e487b7100000000000000000000000000000000000000000000000000000000600052601160045260246000fd5b6000611acd82611502565b91507fffffffffffffffffffffffffffffffffffffffffffffffffffffffffffffffff821415611b0057611aff611a93565b5b600182019050919050565b6000611b1682611502565b9150611b2183611502565b9250827fffffffffffffffffffffffffffffffffffffffffffffffffffffffffffffffff03821115611b5657611b55611a93565b5b828201905092915050565b6000611b6c82611502565b9150611b7783611502565b925082821015611b8a57611b89611a93565b5b828203905092915050565b611b9e81611502565b82525050565b6000602082019050611bb96000830184611b95565b9291505056fea264697066735822122058e480311b7280b621bb8af55a7210d1f39d536b1ca2782aac0b2c80452770ab64736f6c634300080c0033",
  "immutableReferences": {},
  "source": "// SPDX-License-Identifier: MIT\n\npragma solidity ^0.8.12;\n\ncontract FrontChain {\n    struct Component {\n        string name;\n        string componentId;\n        uint price;\n        bool isSold;\n    }\n    // componentId => owner\n    mapping(string => address) componentOwner;\n    // componentId => Component : To get the component details\n    mapping(string => Component) componentDetails;\n    // all components\n    Component[] components;\n\n\n    struct User{\n        string name;\n        string userId;\n        uint balance;\n        UserType userType;\n    }\n    // address => User\n    mapping(address => User) userAddress;\n    // user type\n    enum UserType{ SELLER, BUYER}\n\n    address ceo;\n\n    string constant NULL_STRING = '';\n\n    event Transfer(address indexed from, address indexed to, uint amount);\n\n\n    constructor() {\n        ceo = msg.sender;\n    }\n\n    modifier onlyUserType(UserType userType){\n        require(userAddress[msg.sender].userType == userType);\n        _;\n    }\n\n    modifier onlyBuyerAndCeo{\n        require(userAddress[msg.sender].userType == UserType.BUYER || msg.sender == ceo);\n        _;\n    }\n\n    modifier onlyCeo{\n        require(msg.sender == ceo);\n        _;\n    }\n\n\n    // [WORKING] REGISTER USER\n    function registerUser(string memory name, string memory userId, uint userType) payable public {\n        // create new user\n        User memory newUser;\n        if(userType == 0)\n            newUser = User(name, userId, msg.value, UserType.SELLER);\n        else\n            newUser = User(name, userId, msg.value, UserType.BUYER);\n\n        // userId should not be null | Comparing userId string with Null String\n        require(keccak256(bytes(newUser.userId)) != keccak256(bytes(NULL_STRING)));\n        // map user address to its details\n        userAddress[msg.sender] = newUser;\n    }\n\n    // [WORKING] PUBLISH COMPONENT - Modifier: onlySeller\n    function publishComponent(string memory name, string memory componentId, uint price) onlyUserType(UserType.SELLER) payable public{\n        Component memory newComponent = Component(name, componentId, price, false);\n        // push new component to all component list\n        components.push(newComponent);\n        // map owner of the new component\n        componentOwner[componentId] = msg.sender;\n        // map componentId to its details\n        componentDetails[componentId] = newComponent;\n    }\n\n    // [WORKING] GET ALL COMPONENTS\n    function getAllComponents() view public returns(Component[] memory) {\n        return components;\n    }\n\n    // [WORKING] GET COMPONENT OWNER - Modifier: onlyCeo\n    function getOwnerDetails(string memory componentId) view onlyBuyerAndCeo public returns(address, User memory) {\n        return (componentOwner[componentId], userAddress[componentOwner[componentId]]);\n    }\n\n    // GET ANY USER from Registered Users\n    function getUser() view public returns (User memory){\n        return userAddress[msg.sender];\n    }\n\n    // [WORKING] GET COMPONENT DETAILS - Modifier: onlyBuyer || onlyCeo\n    function getComponentDetails(string memory componentId) view onlyBuyerAndCeo public returns (Component memory) {\n        return componentDetails[componentId];\n    }\n\n    // [WORKING] PURCHASE COMPONENT - Modifier: Owner can not purchase himself/herself. - onlyBuyer\n    function purchaseComponent(string memory componentId) payable onlyUserType(UserType.BUYER) public {\n        // GET OWNER ADDRESS\n        address payable ownerAddress = payable(componentOwner[componentId]);\n\n        // sell the component\n        componentDetails[componentId].isSold = true;\n\n        // change components list\n        for(uint i=0; i<components.length; i++){\n            if(keccak256(bytes(components[i].componentId)) == keccak256(bytes(componentId))){\n                // found\n                components[i].isSold = true;\n                break;\n            }\n        }\n\n         // // Handle transaction balances\n        userAddress[ownerAddress].balance += componentDetails[componentId].price; // OWNER\n        userAddress[msg.sender].balance -= componentDetails[componentId].price; // BUYER\n\n        // transfer component mapping to buyer\n        componentOwner[componentId] = msg.sender;\n\n        // Pay Owner\n        // ownerAddress.transfer(componentDetails[componentId].price);\n        emit Transfer(msg.sender, ownerAddress,componentDetails[componentId].price);\n\n       \n    }\n}\n",
  "sourcePath": "/Users/rahulsharma/Desktop/BlockChain-Sandbox/FrontChain/contracts/FrontChain.sol",
  "compiler": {
    "name": "solc",
    "version": "0.8.12+commit.f00d7308.Emscripten.clang"
  },
  "schemaVersion": "3.4.6",
  "updatedAt": "2022-04-11T03:08:27.250Z",
  "networkType": "ethereum",
  "devdoc": {
    "kind": "dev",
    "methods": {},
    "version": 1
  },
  "userdoc": {
    "kind": "user",
    "methods": {},
    "version": 1
  }
}