{
  "contractName": "FrontCoin",
  "abi": [
    {
      "inputs": [],
      "stateMutability": "nonpayable",
      "type": "constructor"
    },
    {
      "anonymous": false,
      "inputs": [
        {
          "indexed": true,
          "internalType": "address",
          "name": "tokenOwner",
          "type": "address"
        },
        {
          "indexed": true,
          "internalType": "address",
          "name": "spender",
          "type": "address"
        },
        {
          "indexed": false,
          "internalType": "uint256",
          "name": "tokens",
          "type": "uint256"
        }
      ],
      "name": "Approval",
      "type": "event"
    },
    {
      "anonymous": false,
      "inputs": [
        {
          "indexed": true,
          "internalType": "address",
          "name": "from",
          "type": "address"
        },
        {
          "indexed": true,
          "internalType": "address",
          "name": "to",
          "type": "address"
        },
        {
          "indexed": false,
          "internalType": "uint256",
          "name": "tokens",
          "type": "uint256"
        }
      ],
      "name": "Transfer",
      "type": "event"
    },
    {
      "inputs": [],
      "name": "decimals",
      "outputs": [
        {
          "internalType": "uint8",
          "name": "",
          "type": "uint8"
        }
      ],
      "stateMutability": "view",
      "type": "function"
    },
    {
      "inputs": [],
      "name": "name",
      "outputs": [
        {
          "internalType": "string",
          "name": "",
          "type": "string"
        }
      ],
      "stateMutability": "view",
      "type": "function"
    },
    {
      "inputs": [],
      "name": "symbol",
      "outputs": [
        {
          "internalType": "string",
          "name": "",
          "type": "string"
        }
      ],
      "stateMutability": "view",
      "type": "function"
    },
    {
      "inputs": [],
      "name": "totalSupply",
      "outputs": [
        {
          "internalType": "uint256",
          "name": "",
          "type": "uint256"
        }
      ],
      "stateMutability": "view",
      "type": "function"
    },
    {
      "inputs": [
        {
          "internalType": "address",
          "name": "tokenOwner",
          "type": "address"
        }
      ],
      "name": "balanceOf",
      "outputs": [
        {
          "internalType": "uint256",
          "name": "",
          "type": "uint256"
        }
      ],
      "stateMutability": "view",
      "type": "function"
    },
    {
      "inputs": [
        {
          "internalType": "address",
          "name": "sender",
          "type": "address"
        },
        {
          "internalType": "address",
          "name": "receiver",
          "type": "address"
        },
        {
          "internalType": "uint256",
          "name": "numTokens",
          "type": "uint256"
        }
      ],
      "name": "transfer",
      "outputs": [
        {
          "internalType": "bool",
          "name": "",
          "type": "bool"
        }
      ],
      "stateMutability": "payable",
      "type": "function"
    },
    {
      "inputs": [
        {
          "internalType": "address",
          "name": "buyer",
          "type": "address"
        },
        {
          "internalType": "address",
          "name": "seller",
          "type": "address"
        },
        {
          "internalType": "uint256",
          "name": "numTokens",
          "type": "uint256"
        },
        {
          "internalType": "address",
          "name": "dealer",
          "type": "address"
        }
      ],
      "name": "transferFrom",
      "outputs": [
        {
          "internalType": "bool",
          "name": "",
          "type": "bool"
        }
      ],
      "stateMutability": "nonpayable",
      "type": "function"
    },
    {
      "inputs": [
        {
          "internalType": "address",
          "name": "sender",
          "type": "address"
        },
        {
          "internalType": "address",
          "name": "dealer",
          "type": "address"
        },
        {
          "internalType": "uint256",
          "name": "numTokens",
          "type": "uint256"
        }
      ],
      "name": "approve",
      "outputs": [
        {
          "internalType": "bool",
          "name": "",
          "type": "bool"
        }
      ],
      "stateMutability": "nonpayable",
      "type": "function"
    },
    {
      "inputs": [
        {
          "internalType": "address",
          "name": "owner",
          "type": "address"
        },
        {
          "internalType": "address",
          "name": "dealer",
          "type": "address"
        }
      ],
      "name": "allowance",
      "outputs": [
        {
          "internalType": "uint256",
          "name": "",
          "type": "uint256"
        }
      ],
      "stateMutability": "view",
      "type": "function"
    }
  ],
  "bytecode": "0x608060405234801561001057600080fd5b50620f4240600381905550600354600160003373ffffffffffffffffffffffffffffffffffffffff1673ffffffffffffffffffffffffffffffffffffffff16815260200190815260200160002081905550336000806101000a81548173ffffffffffffffffffffffffffffffffffffffff021916908373ffffffffffffffffffffffffffffffffffffffff160217905550611071806100b06000396000f3fe6080604052600436106100865760003560e01c806370a082311161005957806370a082311461014957806395d89b4114610186578063beabacc8146101b1578063dd62ed3e146101e1578063e1f21c671461021e57610086565b806306fdde031461008b57806318160ddd146100b6578063313ce567146100e15780635fc9309c1461010c575b600080fd5b34801561009757600080fd5b506100a061025b565b6040516100ad9190610b96565b60405180910390f35b3480156100c257600080fd5b506100cb610294565b6040516100d89190610bd1565b60405180910390f35b3480156100ed57600080fd5b506100f661029e565b6040516101039190610c08565b60405180910390f35b34801561011857600080fd5b50610133600480360381019061012e9190610cb2565b6102a3565b6040516101409190610d34565b60405180910390f35b34801561015557600080fd5b50610170600480360381019061016b9190610d4f565b610690565b60405161017d9190610bd1565b60405180910390f35b34801561019257600080fd5b5061019b6106d9565b6040516101a89190610b96565b60405180910390f35b6101cb60048036038101906101c69190610d7c565b610712565b6040516101d89190610d34565b60405180910390f35b3480156101ed57600080fd5b5061020860048036038101906102039190610dcf565b610930565b6040516102159190610bd1565b60405180910390f35b34801561022a57600080fd5b5061024560048036038101906102409190610d7c565b6109b7565b6040516102529190610d34565b60405180910390f35b6040518060400160405280600981526020017f46524f4e54434f494e000000000000000000000000000000000000000000000081525081565b6000600354905090565b600281565b6000600160008673ffffffffffffffffffffffffffffffffffffffff1673ffffffffffffffffffffffffffffffffffffffff16815260200190815260200160002054831115610327576040517f08c379a000000000000000000000000000000000000000000000000000000000815260040161031e90610e5b565b60405180910390fd5b600260008673ffffffffffffffffffffffffffffffffffffffff1673ffffffffffffffffffffffffffffffffffffffff16815260200190815260200160002060008373ffffffffffffffffffffffffffffffffffffffff1673ffffffffffffffffffffffffffffffffffffffff168152602001908152602001600020548311156103e6576040517f08c379a00000000000000000000000000000000000000000000000000000000081526004016103dd90610ec7565b60405180910390fd5b61043883600160008873ffffffffffffffffffffffffffffffffffffffff1673ffffffffffffffffffffffffffffffffffffffff16815260200190815260200160002054610aaa90919063ffffffff16565b600160008773ffffffffffffffffffffffffffffffffffffffff1673ffffffffffffffffffffffffffffffffffffffff1681526020019081526020016000208190555061050a83600260008873ffffffffffffffffffffffffffffffffffffffff1673ffffffffffffffffffffffffffffffffffffffff16815260200190815260200160002060008573ffffffffffffffffffffffffffffffffffffffff1673ffffffffffffffffffffffffffffffffffffffff16815260200190815260200160002054610aaa90919063ffffffff16565b600260008773ffffffffffffffffffffffffffffffffffffffff1673ffffffffffffffffffffffffffffffffffffffff16815260200190815260200160002060008473ffffffffffffffffffffffffffffffffffffffff1673ffffffffffffffffffffffffffffffffffffffff168152602001908152602001600020819055506105dc83600160008773ffffffffffffffffffffffffffffffffffffffff1673ffffffffffffffffffffffffffffffffffffffff16815260200190815260200160002054610ad190919063ffffffff16565b600160008673ffffffffffffffffffffffffffffffffffffffff1673ffffffffffffffffffffffffffffffffffffffff168152602001908152602001600020819055508373ffffffffffffffffffffffffffffffffffffffff168573ffffffffffffffffffffffffffffffffffffffff167fddf252ad1be2c89b69c2b068fc378daa952ba7f163c4a11628f55a4df523b3ef8560405161067c9190610bd1565b60405180910390a360019050949350505050565b6000600160008373ffffffffffffffffffffffffffffffffffffffff1673ffffffffffffffffffffffffffffffffffffffff168152602001908152602001600020549050919050565b6040518060400160405280600581526020017f46524f4e5400000000000000000000000000000000000000000000000000000081525081565b6000600160008573ffffffffffffffffffffffffffffffffffffffff1673ffffffffffffffffffffffffffffffffffffffff16815260200190815260200160002054821115610796576040517f08c379a000000000000000000000000000000000000000000000000000000000815260040161078d90610f33565b60405180910390fd5b6107e882600160008773ffffffffffffffffffffffffffffffffffffffff1673ffffffffffffffffffffffffffffffffffffffff16815260200190815260200160002054610aaa90919063ffffffff16565b600160008673ffffffffffffffffffffffffffffffffffffffff1673ffffffffffffffffffffffffffffffffffffffff1681526020019081526020016000208190555061087d82600160008673ffffffffffffffffffffffffffffffffffffffff1673ffffffffffffffffffffffffffffffffffffffff16815260200190815260200160002054610ad190919063ffffffff16565b600160008573ffffffffffffffffffffffffffffffffffffffff1673ffffffffffffffffffffffffffffffffffffffff168152602001908152602001600020819055508273ffffffffffffffffffffffffffffffffffffffff168473ffffffffffffffffffffffffffffffffffffffff167fddf252ad1be2c89b69c2b068fc378daa952ba7f163c4a11628f55a4df523b3ef8460405161091d9190610bd1565b60405180910390a3600190509392505050565b6000600260008473ffffffffffffffffffffffffffffffffffffffff1673ffffffffffffffffffffffffffffffffffffffff16815260200190815260200160002060008373ffffffffffffffffffffffffffffffffffffffff1673ffffffffffffffffffffffffffffffffffffffff16815260200190815260200160002054905092915050565b600081600260008673ffffffffffffffffffffffffffffffffffffffff1673ffffffffffffffffffffffffffffffffffffffff16815260200190815260200160002060008573ffffffffffffffffffffffffffffffffffffffff1673ffffffffffffffffffffffffffffffffffffffff168152602001908152602001600020819055508273ffffffffffffffffffffffffffffffffffffffff168473ffffffffffffffffffffffffffffffffffffffff167f8c5be1e5ebec7d5bd14f71427d1e84f3dd0314c0f7b2291e5b200ac8c7c3b92584604051610a979190610bd1565b60405180910390a3600190509392505050565b600082821115610abd57610abc610f53565b5b8183610ac99190610fb1565b905092915050565b6000808284610ae09190610fe5565b905083811015610af357610af2610f53565b5b8091505092915050565b600081519050919050565b600082825260208201905092915050565b60005b83811015610b37578082015181840152602081019050610b1c565b83811115610b46576000848401525b50505050565b6000601f19601f8301169050919050565b6000610b6882610afd565b610b728185610b08565b9350610b82818560208601610b19565b610b8b81610b4c565b840191505092915050565b60006020820190508181036000830152610bb08184610b5d565b905092915050565b6000819050919050565b610bcb81610bb8565b82525050565b6000602082019050610be66000830184610bc2565b92915050565b600060ff82169050919050565b610c0281610bec565b82525050565b6000602082019050610c1d6000830184610bf9565b92915050565b600080fd5b600073ffffffffffffffffffffffffffffffffffffffff82169050919050565b6000610c5382610c28565b9050919050565b610c6381610c48565b8114610c6e57600080fd5b50565b600081359050610c8081610c5a565b92915050565b610c8f81610bb8565b8114610c9a57600080fd5b50565b600081359050610cac81610c86565b92915050565b60008060008060808587031215610ccc57610ccb610c23565b5b6000610cda87828801610c71565b9450506020610ceb87828801610c71565b9350506040610cfc87828801610c9d565b9250506060610d0d87828801610c71565b91505092959194509250565b60008115159050919050565b610d2e81610d19565b82525050565b6000602082019050610d496000830184610d25565b92915050565b600060208284031215610d6557610d64610c23565b5b6000610d7384828501610c71565b91505092915050565b600080600060608486031215610d9557610d94610c23565b5b6000610da386828701610c71565b9350506020610db486828701610c71565b9250506040610dc586828701610c9d565b9150509250925092565b60008060408385031215610de657610de5610c23565b5b6000610df485828601610c71565b9250506020610e0585828601610c71565b9150509250929050565b7f496e73756666696369656e742042616c616e6365210000000000000000000000600082015250565b6000610e45601583610b08565b9150610e5082610e0f565b602082019050919050565b60006020820190508181036000830152610e7481610e38565b9050919050565b7f496e73756666696369656e7420416c6c6f77616e636521000000000000000000600082015250565b6000610eb1601783610b08565b9150610ebc82610e7b565b602082019050919050565b60006020820190508181036000830152610ee081610ea4565b9050919050565b7f496e73756666696369656e742053656e6465722042616c616e63652100000000600082015250565b6000610f1d601c83610b08565b9150610f2882610ee7565b602082019050919050565b60006020820190508181036000830152610f4c81610f10565b9050919050565b7f4e487b7100000000000000000000000000000000000000000000000000000000600052600160045260246000fd5b7f4e487b7100000000000000000000000000000000000000000000000000000000600052601160045260246000fd5b6000610fbc82610bb8565b9150610fc783610bb8565b925082821015610fda57610fd9610f82565b5b828203905092915050565b6000610ff082610bb8565b9150610ffb83610bb8565b9250827fffffffffffffffffffffffffffffffffffffffffffffffffffffffffffffffff038211156110305761102f610f82565b5b82820190509291505056fea26469706673582212203443f269f5b854a033bf0b2bf6b8362936596cb236305fcd861ce6e0add793ca64736f6c634300080c0033",
  "immutableReferences": {},
  "source": "// SPDX-License-Identifier: MIT\n\npragma solidity ^0.8.12;\n\n\ncontract FrontCoin {\n\n    string public constant name = \"FRONTCOIN\";\n    string public constant symbol = \"FRONT\";\n    uint8 public constant decimals = 2; \n   \n    address ERCowner; //#1\n\n    event Approval(address indexed tokenOwner, address indexed spender, uint tokens);\n    event Transfer(address indexed from, address indexed to, uint tokens);\n\n    mapping(address => uint256) balances;\n    mapping(address => mapping (address => uint256)) allowed;\n    \n    uint256 totalSupply_;\n\n    using SafeMath for uint256;\n\n   constructor() {  \n        totalSupply_ = 1000000;\n        balances[msg.sender] = totalSupply_;\n        ERCowner = msg.sender; //#2\n    }  \n\n    function totalSupply() public view returns (uint256) {\n\t    return totalSupply_;\n    }\n    \n    function balanceOf(address tokenOwner) public view returns (uint) {\n        return balances[tokenOwner];\n    }\n\n    function transfer(address sender, address receiver, uint numTokens) payable public returns (bool) {\n        require(numTokens <= balances[sender], \"Insufficient Sender Balance!\");\n        balances[sender] = balances[sender].sub(numTokens);\n        balances[receiver] = balances[receiver].add(numTokens);\n        emit Transfer(sender, receiver, numTokens);\n        return true;\n    }\n\n    function transferFrom(address buyer, address seller, uint numTokens, address dealer) public returns (bool) {\n        require(numTokens <= balances[buyer], \"Insufficient Balance!\"); \n        require(numTokens <= allowed[buyer][dealer], \"Insufficient Allowance!\");\n\n        balances[buyer] = balances[buyer].sub(numTokens);\n        allowed[buyer][dealer] = allowed[buyer][dealer].sub(numTokens);\n        balances[seller] = balances[seller].add(numTokens);\n        emit Transfer(buyer, seller, numTokens);\n        return true;\n    }\n\n    function approve(address sender, address dealer, uint numTokens) public returns (bool) {\n        allowed[sender][dealer] = numTokens;\n        emit Approval(sender, dealer, numTokens);\n        return true;\n    }\n\n    function allowance(address owner, address dealer) public view returns (uint) {\n        return allowed[owner][dealer];\n    }\n \n}\n\nlibrary SafeMath { \n    function sub(uint256 a, uint256 b) internal pure returns (uint256) {\n      assert(b <= a);\n      return a - b;\n    }\n    \n    function add(uint256 a, uint256 b) internal pure returns (uint256) {\n      uint256 c = a + b;\n      assert(c >= a);\n      return c;\n    }\n}",
  "sourcePath": "/Users/rahulsharma/Desktop/BlockChain-Sandbox/FrontChain/contracts/frontCoin.sol",
  "compiler": {
    "name": "solc",
    "version": "0.8.12+commit.f00d7308.Emscripten.clang"
  },
  "schemaVersion": "3.4.6",
  "updatedAt": "2022-05-05T05:07:07.120Z",
  "devdoc": {
    "kind": "dev",
    "methods": {},
    "version": 1
  },
  "userdoc": {
    "kind": "user",
    "methods": {},
    "version": 1
  }
}