{
  "contractName": "FrontChain",
  "abi": [
    {
      "inputs": [],
      "stateMutability": "nonpayable",
      "type": "constructor"
    },
    {
      "inputs": [
        {
          "internalType": "string",
          "name": "name",
          "type": "string"
        },
        {
          "internalType": "string",
          "name": "userId",
          "type": "string"
        },
        {
          "internalType": "uint256",
          "name": "balance",
          "type": "uint256"
        },
        {
          "internalType": "uint256",
          "name": "userType",
          "type": "uint256"
        }
      ],
      "name": "registerUser",
      "outputs": [],
      "stateMutability": "nonpayable",
      "type": "function"
    },
    {
      "inputs": [
        {
          "internalType": "string",
          "name": "name",
          "type": "string"
        },
        {
          "internalType": "string",
          "name": "componentId",
          "type": "string"
        },
        {
          "internalType": "uint256",
          "name": "price",
          "type": "uint256"
        }
      ],
      "name": "publishComponent",
      "outputs": [],
      "stateMutability": "nonpayable",
      "type": "function"
    },
    {
      "inputs": [],
      "name": "getAllComponents",
      "outputs": [
        {
          "components": [
            {
              "internalType": "string",
              "name": "name",
              "type": "string"
            },
            {
              "internalType": "string",
              "name": "componentId",
              "type": "string"
            },
            {
              "internalType": "uint256",
              "name": "price",
              "type": "uint256"
            }
          ],
          "internalType": "struct FrontChain.Component[]",
          "name": "",
          "type": "tuple[]"
        }
      ],
      "stateMutability": "view",
      "type": "function",
      "constant": true
    },
    {
      "inputs": [
        {
          "internalType": "string",
          "name": "componentId",
          "type": "string"
        }
      ],
      "name": "getOwnerDetails",
      "outputs": [
        {
          "internalType": "address",
          "name": "",
          "type": "address"
        },
        {
          "components": [
            {
              "internalType": "string",
              "name": "name",
              "type": "string"
            },
            {
              "internalType": "string",
              "name": "userId",
              "type": "string"
            },
            {
              "internalType": "uint256",
              "name": "balance",
              "type": "uint256"
            },
            {
              "internalType": "enum FrontChain.UserType",
              "name": "userType",
              "type": "uint8"
            }
          ],
          "internalType": "struct FrontChain.User",
          "name": "",
          "type": "tuple"
        }
      ],
      "stateMutability": "view",
      "type": "function",
      "constant": true
    },
    {
      "inputs": [
        {
          "internalType": "string",
          "name": "componentId",
          "type": "string"
        }
      ],
      "name": "getComponentDetails",
      "outputs": [
        {
          "components": [
            {
              "internalType": "string",
              "name": "name",
              "type": "string"
            },
            {
              "internalType": "string",
              "name": "componentId",
              "type": "string"
            },
            {
              "internalType": "uint256",
              "name": "price",
              "type": "uint256"
            }
          ],
          "internalType": "struct FrontChain.Component",
          "name": "",
          "type": "tuple"
        }
      ],
      "stateMutability": "view",
      "type": "function",
      "constant": true
    },
    {
      "inputs": [
        {
          "internalType": "string",
          "name": "componentId",
          "type": "string"
        }
      ],
      "name": "purchaseComponent",
      "outputs": [],
      "stateMutability": "payable",
      "type": "function",
      "payable": true
    }
  ],
  "bytecode": "0x608060405234801561001057600080fd5b5033600460006101000a81548173ffffffffffffffffffffffffffffffffffffffff021916908373ffffffffffffffffffffffffffffffffffffffff1602179055506117a0806100616000396000f3fe6080604052600436106100555760003560e01c806308fcf6e51461005a57806349a0b0b11461009857806366fadf0b146100d557806373c480a114610100578063ab08e3e41461011c578063b7dfa3f114610145575b600080fd5b34801561006657600080fd5b50610081600480360381019061007c91906110eb565b61016e565b60405161008f9291906112f7565b60405180910390f35b3480156100a457600080fd5b506100bf60048036038101906100ba91906110eb565b61048a565b6040516100cc919061137e565b60405180910390f35b3480156100e157600080fd5b506100ea6106c7565b6040516100f791906114b9565b60405180910390f35b61011a600480360381019061011591906110eb565b61092b565b005b34801561012857600080fd5b50610143600480360381019061013e9190611507565b610b49565b005b34801561015157600080fd5b5061016c60048036038101906101679190611592565b610d25565b005b6000610178610e93565b60018081111561018b5761018a611216565b5b600360003373ffffffffffffffffffffffffffffffffffffffff1673ffffffffffffffffffffffffffffffffffffffff16815260200190815260200160002060030160009054906101000a900460ff1660018111156101ed576101ec611216565b5b14806102465750600460009054906101000a900473ffffffffffffffffffffffffffffffffffffffff1673ffffffffffffffffffffffffffffffffffffffff163373ffffffffffffffffffffffffffffffffffffffff16145b61024f57600080fd5b60008360405161025f919061166d565b908152602001604051809103902060009054906101000a900473ffffffffffffffffffffffffffffffffffffffff166003600080866040516102a1919061166d565b908152602001604051809103902060009054906101000a900473ffffffffffffffffffffffffffffffffffffffff1673ffffffffffffffffffffffffffffffffffffffff1673ffffffffffffffffffffffffffffffffffffffff16815260200190815260200160002080604051806080016040529081600082018054610326906116b3565b80601f0160208091040260200160405190810160405280929190818152602001828054610352906116b3565b801561039f5780601f106103745761010080835404028352916020019161039f565b820191906000526020600020905b81548152906001019060200180831161038257829003601f168201915b505050505081526020016001820180546103b8906116b3565b80601f01602080910402602001604051908101604052809291908181526020018280546103e4906116b3565b80156104315780601f1061040657610100808354040283529160200191610431565b820191906000526020600020905b81548152906001019060200180831161041457829003601f168201915b50505050508152602001600282015481526020016003820160009054906101000a900460ff16600181111561046957610468611216565b5b600181111561047b5761047a611216565b5b81525050905091509150915091565b610492610ecd565b6001808111156104a5576104a4611216565b5b600360003373ffffffffffffffffffffffffffffffffffffffff1673ffffffffffffffffffffffffffffffffffffffff16815260200190815260200160002060030160009054906101000a900460ff16600181111561050757610506611216565b5b14806105605750600460009054906101000a900473ffffffffffffffffffffffffffffffffffffffff1673ffffffffffffffffffffffffffffffffffffffff163373ffffffffffffffffffffffffffffffffffffffff16145b61056957600080fd5b600182604051610579919061166d565b90815260200160405180910390206040518060600160405290816000820180546105a2906116b3565b80601f01602080910402602001604051908101604052809291908181526020018280546105ce906116b3565b801561061b5780601f106105f05761010080835404028352916020019161061b565b820191906000526020600020905b8154815290600101906020018083116105fe57829003601f168201915b50505050508152602001600182018054610634906116b3565b80601f0160208091040260200160405190810160405280929190818152602001828054610660906116b3565b80156106ad5780601f10610682576101008083540402835291602001916106ad565b820191906000526020600020905b81548152906001019060200180831161069057829003601f168201915b505050505081526020016002820154815250509050919050565b60606001808111156106dc576106db611216565b5b600360003373ffffffffffffffffffffffffffffffffffffffff1673ffffffffffffffffffffffffffffffffffffffff16815260200190815260200160002060030160009054906101000a900460ff16600181111561073e5761073d611216565b5b14806107975750600460009054906101000a900473ffffffffffffffffffffffffffffffffffffffff1673ffffffffffffffffffffffffffffffffffffffff163373ffffffffffffffffffffffffffffffffffffffff16145b6107a057600080fd5b6002805480602002602001604051908101604052809291908181526020016000905b8282101561092257838290600052602060002090600302016040518060600160405290816000820180546107f5906116b3565b80601f0160208091040260200160405190810160405280929190818152602001828054610821906116b3565b801561086e5780601f106108435761010080835404028352916020019161086e565b820191906000526020600020905b81548152906001019060200180831161085157829003601f168201915b50505050508152602001600182018054610887906116b3565b80601f01602080910402602001604051908101604052809291908181526020018280546108b3906116b3565b80156109005780601f106108d557610100808354040283529160200191610900565b820191906000526020600020905b8154815290600101906020018083116108e357829003601f168201915b50505050508152602001600282015481525050815260200190600101906107c2565b50505050905090565b60018060018111156109405761093f611216565b5b600360003373ffffffffffffffffffffffffffffffffffffffff1673ffffffffffffffffffffffffffffffffffffffff16815260200190815260200160002060030160009054906101000a900460ff1660018111156109a2576109a1611216565b5b146109ac57600080fd5b600080836040516109bd919061166d565b908152602001604051809103902060009054906101000a900473ffffffffffffffffffffffffffffffffffffffff1690508073ffffffffffffffffffffffffffffffffffffffff166108fc349081150290604051600060405180830381858888f19350505050158015610a34573d6000803e3d6000fd5b5034600360008373ffffffffffffffffffffffffffffffffffffffff1673ffffffffffffffffffffffffffffffffffffffff1681526020019081526020016000206002016000828254610a879190611714565b9250508190555034600360003373ffffffffffffffffffffffffffffffffffffffff1673ffffffffffffffffffffffffffffffffffffffff1681526020019081526020016000206002016000828254610ae09190611714565b9250508190555033600084604051610af8919061166d565b908152602001604051809103902060006101000a81548173ffffffffffffffffffffffffffffffffffffffff021916908373ffffffffffffffffffffffffffffffffffffffff160217905550505050565b6000806001811115610b5e57610b5d611216565b5b600360003373ffffffffffffffffffffffffffffffffffffffff1673ffffffffffffffffffffffffffffffffffffffff16815260200190815260200160002060030160009054906101000a900460ff166001811115610bc057610bbf611216565b5b14610bca57600080fd5b6000604051806060016040528086815260200185815260200184815250905060028190806001815401808255809150506001900390600052602060002090600302016000909190919091506000820151816000019080519060200190610c31929190610eee565b506020820151816001019080519060200190610c4e929190610eee565b5060408201518160020155505033600085604051610c6c919061166d565b908152602001604051809103902060006101000a81548173ffffffffffffffffffffffffffffffffffffffff021916908373ffffffffffffffffffffffffffffffffffffffff16021790555080600185604051610cc9919061166d565b90815260200160405180910390206000820151816000019080519060200190610cf3929190610eee565b506020820151816001019080519060200190610d10929190610eee565b50604082015181600201559050505050505050565b610d2d610e93565b6000821415610d7157604051806080016040528086815260200185815260200184815260200160006001811115610d6757610d66611216565b5b8152509050610da7565b6040518060800160405280868152602001858152602001848152602001600180811115610da157610da0611216565b5b81525090505b60405180602001604052806000815250805190602001208160200151805190602001201415610dd557600080fd5b80600360003373ffffffffffffffffffffffffffffffffffffffff1673ffffffffffffffffffffffffffffffffffffffff1681526020019081526020016000206000820151816000019080519060200190610e31929190610eee565b506020820151816001019080519060200190610e4e929190610eee565b506040820151816002015560608201518160030160006101000a81548160ff02191690836001811115610e8457610e83611216565b5b02179055509050505050505050565b604051806080016040528060608152602001606081526020016000815260200160006001811115610ec757610ec6611216565b5b81525090565b60405180606001604052806060815260200160608152602001600081525090565b828054610efa906116b3565b90600052602060002090601f016020900481019282610f1c5760008555610f63565b82601f10610f3557805160ff1916838001178555610f63565b82800160010185558215610f63579182015b82811115610f62578251825591602001919060010190610f47565b5b509050610f709190610f74565b5090565b5b80821115610f8d576000816000905550600101610f75565b5090565b6000604051905090565b600080fd5b600080fd5b600080fd5b600080fd5b6000601f19601f8301169050919050565b7f4e487b7100000000000000000000000000000000000000000000000000000000600052604160045260246000fd5b610ff882610faf565b810181811067ffffffffffffffff8211171561101757611016610fc0565b5b80604052505050565b600061102a610f91565b90506110368282610fef565b919050565b600067ffffffffffffffff82111561105657611055610fc0565b5b61105f82610faf565b9050602081019050919050565b82818337600083830152505050565b600061108e6110898461103b565b611020565b9050828152602081018484840111156110aa576110a9610faa565b5b6110b584828561106c565b509392505050565b600082601f8301126110d2576110d1610fa5565b5b81356110e284826020860161107b565b91505092915050565b60006020828403121561110157611100610f9b565b5b600082013567ffffffffffffffff81111561111f5761111e610fa0565b5b61112b848285016110bd565b91505092915050565b600073ffffffffffffffffffffffffffffffffffffffff82169050919050565b600061115f82611134565b9050919050565b61116f81611154565b82525050565b600081519050919050565b600082825260208201905092915050565b60005b838110156111af578082015181840152602081019050611194565b838111156111be576000848401525b50505050565b60006111cf82611175565b6111d98185611180565b93506111e9818560208601611191565b6111f281610faf565b840191505092915050565b6000819050919050565b611210816111fd565b82525050565b7f4e487b7100000000000000000000000000000000000000000000000000000000600052602160045260246000fd5b6002811061125657611255611216565b5b50565b600081905061126782611245565b919050565b600061127782611259565b9050919050565b6112878161126c565b82525050565b600060808301600083015184820360008601526112aa82826111c4565b915050602083015184820360208601526112c482826111c4565b91505060408301516112d96040860182611207565b5060608301516112ec606086018261127e565b508091505092915050565b600060408201905061130c6000830185611166565b818103602083015261131e818461128d565b90509392505050565b6000606083016000830151848203600086015261134482826111c4565b9150506020830151848203602086015261135e82826111c4565b91505060408301516113736040860182611207565b508091505092915050565b600060208201905081810360008301526113988184611327565b905092915050565b600081519050919050565b600082825260208201905092915050565b6000819050602082019050919050565b600060608301600083015184820360008601526113e982826111c4565b9150506020830151848203602086015261140382826111c4565b91505060408301516114186040860182611207565b508091505092915050565b600061142f83836113cc565b905092915050565b6000602082019050919050565b600061144f826113a0565b61145981856113ab565b93508360208202850161146b856113bc565b8060005b858110156114a757848403895281516114888582611423565b945061149383611437565b925060208a0199505060018101905061146f565b50829750879550505050505092915050565b600060208201905081810360008301526114d38184611444565b905092915050565b6114e4816111fd565b81146114ef57600080fd5b50565b600081359050611501816114db565b92915050565b6000806000606084860312156115205761151f610f9b565b5b600084013567ffffffffffffffff81111561153e5761153d610fa0565b5b61154a868287016110bd565b935050602084013567ffffffffffffffff81111561156b5761156a610fa0565b5b611577868287016110bd565b9250506040611588868287016114f2565b9150509250925092565b600080600080608085870312156115ac576115ab610f9b565b5b600085013567ffffffffffffffff8111156115ca576115c9610fa0565b5b6115d6878288016110bd565b945050602085013567ffffffffffffffff8111156115f7576115f6610fa0565b5b611603878288016110bd565b9350506040611614878288016114f2565b9250506060611625878288016114f2565b91505092959194509250565b600081905092915050565b600061164782611175565b6116518185611631565b9350611661818560208601611191565b80840191505092915050565b6000611679828461163c565b915081905092915050565b7f4e487b7100000000000000000000000000000000000000000000000000000000600052602260045260246000fd5b600060028204905060018216806116cb57607f821691505b602082108114156116df576116de611684565b5b50919050565b7f4e487b7100000000000000000000000000000000000000000000000000000000600052601160045260246000fd5b600061171f826111fd565b915061172a836111fd565b9250827fffffffffffffffffffffffffffffffffffffffffffffffffffffffffffffffff0382111561175f5761175e6116e5565b5b82820190509291505056fea26469706673582212201b66497355d2895c9b22ce45aefa1435ac0b80731543834815904744da927b8b64736f6c634300080c0033",
  "immutableReferences": {},
  "source": "// SPDX-License-Identifier: MIT\n\npragma solidity ^0.8.12;\n\ncontract FrontChain {\n    struct Component {\n        string name;\n        string componentId;\n        uint price;\n    }\n    // componentId => owner\n    mapping(string => address) componentOwner;\n    // componentId => Component : To get the component details\n    mapping(string => Component) componentDetails;\n    // all components\n    Component[] components;\n\n\n    struct User{\n        string name;\n        string userId;\n        uint balance;\n        UserType userType;\n    }\n    // address => User\n    mapping(address => User) userAddress;\n    // user type\n    enum UserType{ SELLER, BUYER}\n\n    address ceo;\n\n    string constant NULL_STRING = '';\n\n    constructor() {\n        ceo = msg.sender;\n    }\n\n    modifier onlyUserType(UserType userType){\n        require(userAddress[msg.sender].userType == userType);\n        _;\n    }\n\n    modifier onlyBuyerAndCeo{\n        require(userAddress[msg.sender].userType == UserType.BUYER || msg.sender == ceo);\n        _;\n    }\n\n    modifier onlyCeo{\n        require(msg.sender == ceo);\n        _;\n    }\n\n\n    // [WORKING] REGISTER USER\n    function registerUser(string memory name, string memory userId, uint balance, uint userType) public {\n        // create new user\n        User memory newUser;\n        if(userType == 0)\n            newUser = User(name, userId, balance, UserType.SELLER);\n        else\n            newUser = User(name, userId, balance, UserType.BUYER);\n\n        // userId should not be null | Comparing userId string with Null String\n        require(keccak256(bytes(newUser.userId)) != keccak256(bytes(NULL_STRING)));\n        // map user address to its details\n        userAddress[msg.sender] = newUser;\n    }\n\n    // [WORKING] PUBLISH COMPONENT - Modifier: onlySeller\n    function publishComponent(string memory name, string memory componentId, uint price) onlyUserType(UserType.SELLER) public{\n        Component memory newComponent = Component(name, componentId, price);\n        // push new component to all component list\n        components.push(newComponent);\n        // map owner of the new component\n        componentOwner[componentId] = msg.sender;\n        // map componentId to its details\n        componentDetails[componentId] = newComponent;\n    }\n\n    // [WORKING] GET ALL COMPONENTS - Modifier: onlyBuyer || onlyCeo\n    function getAllComponents() view onlyBuyerAndCeo public returns(Component[] memory) {\n        return components;\n    }\n\n    // [WORKING] GET COMPONENT OWNER - Modifier: onlyCeo\n    function getOwnerDetails(string memory componentId) view onlyBuyerAndCeo public returns(address, User memory) {\n        return (componentOwner[componentId], userAddress[componentOwner[componentId]]);\n    }\n\n    // [WORKING] GET COMPONENT DETAILS - Modifier: onlyBuyer || onlyCeo\n    function getComponentDetails(string memory componentId) view onlyBuyerAndCeo public returns (Component memory) {\n        return componentDetails[componentId];\n    }\n\n    // [WORKING] PURCHASE COMPONENT - Modifier: Owner can not purchase himself/herself. - onlyBuyer\n    function purchaseComponent(string memory componentId) payable onlyUserType(UserType.BUYER) public {\n        // GET OWNER ADDRESS\n        address payable ownerAddress = payable(componentOwner[componentId]);\n\n        // Pay Owner\n        ownerAddress.transfer(msg.value);\n\n        // Handle transaction balances\n        userAddress[ownerAddress].balance += msg.value; // OWNER\n        userAddress[msg.sender].balance += msg.value; // BUYER\n\n        // transfer component mapping to buyer\n        componentOwner[componentId] = msg.sender;\n    }\n}\n",
  "sourcePath": "/Users/rahulsharma/Desktop/BlockChain-Sandbox/FrontChain/contracts/FrontChain.sol",
  "compiler": {
    "name": "solc",
    "version": "0.8.12+commit.f00d7308.Emscripten.clang"
  },
  "schemaVersion": "3.4.6",
  "updatedAt": "2022-04-04T02:22:00.285Z",
  "networkType": "ethereum",
  "devdoc": {
    "kind": "dev",
    "methods": {},
    "version": 1
  },
  "userdoc": {
    "kind": "user",
    "methods": {},
    "version": 1
  }
}