{
  "contractName": "FrontChain",
  "abi": [
    {
      "inputs": [],
      "stateMutability": "nonpayable",
      "type": "constructor"
    },
    {
      "anonymous": false,
      "inputs": [
        {
          "indexed": true,
          "internalType": "address",
          "name": "from",
          "type": "address"
        },
        {
          "indexed": true,
          "internalType": "address",
          "name": "to",
          "type": "address"
        },
        {
          "indexed": false,
          "internalType": "uint256",
          "name": "amount",
          "type": "uint256"
        }
      ],
      "name": "Transfer",
      "type": "event"
    },
    {
      "inputs": [
        {
          "internalType": "string",
          "name": "name",
          "type": "string"
        },
        {
          "internalType": "string",
          "name": "userId",
          "type": "string"
        },
        {
          "internalType": "uint256",
          "name": "userType",
          "type": "uint256"
        }
      ],
      "name": "registerUser",
      "outputs": [],
      "stateMutability": "payable",
      "type": "function",
      "payable": true
    },
    {
      "inputs": [
        {
          "internalType": "string",
          "name": "name",
          "type": "string"
        },
        {
          "internalType": "string",
          "name": "componentId",
          "type": "string"
        },
        {
          "internalType": "uint256",
          "name": "price",
          "type": "uint256"
        }
      ],
      "name": "publishComponent",
      "outputs": [],
      "stateMutability": "payable",
      "type": "function",
      "payable": true
    },
    {
      "inputs": [],
      "name": "getAllComponents",
      "outputs": [
        {
          "components": [
            {
              "internalType": "string",
              "name": "name",
              "type": "string"
            },
            {
              "internalType": "string",
              "name": "componentId",
              "type": "string"
            },
            {
              "internalType": "uint256",
              "name": "price",
              "type": "uint256"
            },
            {
              "internalType": "bool",
              "name": "isSold",
              "type": "bool"
            },
            {
              "internalType": "string",
              "name": "ownerUUID",
              "type": "string"
            }
          ],
          "internalType": "struct FrontChain.Component[]",
          "name": "",
          "type": "tuple[]"
        }
      ],
      "stateMutability": "view",
      "type": "function",
      "constant": true
    },
    {
      "inputs": [
        {
          "internalType": "string",
          "name": "componentId",
          "type": "string"
        }
      ],
      "name": "getOwnerDetails",
      "outputs": [
        {
          "internalType": "address",
          "name": "",
          "type": "address"
        },
        {
          "components": [
            {
              "internalType": "string",
              "name": "name",
              "type": "string"
            },
            {
              "internalType": "string",
              "name": "userId",
              "type": "string"
            },
            {
              "internalType": "uint256",
              "name": "balance",
              "type": "uint256"
            },
            {
              "internalType": "enum FrontChain.UserType",
              "name": "userType",
              "type": "uint8"
            }
          ],
          "internalType": "struct FrontChain.User",
          "name": "",
          "type": "tuple"
        }
      ],
      "stateMutability": "view",
      "type": "function",
      "constant": true
    },
    {
      "inputs": [],
      "name": "getUser",
      "outputs": [
        {
          "components": [
            {
              "internalType": "string",
              "name": "name",
              "type": "string"
            },
            {
              "internalType": "string",
              "name": "userId",
              "type": "string"
            },
            {
              "internalType": "uint256",
              "name": "balance",
              "type": "uint256"
            },
            {
              "internalType": "enum FrontChain.UserType",
              "name": "userType",
              "type": "uint8"
            }
          ],
          "internalType": "struct FrontChain.User",
          "name": "",
          "type": "tuple"
        }
      ],
      "stateMutability": "view",
      "type": "function",
      "constant": true
    },
    {
      "inputs": [
        {
          "internalType": "string",
          "name": "componentId",
          "type": "string"
        }
      ],
      "name": "getComponentDetails",
      "outputs": [
        {
          "components": [
            {
              "internalType": "string",
              "name": "name",
              "type": "string"
            },
            {
              "internalType": "string",
              "name": "componentId",
              "type": "string"
            },
            {
              "internalType": "uint256",
              "name": "price",
              "type": "uint256"
            },
            {
              "internalType": "bool",
              "name": "isSold",
              "type": "bool"
            },
            {
              "internalType": "string",
              "name": "ownerUUID",
              "type": "string"
            }
          ],
          "internalType": "struct FrontChain.Component",
          "name": "",
          "type": "tuple"
        }
      ],
      "stateMutability": "view",
      "type": "function",
      "constant": true
    },
    {
      "inputs": [
        {
          "internalType": "string",
          "name": "componentId",
          "type": "string"
        }
      ],
      "name": "purchaseComponent",
      "outputs": [],
      "stateMutability": "payable",
      "type": "function",
      "payable": true
    }
  ],
  "bytecode": "0x608060405234801561001057600080fd5b5033600460006101000a81548173ffffffffffffffffffffffffffffffffffffffff021916908373ffffffffffffffffffffffffffffffffffffffff160217905550611fe5806100616000396000f3fe6080604052600436106100705760003560e01c806373c480a11161004e57806373c480a11461011b578063832880e714610137578063ab08e3e414610162578063f209e74f1461017e57610070565b806308fcf6e51461007557806349a0b0b1146100b357806366fadf0b146100f0575b600080fd5b34801561008157600080fd5b5061009c600480360381019061009791906117ac565b61019a565b6040516100aa9291906119b8565b60405180910390f35b3480156100bf57600080fd5b506100da60048036038101906100d591906117ac565b6104b6565b6040516100e79190611a87565b60405180910390f35b3480156100fc57600080fd5b506101056107a0565b6040516101129190611bef565b60405180910390f35b610135600480360381019061013091906117ac565b6109da565b005b34801561014357600080fd5b5061014c610e5b565b6040516101599190611c11565b60405180910390f35b61017c60048036038101906101779190611c5f565b61101b565b005b61019860048036038101906101939190611c5f565b61134a565b005b60006101a46114b7565b6001808111156101b7576101b66118d7565b5b600360003373ffffffffffffffffffffffffffffffffffffffff1673ffffffffffffffffffffffffffffffffffffffff16815260200190815260200160002060030160009054906101000a900460ff166001811115610219576102186118d7565b5b14806102725750600460009054906101000a900473ffffffffffffffffffffffffffffffffffffffff1673ffffffffffffffffffffffffffffffffffffffff163373ffffffffffffffffffffffffffffffffffffffff16145b61027b57600080fd5b60008360405161028b9190611d26565b908152602001604051809103902060009054906101000a900473ffffffffffffffffffffffffffffffffffffffff166003600080866040516102cd9190611d26565b908152602001604051809103902060009054906101000a900473ffffffffffffffffffffffffffffffffffffffff1673ffffffffffffffffffffffffffffffffffffffff1673ffffffffffffffffffffffffffffffffffffffff1681526020019081526020016000208060405180608001604052908160008201805461035290611d6c565b80601f016020809104026020016040519081016040528092919081815260200182805461037e90611d6c565b80156103cb5780601f106103a0576101008083540402835291602001916103cb565b820191906000526020600020905b8154815290600101906020018083116103ae57829003601f168201915b505050505081526020016001820180546103e490611d6c565b80601f016020809104026020016040519081016040528092919081815260200182805461041090611d6c565b801561045d5780601f106104325761010080835404028352916020019161045d565b820191906000526020600020905b81548152906001019060200180831161044057829003601f168201915b50505050508152602001600282015481526020016003820160009054906101000a900460ff166001811115610495576104946118d7565b5b60018111156104a7576104a66118d7565b5b81525050905091509150915091565b6104be6114f1565b6001808111156104d1576104d06118d7565b5b600360003373ffffffffffffffffffffffffffffffffffffffff1673ffffffffffffffffffffffffffffffffffffffff16815260200190815260200160002060030160009054906101000a900460ff166001811115610533576105326118d7565b5b148061058c5750600460009054906101000a900473ffffffffffffffffffffffffffffffffffffffff1673ffffffffffffffffffffffffffffffffffffffff163373ffffffffffffffffffffffffffffffffffffffff16145b61059557600080fd5b6001826040516105a59190611d26565b90815260200160405180910390206040518060a00160405290816000820180546105ce90611d6c565b80601f01602080910402602001604051908101604052809291908181526020018280546105fa90611d6c565b80156106475780601f1061061c57610100808354040283529160200191610647565b820191906000526020600020905b81548152906001019060200180831161062a57829003601f168201915b5050505050815260200160018201805461066090611d6c565b80601f016020809104026020016040519081016040528092919081815260200182805461068c90611d6c565b80156106d95780601f106106ae576101008083540402835291602001916106d9565b820191906000526020600020905b8154815290600101906020018083116106bc57829003601f168201915b50505050508152602001600282015481526020016003820160009054906101000a900460ff1615151515815260200160048201805461071790611d6c565b80601f016020809104026020016040519081016040528092919081815260200182805461074390611d6c565b80156107905780601f1061076557610100808354040283529160200191610790565b820191906000526020600020905b81548152906001019060200180831161077357829003601f168201915b5050505050815250509050919050565b60606002805480602002602001604051908101604052809291908181526020016000905b828210156109d157838290600052602060002090600502016040518060a00160405290816000820180546107f790611d6c565b80601f016020809104026020016040519081016040528092919081815260200182805461082390611d6c565b80156108705780601f1061084557610100808354040283529160200191610870565b820191906000526020600020905b81548152906001019060200180831161085357829003601f168201915b5050505050815260200160018201805461088990611d6c565b80601f01602080910402602001604051908101604052809291908181526020018280546108b590611d6c565b80156109025780601f106108d757610100808354040283529160200191610902565b820191906000526020600020905b8154815290600101906020018083116108e557829003601f168201915b50505050508152602001600282015481526020016003820160009054906101000a900460ff1615151515815260200160048201805461094090611d6c565b80601f016020809104026020016040519081016040528092919081815260200182805461096c90611d6c565b80156109b95780601f1061098e576101008083540402835291602001916109b9565b820191906000526020600020905b81548152906001019060200180831161099c57829003601f168201915b505050505081525050815260200190600101906107c4565b50505050905090565b60018060018111156109ef576109ee6118d7565b5b600360003373ffffffffffffffffffffffffffffffffffffffff1673ffffffffffffffffffffffffffffffffffffffff16815260200190815260200160002060030160009054906101000a900460ff166001811115610a5157610a506118d7565b5b14610a5b57600080fd5b60008083604051610a6c9190611d26565b908152602001604051809103902060009054906101000a900473ffffffffffffffffffffffffffffffffffffffff16905060018084604051610aae9190611d26565b908152602001604051809103902060030160006101000a81548160ff021916908315150217905550600360003373ffffffffffffffffffffffffffffffffffffffff1673ffffffffffffffffffffffffffffffffffffffff168152602001908152602001600020600101600184604051610b289190611d26565b9081526020016040518091039020600401908054610b4590611d6c565b610b50929190611522565b5060005b600280549050811015610c7e57838051906020012060028281548110610b7d57610b7c611d9e565b5b9060005260206000209060050201600101604051610b9b9190611e6c565b60405180910390201415610c6b57600160028281548110610bbf57610bbe611d9e565b5b906000526020600020906005020160030160006101000a81548160ff021916908315150217905550600360003373ffffffffffffffffffffffffffffffffffffffff1673ffffffffffffffffffffffffffffffffffffffff16815260200190815260200160002060010160028281548110610c3d57610c3c611d9e565b5b9060005260206000209060050201600401908054610c5a90611d6c565b610c65929190611522565b50610c7e565b8080610c7690611eb2565b915050610b54565b50600183604051610c8f9190611d26565b908152602001604051809103902060020154600360008373ffffffffffffffffffffffffffffffffffffffff1673ffffffffffffffffffffffffffffffffffffffff1681526020019081526020016000206002016000828254610cf29190611efb565b92505081905550600183604051610d099190611d26565b908152602001604051809103902060020154600360003373ffffffffffffffffffffffffffffffffffffffff1673ffffffffffffffffffffffffffffffffffffffff1681526020019081526020016000206002016000828254610d6c9190611f51565b9250508190555033600084604051610d849190611d26565b908152602001604051809103902060006101000a81548173ffffffffffffffffffffffffffffffffffffffff021916908373ffffffffffffffffffffffffffffffffffffffff1602179055508073ffffffffffffffffffffffffffffffffffffffff163373ffffffffffffffffffffffffffffffffffffffff167fddf252ad1be2c89b69c2b068fc378daa952ba7f163c4a11628f55a4df523b3ef600186604051610e2f9190611d26565b908152602001604051809103902060020154604051610e4e9190611f94565b60405180910390a3505050565b610e636114b7565b600360003373ffffffffffffffffffffffffffffffffffffffff1673ffffffffffffffffffffffffffffffffffffffff168152602001908152602001600020604051806080016040529081600082018054610ebd90611d6c565b80601f0160208091040260200160405190810160405280929190818152602001828054610ee990611d6c565b8015610f365780601f10610f0b57610100808354040283529160200191610f36565b820191906000526020600020905b815481529060010190602001808311610f1957829003601f168201915b50505050508152602001600182018054610f4f90611d6c565b80601f0160208091040260200160405190810160405280929190818152602001828054610f7b90611d6c565b8015610fc85780601f10610f9d57610100808354040283529160200191610fc8565b820191906000526020600020905b815481529060010190602001808311610fab57829003601f168201915b50505050508152602001600282015481526020016003820160009054906101000a900460ff16600181111561100057610fff6118d7565b5b6001811115611012576110116118d7565b5b81525050905090565b60008060018111156110305761102f6118d7565b5b600360003373ffffffffffffffffffffffffffffffffffffffff1673ffffffffffffffffffffffffffffffffffffffff16815260200190815260200160002060030160009054906101000a900460ff166001811115611092576110916118d7565b5b1461109c57600080fd5b60006040518060a00160405280868152602001858152602001848152602001600015158152602001600360003373ffffffffffffffffffffffffffffffffffffffff1673ffffffffffffffffffffffffffffffffffffffff168152602001908152602001600020600101805461111190611d6c565b80601f016020809104026020016040519081016040528092919081815260200182805461113d90611d6c565b801561118a5780601f1061115f5761010080835404028352916020019161118a565b820191906000526020600020905b81548152906001019060200180831161116d57829003601f168201915b50505050508152509050600281908060018154018082558091505060019003906000526020600020906005020160009091909190915060008201518160000190805190602001906111dc9291906115af565b5060208201518160010190805190602001906111f99291906115af565b506040820151816002015560608201518160030160006101000a81548160ff02191690831515021790555060808201518160040190805190602001906112409291906115af565b505050336000856040516112549190611d26565b908152602001604051809103902060006101000a81548173ffffffffffffffffffffffffffffffffffffffff021916908373ffffffffffffffffffffffffffffffffffffffff160217905550806001856040516112b19190611d26565b908152602001604051809103902060008201518160000190805190602001906112db9291906115af565b5060208201518160010190805190602001906112f89291906115af565b506040820151816002015560608201518160030160006101000a81548160ff021916908315150217905550608082015181600401908051906020019061133f9291906115af565b509050505050505050565b6113526114b7565b60008214156113965760405180608001604052808581526020018481526020013481526020016000600181111561138c5761138b6118d7565b5b81525090506113cc565b60405180608001604052808581526020018481526020013481526020016001808111156113c6576113c56118d7565b5b81525090505b604051806020016040528060008152508051906020012081602001518051906020012014156113fa57600080fd5b80600360003373ffffffffffffffffffffffffffffffffffffffff1673ffffffffffffffffffffffffffffffffffffffff16815260200190815260200160002060008201518160000190805190602001906114569291906115af565b5060208201518160010190805190602001906114739291906115af565b506040820151816002015560608201518160030160006101000a81548160ff021916908360018111156114a9576114a86118d7565b5b021790555090505050505050565b6040518060800160405280606081526020016060815260200160008152602001600060018111156114eb576114ea6118d7565b5b81525090565b6040518060a00160405280606081526020016060815260200160008152602001600015158152602001606081525090565b82805461152e90611d6c565b90600052602060002090601f016020900481019282611550576000855561159e565b82601f10611561578054855561159e565b8280016001018555821561159e57600052602060002091601f016020900482015b8281111561159d578254825591600101919060010190611582565b5b5090506115ab9190611635565b5090565b8280546115bb90611d6c565b90600052602060002090601f0160209004810192826115dd5760008555611624565b82601f106115f657805160ff1916838001178555611624565b82800160010185558215611624579182015b82811115611623578251825591602001919060010190611608565b5b5090506116319190611635565b5090565b5b8082111561164e576000816000905550600101611636565b5090565b6000604051905090565b600080fd5b600080fd5b600080fd5b600080fd5b6000601f19601f8301169050919050565b7f4e487b7100000000000000000000000000000000000000000000000000000000600052604160045260246000fd5b6116b982611670565b810181811067ffffffffffffffff821117156116d8576116d7611681565b5b80604052505050565b60006116eb611652565b90506116f782826116b0565b919050565b600067ffffffffffffffff82111561171757611716611681565b5b61172082611670565b9050602081019050919050565b82818337600083830152505050565b600061174f61174a846116fc565b6116e1565b90508281526020810184848401111561176b5761176a61166b565b5b61177684828561172d565b509392505050565b600082601f83011261179357611792611666565b5b81356117a384826020860161173c565b91505092915050565b6000602082840312156117c2576117c161165c565b5b600082013567ffffffffffffffff8111156117e0576117df611661565b5b6117ec8482850161177e565b91505092915050565b600073ffffffffffffffffffffffffffffffffffffffff82169050919050565b6000611820826117f5565b9050919050565b61183081611815565b82525050565b600081519050919050565b600082825260208201905092915050565b60005b83811015611870578082015181840152602081019050611855565b8381111561187f576000848401525b50505050565b600061189082611836565b61189a8185611841565b93506118aa818560208601611852565b6118b381611670565b840191505092915050565b6000819050919050565b6118d1816118be565b82525050565b7f4e487b7100000000000000000000000000000000000000000000000000000000600052602160045260246000fd5b60028110611917576119166118d7565b5b50565b600081905061192882611906565b919050565b60006119388261191a565b9050919050565b6119488161192d565b82525050565b6000608083016000830151848203600086015261196b8282611885565b915050602083015184820360208601526119858282611885565b915050604083015161199a60408601826118c8565b5060608301516119ad606086018261193f565b508091505092915050565b60006040820190506119cd6000830185611827565b81810360208301526119df818461194e565b90509392505050565b60008115159050919050565b6119fd816119e8565b82525050565b600060a0830160008301518482036000860152611a208282611885565b91505060208301518482036020860152611a3a8282611885565b9150506040830151611a4f60408601826118c8565b506060830151611a6260608601826119f4565b5060808301518482036080860152611a7a8282611885565b9150508091505092915050565b60006020820190508181036000830152611aa18184611a03565b905092915050565b600081519050919050565b600082825260208201905092915050565b6000819050602082019050919050565b600060a0830160008301518482036000860152611af28282611885565b91505060208301518482036020860152611b0c8282611885565b9150506040830151611b2160408601826118c8565b506060830151611b3460608601826119f4565b5060808301518482036080860152611b4c8282611885565b9150508091505092915050565b6000611b658383611ad5565b905092915050565b6000602082019050919050565b6000611b8582611aa9565b611b8f8185611ab4565b935083602082028501611ba185611ac5565b8060005b85811015611bdd5784840389528151611bbe8582611b59565b9450611bc983611b6d565b925060208a01995050600181019050611ba5565b50829750879550505050505092915050565b60006020820190508181036000830152611c098184611b7a565b905092915050565b60006020820190508181036000830152611c2b818461194e565b905092915050565b611c3c816118be565b8114611c4757600080fd5b50565b600081359050611c5981611c33565b92915050565b600080600060608486031215611c7857611c7761165c565b5b600084013567ffffffffffffffff811115611c9657611c95611661565b5b611ca28682870161177e565b935050602084013567ffffffffffffffff811115611cc357611cc2611661565b5b611ccf8682870161177e565b9250506040611ce086828701611c4a565b9150509250925092565b600081905092915050565b6000611d0082611836565b611d0a8185611cea565b9350611d1a818560208601611852565b80840191505092915050565b6000611d328284611cf5565b915081905092915050565b7f4e487b7100000000000000000000000000000000000000000000000000000000600052602260045260246000fd5b60006002820490506001821680611d8457607f821691505b60208210811415611d9857611d97611d3d565b5b50919050565b7f4e487b7100000000000000000000000000000000000000000000000000000000600052603260045260246000fd5b600081905092915050565b60008190508160005260206000209050919050565b60008154611dfa81611d6c565b611e048186611dcd565b94506001821660008114611e1f5760018114611e3057611e63565b60ff19831686528186019350611e63565b611e3985611dd8565b60005b83811015611e5b57815481890152600182019150602081019050611e3c565b838801955050505b50505092915050565b6000611e788284611ded565b915081905092915050565b7f4e487b7100000000000000000000000000000000000000000000000000000000600052601160045260246000fd5b6000611ebd826118be565b91507fffffffffffffffffffffffffffffffffffffffffffffffffffffffffffffffff821415611ef057611eef611e83565b5b600182019050919050565b6000611f06826118be565b9150611f11836118be565b9250827fffffffffffffffffffffffffffffffffffffffffffffffffffffffffffffffff03821115611f4657611f45611e83565b5b828201905092915050565b6000611f5c826118be565b9150611f67836118be565b925082821015611f7a57611f79611e83565b5b828203905092915050565b611f8e816118be565b82525050565b6000602082019050611fa96000830184611f85565b9291505056fea26469706673582212204c8aae42343ea38c2a26844b64ec2878c25ca6bea5a3851391e399713a353acb64736f6c634300080c0033",
  "immutableReferences": {},
  "source": "// SPDX-License-Identifier: MIT\n\npragma solidity ^0.8.12;\n\ncontract FrontChain {\n    struct Component {\n        string name;\n        string componentId;\n        uint price;\n        bool isSold;\n        string ownerUUID;\n    }\n    // componentId => owner\n    mapping(string => address) componentOwner;\n    // componentId => Component : To get the component details\n    mapping(string => Component) componentDetails;\n    // all components\n    Component[] components;\n\n\n    struct User{\n        string name;\n        string userId;\n        uint balance;\n        UserType userType;\n    }\n    // address => User\n    mapping(address => User) userAddress;\n    // user type\n    enum UserType{ SELLER, BUYER}\n\n    address ceo;\n\n    string constant NULL_STRING = '';\n\n    event Transfer(address indexed from, address indexed to, uint amount);\n\n\n    constructor() {\n        ceo = msg.sender;\n    }\n\n    modifier onlyUserType(UserType userType){\n        require(userAddress[msg.sender].userType == userType);\n        _;\n    }\n\n    modifier onlyBuyerAndCeo{\n        require(userAddress[msg.sender].userType == UserType.BUYER || msg.sender == ceo);\n        _;\n    }\n\n    modifier onlyCeo{\n        require(msg.sender == ceo);\n        _;\n    }\n\n\n    // [WORKING] REGISTER USER\n    function registerUser(string memory name, string memory userId, uint userType) payable public {\n        // create new user\n        User memory newUser;\n        if(userType == 0)\n            newUser = User(name, userId, msg.value, UserType.SELLER);\n        else\n            newUser = User(name, userId, msg.value, UserType.BUYER);\n\n        // userId should not be null | Comparing userId string with Null String\n        require(keccak256(bytes(newUser.userId)) != keccak256(bytes(NULL_STRING)));\n        // map user address to its details\n        userAddress[msg.sender] = newUser;\n    }\n\n    // [WORKING] PUBLISH COMPONENT - Modifier: onlySeller\n    function publishComponent(string memory name, string memory componentId, uint price) onlyUserType(UserType.SELLER) payable public{\n        Component memory newComponent = Component(name, componentId, price, false, userAddress[msg.sender].userId);\n        // push new component to all component list\n        components.push(newComponent);\n        // map owner of the new component\n        componentOwner[componentId] = msg.sender;\n        // map componentId to its details\n        componentDetails[componentId] = newComponent;\n    }\n\n    // [WORKING] GET ALL COMPONENTS\n    function getAllComponents() view public returns(Component[] memory) {\n        return components;\n    }\n\n    // [WORKING] GET COMPONENT OWNER - Modifier: onlyCeo\n    function getOwnerDetails(string memory componentId) view onlyBuyerAndCeo public returns(address, User memory) {\n        return (componentOwner[componentId], userAddress[componentOwner[componentId]]);\n    }\n\n    // GET ANY USER from Registered Users\n    function getUser() view public returns (User memory){\n        return userAddress[msg.sender];\n    }\n\n    // [WORKING] GET COMPONENT DETAILS - Modifier: onlyBuyer || onlyCeo\n    function getComponentDetails(string memory componentId) view onlyBuyerAndCeo public returns (Component memory) {\n        return componentDetails[componentId];\n    }\n\n    // [WORKING] PURCHASE COMPONENT - Modifier: Owner can not purchase himself/herself. - onlyBuyer\n    function purchaseComponent(string memory componentId) payable onlyUserType(UserType.BUYER) public {\n        // GET OWNER ADDRESS\n        address payable ownerAddress = payable(componentOwner[componentId]);\n\n        // sell the component\n        componentDetails[componentId].isSold = true;\n        componentDetails[componentId].ownerUUID = userAddress[msg.sender].userId;\n\n        // change components list\n        for(uint i=0; i<components.length; i++){\n            if(keccak256(bytes(components[i].componentId)) == keccak256(bytes(componentId))){\n                // found\n                components[i].isSold = true;\n                components[i].ownerUUID = userAddress[msg.sender].userId;\n                break;\n            }\n        }\n\n         // // Handle transaction balances\n        userAddress[ownerAddress].balance += componentDetails[componentId].price; // OWNER\n        userAddress[msg.sender].balance -= componentDetails[componentId].price; // BUYER\n\n        // transfer component mapping to buyer\n        componentOwner[componentId] = msg.sender;\n\n        // Pay Owner\n        // ownerAddress.transfer(componentDetails[componentId].price);\n        emit Transfer(msg.sender, ownerAddress,componentDetails[componentId].price);\n\n       \n    }\n}\n",
  "sourcePath": "/Users/rahulsharma/Desktop/BlockChain-Sandbox/FrontChain/contracts/FrontChain.sol",
  "compiler": {
    "name": "solc",
    "version": "0.8.12+commit.f00d7308.Emscripten.clang"
  },
  "schemaVersion": "3.4.6",
  "updatedAt": "2022-04-11T05:54:35.674Z",
  "networkType": "ethereum",
  "devdoc": {
    "kind": "dev",
    "methods": {},
    "version": 1
  },
  "userdoc": {
    "kind": "user",
    "methods": {},
    "version": 1
  }
}