{
  "contractName": "FrontChain",
  "abi": [
    {
      "inputs": [],
      "stateMutability": "nonpayable",
      "type": "constructor"
    },
    {
      "anonymous": false,
      "inputs": [
        {
          "indexed": true,
          "internalType": "address",
          "name": "from",
          "type": "address"
        },
        {
          "indexed": true,
          "internalType": "address",
          "name": "to",
          "type": "address"
        },
        {
          "indexed": false,
          "internalType": "uint256",
          "name": "amount",
          "type": "uint256"
        }
      ],
      "name": "Transfer",
      "type": "event"
    },
    {
      "inputs": [
        {
          "internalType": "string",
          "name": "name",
          "type": "string"
        },
        {
          "internalType": "string",
          "name": "userId",
          "type": "string"
        },
        {
          "internalType": "uint256",
          "name": "userType",
          "type": "uint256"
        }
      ],
      "name": "registerUser",
      "outputs": [],
      "stateMutability": "payable",
      "type": "function",
      "payable": true
    },
    {
      "inputs": [
        {
          "internalType": "string",
          "name": "name",
          "type": "string"
        },
        {
          "internalType": "string",
          "name": "componentId",
          "type": "string"
        },
        {
          "internalType": "uint256",
          "name": "price",
          "type": "uint256"
        },
        {
          "internalType": "string",
          "name": "description",
          "type": "string"
        }
      ],
      "name": "publishComponent",
      "outputs": [],
      "stateMutability": "payable",
      "type": "function",
      "payable": true
    },
    {
      "inputs": [],
      "name": "getAllComponents",
      "outputs": [
        {
          "components": [
            {
              "internalType": "string",
              "name": "name",
              "type": "string"
            },
            {
              "internalType": "string",
              "name": "componentId",
              "type": "string"
            },
            {
              "internalType": "uint256",
              "name": "price",
              "type": "uint256"
            },
            {
              "internalType": "bool",
              "name": "isSold",
              "type": "bool"
            },
            {
              "internalType": "string",
              "name": "ownerUUID",
              "type": "string"
            },
            {
              "internalType": "string",
              "name": "description",
              "type": "string"
            }
          ],
          "internalType": "struct FrontChain.Component[]",
          "name": "",
          "type": "tuple[]"
        }
      ],
      "stateMutability": "view",
      "type": "function",
      "constant": true
    },
    {
      "inputs": [
        {
          "internalType": "string",
          "name": "componentId",
          "type": "string"
        }
      ],
      "name": "getOwnerDetails",
      "outputs": [
        {
          "internalType": "address",
          "name": "",
          "type": "address"
        },
        {
          "components": [
            {
              "internalType": "string",
              "name": "name",
              "type": "string"
            },
            {
              "internalType": "string",
              "name": "userId",
              "type": "string"
            },
            {
              "internalType": "uint256",
              "name": "balance",
              "type": "uint256"
            },
            {
              "internalType": "enum FrontChain.UserType",
              "name": "userType",
              "type": "uint8"
            }
          ],
          "internalType": "struct FrontChain.User",
          "name": "",
          "type": "tuple"
        }
      ],
      "stateMutability": "view",
      "type": "function",
      "constant": true
    },
    {
      "inputs": [],
      "name": "getUser",
      "outputs": [
        {
          "components": [
            {
              "internalType": "string",
              "name": "name",
              "type": "string"
            },
            {
              "internalType": "string",
              "name": "userId",
              "type": "string"
            },
            {
              "internalType": "uint256",
              "name": "balance",
              "type": "uint256"
            },
            {
              "internalType": "enum FrontChain.UserType",
              "name": "userType",
              "type": "uint8"
            }
          ],
          "internalType": "struct FrontChain.User",
          "name": "",
          "type": "tuple"
        }
      ],
      "stateMutability": "view",
      "type": "function",
      "constant": true
    },
    {
      "inputs": [
        {
          "internalType": "string",
          "name": "componentId",
          "type": "string"
        }
      ],
      "name": "getComponentDetails",
      "outputs": [
        {
          "components": [
            {
              "internalType": "string",
              "name": "name",
              "type": "string"
            },
            {
              "internalType": "string",
              "name": "componentId",
              "type": "string"
            },
            {
              "internalType": "uint256",
              "name": "price",
              "type": "uint256"
            },
            {
              "internalType": "bool",
              "name": "isSold",
              "type": "bool"
            },
            {
              "internalType": "string",
              "name": "ownerUUID",
              "type": "string"
            },
            {
              "internalType": "string",
              "name": "description",
              "type": "string"
            }
          ],
          "internalType": "struct FrontChain.Component",
          "name": "",
          "type": "tuple"
        }
      ],
      "stateMutability": "view",
      "type": "function",
      "constant": true
    },
    {
      "inputs": [
        {
          "internalType": "string",
          "name": "description",
          "type": "string"
        },
        {
          "internalType": "string",
          "name": "reqId",
          "type": "string"
        },
        {
          "internalType": "string",
          "name": "timestamp",
          "type": "string"
        }
      ],
      "name": "addRequest",
      "outputs": [],
      "stateMutability": "nonpayable",
      "type": "function"
    },
    {
      "inputs": [],
      "name": "getAllRequests",
      "outputs": [
        {
          "components": [
            {
              "internalType": "string",
              "name": "description",
              "type": "string"
            },
            {
              "internalType": "string",
              "name": "reqId",
              "type": "string"
            },
            {
              "internalType": "string",
              "name": "timestamp",
              "type": "string"
            }
          ],
          "internalType": "struct FrontChain.Request[]",
          "name": "",
          "type": "tuple[]"
        }
      ],
      "stateMutability": "view",
      "type": "function",
      "constant": true
    },
    {
      "inputs": [
        {
          "internalType": "string",
          "name": "componentId",
          "type": "string"
        }
      ],
      "name": "purchaseComponent",
      "outputs": [],
      "stateMutability": "payable",
      "type": "function",
      "payable": true
    }
  ],
  "bytecode": "0x608060405234801561001057600080fd5b5033600660006101000a81548173ffffffffffffffffffffffffffffffffffffffff021916908373ffffffffffffffffffffffffffffffffffffffff1602179055506126c7806100616000396000f3fe6080604052600436106100865760003560e01c8063832880e711610059578063832880e71461014d578063b27d118414610178578063b63ebba0146101a1578063f209e74f146101bd578063fb1a002a146101d957610086565b806308fcf6e51461008b57806349a0b0b1146100c957806366fadf0b1461010657806373c480a114610131575b600080fd5b34801561009757600080fd5b506100b260048036038101906100ad9190611b39565b610204565b6040516100c0929190611d45565b60405180910390f35b3480156100d557600080fd5b506100f060048036038101906100eb9190611b39565b610449565b6040516100fd9190611e2e565b60405180910390f35b34801561011257600080fd5b5061011b6106ee565b6040516101289190611fb0565b60405180910390f35b61014b60048036038101906101469190611b39565b6109ba565b005b34801561015957600080fd5b50610162610ee1565b60405161016f9190611fd2565b60405180910390f35b34801561018457600080fd5b5061019f600480360381019061019a9190611ff4565b6110a1565b005b6101bb60048036038101906101b691906120c7565b61114b565b005b6101d760048036038101906101d29190612182565b6114bb565b005b3480156101e557600080fd5b506101ee611628565b6040516101fb919061232d565b60405180910390f35b600061020e61183d565b60008360405161021e919061238b565b908152602001604051809103902060009054906101000a900473ffffffffffffffffffffffffffffffffffffffff16600360008086604051610260919061238b565b908152602001604051809103902060009054906101000a900473ffffffffffffffffffffffffffffffffffffffff1673ffffffffffffffffffffffffffffffffffffffff1673ffffffffffffffffffffffffffffffffffffffff168152602001908152602001600020806040518060800160405290816000820180546102e5906123d1565b80601f0160208091040260200160405190810160405280929190818152602001828054610311906123d1565b801561035e5780601f106103335761010080835404028352916020019161035e565b820191906000526020600020905b81548152906001019060200180831161034157829003601f168201915b50505050508152602001600182018054610377906123d1565b80601f01602080910402602001604051908101604052809291908181526020018280546103a3906123d1565b80156103f05780601f106103c5576101008083540402835291602001916103f0565b820191906000526020600020905b8154815290600101906020018083116103d357829003601f168201915b50505050508152602001600282015481526020016003820160009054906101000a900460ff16600181111561042857610427611c64565b5b600181111561043a57610439611c64565b5b81525050905091509150915091565b610451611877565b600182604051610461919061238b565b90815260200160405180910390206040518060c001604052908160008201805461048a906123d1565b80601f01602080910402602001604051908101604052809291908181526020018280546104b6906123d1565b80156105035780601f106104d857610100808354040283529160200191610503565b820191906000526020600020905b8154815290600101906020018083116104e657829003601f168201915b5050505050815260200160018201805461051c906123d1565b80601f0160208091040260200160405190810160405280929190818152602001828054610548906123d1565b80156105955780601f1061056a57610100808354040283529160200191610595565b820191906000526020600020905b81548152906001019060200180831161057857829003601f168201915b50505050508152602001600282015481526020016003820160009054906101000a900460ff161515151581526020016004820180546105d3906123d1565b80601f01602080910402602001604051908101604052809291908181526020018280546105ff906123d1565b801561064c5780601f106106215761010080835404028352916020019161064c565b820191906000526020600020905b81548152906001019060200180831161062f57829003601f168201915b50505050508152602001600582018054610665906123d1565b80601f0160208091040260200160405190810160405280929190818152602001828054610691906123d1565b80156106de5780601f106106b3576101008083540402835291602001916106de565b820191906000526020600020905b8154815290600101906020018083116106c157829003601f168201915b5050505050815250509050919050565b60606002805480602002602001604051908101604052809291908181526020016000905b828210156109b157838290600052602060002090600602016040518060c0016040529081600082018054610745906123d1565b80601f0160208091040260200160405190810160405280929190818152602001828054610771906123d1565b80156107be5780601f10610793576101008083540402835291602001916107be565b820191906000526020600020905b8154815290600101906020018083116107a157829003601f168201915b505050505081526020016001820180546107d7906123d1565b80601f0160208091040260200160405190810160405280929190818152602001828054610803906123d1565b80156108505780601f1061082557610100808354040283529160200191610850565b820191906000526020600020905b81548152906001019060200180831161083357829003601f168201915b50505050508152602001600282015481526020016003820160009054906101000a900460ff1615151515815260200160048201805461088e906123d1565b80601f01602080910402602001604051908101604052809291908181526020018280546108ba906123d1565b80156109075780601f106108dc57610100808354040283529160200191610907565b820191906000526020600020905b8154815290600101906020018083116108ea57829003601f168201915b50505050508152602001600582018054610920906123d1565b80601f016020809104026020016040519081016040528092919081815260200182805461094c906123d1565b80156109995780601f1061096e57610100808354040283529160200191610999565b820191906000526020600020905b81548152906001019060200180831161097c57829003601f168201915b50505050508152505081526020019060010190610712565b50505050905090565b60018060018111156109cf576109ce611c64565b5b600360003373ffffffffffffffffffffffffffffffffffffffff1673ffffffffffffffffffffffffffffffffffffffff16815260200190815260200160002060030160009054906101000a900460ff166001811115610a3157610a30611c64565b5b14610a3b57600080fd5b600182604051610a4b919061238b565b908152602001604051809103902060020154600360003373ffffffffffffffffffffffffffffffffffffffff1673ffffffffffffffffffffffffffffffffffffffff168152602001908152602001600020600201541015610ae1576040517f08c379a0000000000000000000000000000000000000000000000000000000008152600401610ad890612460565b60405180910390fd5b60008083604051610af2919061238b565b908152602001604051809103902060009054906101000a900473ffffffffffffffffffffffffffffffffffffffff16905060018084604051610b34919061238b565b908152602001604051809103902060030160006101000a81548160ff021916908315150217905550600360003373ffffffffffffffffffffffffffffffffffffffff1673ffffffffffffffffffffffffffffffffffffffff168152602001908152602001600020600101600184604051610bae919061238b565b9081526020016040518091039020600401908054610bcb906123d1565b610bd69291906118af565b5060005b600280549050811015610d0457838051906020012060028281548110610c0357610c02612480565b5b9060005260206000209060060201600101604051610c21919061254e565b60405180910390201415610cf157600160028281548110610c4557610c44612480565b5b906000526020600020906006020160030160006101000a81548160ff021916908315150217905550600360003373ffffffffffffffffffffffffffffffffffffffff1673ffffffffffffffffffffffffffffffffffffffff16815260200190815260200160002060010160028281548110610cc357610cc2612480565b5b9060005260206000209060060201600401908054610ce0906123d1565b610ceb9291906118af565b50610d04565b8080610cfc90612594565b915050610bda565b50600183604051610d15919061238b565b908152602001604051809103902060020154600360008373ffffffffffffffffffffffffffffffffffffffff1673ffffffffffffffffffffffffffffffffffffffff1681526020019081526020016000206002016000828254610d7891906125dd565b92505081905550600183604051610d8f919061238b565b908152602001604051809103902060020154600360003373ffffffffffffffffffffffffffffffffffffffff1673ffffffffffffffffffffffffffffffffffffffff1681526020019081526020016000206002016000828254610df29190612633565b9250508190555033600084604051610e0a919061238b565b908152602001604051809103902060006101000a81548173ffffffffffffffffffffffffffffffffffffffff021916908373ffffffffffffffffffffffffffffffffffffffff1602179055508073ffffffffffffffffffffffffffffffffffffffff163373ffffffffffffffffffffffffffffffffffffffff167fddf252ad1be2c89b69c2b068fc378daa952ba7f163c4a11628f55a4df523b3ef600186604051610eb5919061238b565b908152602001604051809103902060020154604051610ed49190612676565b60405180910390a3505050565b610ee961183d565b600360003373ffffffffffffffffffffffffffffffffffffffff1673ffffffffffffffffffffffffffffffffffffffff168152602001908152602001600020604051806080016040529081600082018054610f43906123d1565b80601f0160208091040260200160405190810160405280929190818152602001828054610f6f906123d1565b8015610fbc5780601f10610f9157610100808354040283529160200191610fbc565b820191906000526020600020905b815481529060010190602001808311610f9f57829003601f168201915b50505050508152602001600182018054610fd5906123d1565b80601f0160208091040260200160405190810160405280929190818152602001828054611001906123d1565b801561104e5780601f106110235761010080835404028352916020019161104e565b820191906000526020600020905b81548152906001019060200180831161103157829003601f168201915b50505050508152602001600282015481526020016003820160009054906101000a900460ff16600181111561108657611085611c64565b5b600181111561109857611097611c64565b5b81525050905090565b600060405180606001604052808581526020018481526020018381525090506005819080600181540180825580915050600190039060005260206000209060030201600090919091909150600082015181600001908051906020019061110892919061193c565b50602082015181600101908051906020019061112592919061193c565b50604082015181600201908051906020019061114292919061193c565b50505050505050565b60008060018111156111605761115f611c64565b5b600360003373ffffffffffffffffffffffffffffffffffffffff1673ffffffffffffffffffffffffffffffffffffffff16815260200190815260200160002060030160009054906101000a900460ff1660018111156111c2576111c1611c64565b5b146111cc57600080fd5b60006040518060c00160405280878152602001868152602001858152602001600015158152602001600360003373ffffffffffffffffffffffffffffffffffffffff1673ffffffffffffffffffffffffffffffffffffffff1681526020019081526020016000206001018054611241906123d1565b80601f016020809104026020016040519081016040528092919081815260200182805461126d906123d1565b80156112ba5780601f1061128f576101008083540402835291602001916112ba565b820191906000526020600020905b81548152906001019060200180831161129d57829003601f168201915b505050505081526020018481525090506002819080600181540180825580915050600190039060005260206000209060060201600090919091909150600082015181600001908051906020019061131292919061193c565b50602082015181600101908051906020019061132f92919061193c565b506040820151816002015560608201518160030160006101000a81548160ff021916908315150217905550608082015181600401908051906020019061137692919061193c565b5060a082015181600501908051906020019061139392919061193c565b505050336000866040516113a7919061238b565b908152602001604051809103902060006101000a81548173ffffffffffffffffffffffffffffffffffffffff021916908373ffffffffffffffffffffffffffffffffffffffff16021790555080600186604051611404919061238b565b9081526020016040518091039020600082015181600001908051906020019061142e92919061193c565b50602082015181600101908051906020019061144b92919061193c565b506040820151816002015560608201518160030160006101000a81548160ff021916908315150217905550608082015181600401908051906020019061149292919061193c565b5060a08201518160050190805190602001906114af92919061193c565b50905050505050505050565b6114c361183d565b6000821415611507576040518060800160405280858152602001848152602001348152602001600060018111156114fd576114fc611c64565b5b815250905061153d565b604051806080016040528085815260200184815260200134815260200160018081111561153757611536611c64565b5b81525090505b6040518060200160405280600081525080519060200120816020015180519060200120141561156b57600080fd5b80600360003373ffffffffffffffffffffffffffffffffffffffff1673ffffffffffffffffffffffffffffffffffffffff16815260200190815260200160002060008201518160000190805190602001906115c792919061193c565b5060208201518160010190805190602001906115e492919061193c565b506040820151816002015560608201518160030160006101000a81548160ff0219169083600181111561161a57611619611c64565b5b021790555090505050505050565b60606005805480602002602001604051908101604052809291908181526020016000905b82821015611834578382906000526020600020906003020160405180606001604052908160008201805461167f906123d1565b80601f01602080910402602001604051908101604052809291908181526020018280546116ab906123d1565b80156116f85780601f106116cd576101008083540402835291602001916116f8565b820191906000526020600020905b8154815290600101906020018083116116db57829003601f168201915b50505050508152602001600182018054611711906123d1565b80601f016020809104026020016040519081016040528092919081815260200182805461173d906123d1565b801561178a5780601f1061175f5761010080835404028352916020019161178a565b820191906000526020600020905b81548152906001019060200180831161176d57829003601f168201915b505050505081526020016002820180546117a3906123d1565b80601f01602080910402602001604051908101604052809291908181526020018280546117cf906123d1565b801561181c5780601f106117f15761010080835404028352916020019161181c565b820191906000526020600020905b8154815290600101906020018083116117ff57829003601f168201915b5050505050815250508152602001906001019061164c565b50505050905090565b60405180608001604052806060815260200160608152602001600081526020016000600181111561187157611870611c64565b5b81525090565b6040518060c0016040528060608152602001606081526020016000815260200160001515815260200160608152602001606081525090565b8280546118bb906123d1565b90600052602060002090601f0160209004810192826118dd576000855561192b565b82601f106118ee578054855561192b565b8280016001018555821561192b57600052602060002091601f016020900482015b8281111561192a57825482559160010191906001019061190f565b5b50905061193891906119c2565b5090565b828054611948906123d1565b90600052602060002090601f01602090048101928261196a57600085556119b1565b82601f1061198357805160ff19168380011785556119b1565b828001600101855582156119b1579182015b828111156119b0578251825591602001919060010190611995565b5b5090506119be91906119c2565b5090565b5b808211156119db5760008160009055506001016119c3565b5090565b6000604051905090565b600080fd5b600080fd5b600080fd5b600080fd5b6000601f19601f8301169050919050565b7f4e487b7100000000000000000000000000000000000000000000000000000000600052604160045260246000fd5b611a46826119fd565b810181811067ffffffffffffffff82111715611a6557611a64611a0e565b5b80604052505050565b6000611a786119df565b9050611a848282611a3d565b919050565b600067ffffffffffffffff821115611aa457611aa3611a0e565b5b611aad826119fd565b9050602081019050919050565b82818337600083830152505050565b6000611adc611ad784611a89565b611a6e565b905082815260208101848484011115611af857611af76119f8565b5b611b03848285611aba565b509392505050565b600082601f830112611b2057611b1f6119f3565b5b8135611b30848260208601611ac9565b91505092915050565b600060208284031215611b4f57611b4e6119e9565b5b600082013567ffffffffffffffff811115611b6d57611b6c6119ee565b5b611b7984828501611b0b565b91505092915050565b600073ffffffffffffffffffffffffffffffffffffffff82169050919050565b6000611bad82611b82565b9050919050565b611bbd81611ba2565b82525050565b600081519050919050565b600082825260208201905092915050565b60005b83811015611bfd578082015181840152602081019050611be2565b83811115611c0c576000848401525b50505050565b6000611c1d82611bc3565b611c278185611bce565b9350611c37818560208601611bdf565b611c40816119fd565b840191505092915050565b6000819050919050565b611c5e81611c4b565b82525050565b7f4e487b7100000000000000000000000000000000000000000000000000000000600052602160045260246000fd5b60028110611ca457611ca3611c64565b5b50565b6000819050611cb582611c93565b919050565b6000611cc582611ca7565b9050919050565b611cd581611cba565b82525050565b60006080830160008301518482036000860152611cf88282611c12565b91505060208301518482036020860152611d128282611c12565b9150506040830151611d276040860182611c55565b506060830151611d3a6060860182611ccc565b508091505092915050565b6000604082019050611d5a6000830185611bb4565b8181036020830152611d6c8184611cdb565b90509392505050565b60008115159050919050565b611d8a81611d75565b82525050565b600060c0830160008301518482036000860152611dad8282611c12565b91505060208301518482036020860152611dc78282611c12565b9150506040830151611ddc6040860182611c55565b506060830151611def6060860182611d81565b5060808301518482036080860152611e078282611c12565b91505060a083015184820360a0860152611e218282611c12565b9150508091505092915050565b60006020820190508181036000830152611e488184611d90565b905092915050565b600081519050919050565b600082825260208201905092915050565b6000819050602082019050919050565b600060c0830160008301518482036000860152611e998282611c12565b91505060208301518482036020860152611eb38282611c12565b9150506040830151611ec86040860182611c55565b506060830151611edb6060860182611d81565b5060808301518482036080860152611ef38282611c12565b91505060a083015184820360a0860152611f0d8282611c12565b9150508091505092915050565b6000611f268383611e7c565b905092915050565b6000602082019050919050565b6000611f4682611e50565b611f508185611e5b565b935083602082028501611f6285611e6c565b8060005b85811015611f9e5784840389528151611f7f8582611f1a565b9450611f8a83611f2e565b925060208a01995050600181019050611f66565b50829750879550505050505092915050565b60006020820190508181036000830152611fca8184611f3b565b905092915050565b60006020820190508181036000830152611fec8184611cdb565b905092915050565b60008060006060848603121561200d5761200c6119e9565b5b600084013567ffffffffffffffff81111561202b5761202a6119ee565b5b61203786828701611b0b565b935050602084013567ffffffffffffffff811115612058576120576119ee565b5b61206486828701611b0b565b925050604084013567ffffffffffffffff811115612085576120846119ee565b5b61209186828701611b0b565b9150509250925092565b6120a481611c4b565b81146120af57600080fd5b50565b6000813590506120c18161209b565b92915050565b600080600080608085870312156120e1576120e06119e9565b5b600085013567ffffffffffffffff8111156120ff576120fe6119ee565b5b61210b87828801611b0b565b945050602085013567ffffffffffffffff81111561212c5761212b6119ee565b5b61213887828801611b0b565b9350506040612149878288016120b2565b925050606085013567ffffffffffffffff81111561216a576121696119ee565b5b61217687828801611b0b565b91505092959194509250565b60008060006060848603121561219b5761219a6119e9565b5b600084013567ffffffffffffffff8111156121b9576121b86119ee565b5b6121c586828701611b0b565b935050602084013567ffffffffffffffff8111156121e6576121e56119ee565b5b6121f286828701611b0b565b9250506040612203868287016120b2565b9150509250925092565b600081519050919050565b600082825260208201905092915050565b6000819050602082019050919050565b600060608301600083015184820360008601526122568282611c12565b915050602083015184820360208601526122708282611c12565b9150506040830151848203604086015261228a8282611c12565b9150508091505092915050565b60006122a38383612239565b905092915050565b6000602082019050919050565b60006122c38261220d565b6122cd8185612218565b9350836020820285016122df85612229565b8060005b8581101561231b57848403895281516122fc8582612297565b9450612307836122ab565b925060208a019950506001810190506122e3565b50829750879550505050505092915050565b6000602082019050818103600083015261234781846122b8565b905092915050565b600081905092915050565b600061236582611bc3565b61236f818561234f565b935061237f818560208601611bdf565b80840191505092915050565b6000612397828461235a565b915081905092915050565b7f4e487b7100000000000000000000000000000000000000000000000000000000600052602260045260246000fd5b600060028204905060018216806123e957607f821691505b602082108114156123fd576123fc6123a2565b5b50919050565b600082825260208201905092915050565b7f4c6f772042616c616e6365000000000000000000000000000000000000000000600082015250565b600061244a600b83612403565b915061245582612414565b602082019050919050565b600060208201905081810360008301526124798161243d565b9050919050565b7f4e487b7100000000000000000000000000000000000000000000000000000000600052603260045260246000fd5b600081905092915050565b60008190508160005260206000209050919050565b600081546124dc816123d1565b6124e681866124af565b94506001821660008114612501576001811461251257612545565b60ff19831686528186019350612545565b61251b856124ba565b60005b8381101561253d5781548189015260018201915060208101905061251e565b838801955050505b50505092915050565b600061255a82846124cf565b915081905092915050565b7f4e487b7100000000000000000000000000000000000000000000000000000000600052601160045260246000fd5b600061259f82611c4b565b91507fffffffffffffffffffffffffffffffffffffffffffffffffffffffffffffffff8214156125d2576125d1612565565b5b600182019050919050565b60006125e882611c4b565b91506125f383611c4b565b9250827fffffffffffffffffffffffffffffffffffffffffffffffffffffffffffffffff0382111561262857612627612565565b5b828201905092915050565b600061263e82611c4b565b915061264983611c4b565b92508282101561265c5761265b612565565b5b828203905092915050565b61267081611c4b565b82525050565b600060208201905061268b6000830184612667565b9291505056fea26469706673582212206ea6d0048b3482f131f7bb3101cbf52960ee419406a578af6e7d08dff64b926864736f6c634300080c0033",
  "immutableReferences": {},
  "source": "// SPDX-License-Identifier: MIT\n\npragma solidity ^0.8.12;\n\ncontract FrontChain {\n    struct Component {\n        string name;\n        string componentId;\n        uint price;\n        bool isSold;\n        string ownerUUID;\n        string description;\n    }\n    // componentId => owner\n    mapping(string => address) componentOwner;\n    // componentId => Component : To get the component details\n    mapping(string => Component) componentDetails;\n    // all components\n    Component[] components;\n\n\n    struct User{\n        string name;\n        string userId;\n        uint balance;\n        UserType userType;\n    }\n    // address => User\n    mapping(address => User) userAddress;\n    // user type\n    enum UserType{ SELLER, BUYER}\n\n    struct Request{\n        string description;\n        string reqId;\n        string timestamp;\n    }\n    // reqId => Request\n    mapping(string => Request) requestMap;\n    // ALL REQUESTS\n    Request[] requests;\n\n    address ceo;\n\n    string constant NULL_STRING = '';\n\n    event Transfer(address indexed from, address indexed to, uint amount);\n\n\n    constructor() {\n        ceo = msg.sender;\n    }\n\n    modifier onlyUserType(UserType userType){\n        require(userAddress[msg.sender].userType == userType);\n        _;\n    }\n\n    modifier onlyBuyerAndCeo{\n        require(userAddress[msg.sender].userType == UserType.BUYER || msg.sender == ceo);\n        _;\n    }\n\n    modifier onlyCeo{\n        require(msg.sender == ceo);\n        _;\n    }\n\n\n    // [WORKING] REGISTER USER\n    function registerUser(string memory name, string memory userId, uint userType) payable public {\n        // create new user\n        User memory newUser;\n        if(userType == 0)\n            newUser = User(name, userId, msg.value, UserType.SELLER);\n        else\n            newUser = User(name, userId, msg.value, UserType.BUYER);\n\n        // userId should not be null | Comparing userId string with Null String\n        require(keccak256(bytes(newUser.userId)) != keccak256(bytes(NULL_STRING)));\n        // map user address to its details\n        userAddress[msg.sender] = newUser;\n    }\n\n    // [WORKING] PUBLISH COMPONENT - Modifier: onlySeller\n    function publishComponent(string memory name, string memory componentId, uint price, string memory description) onlyUserType(UserType.SELLER) payable public{\n        Component memory newComponent = Component(name, componentId, price, false, userAddress[msg.sender].userId, description);\n        // push new component to all component list\n        components.push(newComponent);\n        // map owner of the new component\n        componentOwner[componentId] = msg.sender;\n        // map componentId to its details\n        componentDetails[componentId] = newComponent;\n    }\n\n    // [WORKING] GET ALL COMPONENTS\n    function getAllComponents() view public returns(Component[] memory) {\n        return components;\n    }\n\n    // [WORKING] GET COMPONENT OWNER\n    function getOwnerDetails(string memory componentId) view public returns(address, User memory) {\n        return (componentOwner[componentId], userAddress[componentOwner[componentId]]);\n    }\n\n    // GET ANY USER from Registered Users\n    function getUser() view public returns (User memory){\n        return userAddress[msg.sender];\n    }\n\n    // [WORKING] GET COMPONENT DETAILS\n    function getComponentDetails(string memory componentId) view public returns (Component memory) {\n        return componentDetails[componentId];\n    }\n\n    // ADD REQUEST\n    function addRequest(string memory description, string memory reqId, string memory timestamp) public {\n        Request memory temp = Request(description, reqId, timestamp);\n        // Push new request to all request list\n        requests.push(temp);\n    }\n\n    // GET ALL REQUESTS\n    function getAllRequests() view public returns(Request[] memory){\n        return requests;\n    }\n\n    // [WORKING] PURCHASE COMPONENT - Modifier: Owner can not purchase himself/herself. - onlyBuyer\n    function purchaseComponent(string memory componentId) payable onlyUserType(UserType.BUYER) public {\n        // BUYER BALANCE >= COMPONENT PRICE\n        require(userAddress[msg.sender].balance >= componentDetails[componentId].price, \"Low Balance\");\n\n        // GET OWNER ADDRESS\n        address payable ownerAddress = payable(componentOwner[componentId]);\n\n        // sell the component\n        componentDetails[componentId].isSold = true;\n        componentDetails[componentId].ownerUUID = userAddress[msg.sender].userId;\n\n        // change components list\n        for(uint i=0; i<components.length; i++){\n            if(keccak256(bytes(components[i].componentId)) == keccak256(bytes(componentId))){\n                // found\n                components[i].isSold = true;\n                components[i].ownerUUID = userAddress[msg.sender].userId;\n                break;\n            }\n        }\n\n         // // Handle transaction balances\n        userAddress[ownerAddress].balance += componentDetails[componentId].price; // OWNER\n        userAddress[msg.sender].balance -= componentDetails[componentId].price; // BUYER\n\n        // transfer component mapping to buyer\n        componentOwner[componentId] = msg.sender;\n\n        // Pay Owner\n        // ownerAddress.transfer(componentDetails[componentId].price);\n        emit Transfer(msg.sender, ownerAddress,componentDetails[componentId].price);\n\n       \n    }\n}\n",
  "sourcePath": "/Users/rahulsharma/Desktop/BlockChain-Sandbox/FrontChain/contracts/FrontChain.sol",
  "compiler": {
    "name": "solc",
    "version": "0.8.12+commit.f00d7308.Emscripten.clang"
  },
  "schemaVersion": "3.4.6",
  "updatedAt": "2022-04-12T21:19:17.789Z",
  "networkType": "ethereum",
  "devdoc": {
    "kind": "dev",
    "methods": {},
    "version": 1
  },
  "userdoc": {
    "kind": "user",
    "methods": {},
    "version": 1
  }
}