{
  "contractName": "FrontChain",
  "abi": [
    {
      "inputs": [],
      "stateMutability": "nonpayable",
      "type": "constructor"
    },
    {
      "anonymous": false,
      "inputs": [
        {
          "indexed": true,
          "internalType": "address",
          "name": "from",
          "type": "address"
        },
        {
          "indexed": true,
          "internalType": "address",
          "name": "to",
          "type": "address"
        },
        {
          "indexed": false,
          "internalType": "uint256",
          "name": "amount",
          "type": "uint256"
        }
      ],
      "name": "Transfer",
      "type": "event"
    },
    {
      "inputs": [],
      "name": "FC_ADDRESS",
      "outputs": [
        {
          "internalType": "address",
          "name": "",
          "type": "address"
        }
      ],
      "stateMutability": "view",
      "type": "function",
      "constant": true
    },
    {
      "inputs": [],
      "name": "getFCStartingBalance",
      "outputs": [
        {
          "internalType": "uint256",
          "name": "",
          "type": "uint256"
        },
        {
          "internalType": "uint256",
          "name": "",
          "type": "uint256"
        }
      ],
      "stateMutability": "view",
      "type": "function",
      "constant": true
    },
    {
      "inputs": [],
      "name": "getFCUserBalance",
      "outputs": [
        {
          "internalType": "uint256",
          "name": "",
          "type": "uint256"
        }
      ],
      "stateMutability": "view",
      "type": "function",
      "constant": true
    },
    {
      "inputs": [],
      "name": "isUserCeo",
      "outputs": [
        {
          "internalType": "bool",
          "name": "",
          "type": "bool"
        }
      ],
      "stateMutability": "view",
      "type": "function",
      "constant": true
    },
    {
      "inputs": [
        {
          "internalType": "address",
          "name": "toAddress",
          "type": "address"
        },
        {
          "internalType": "uint256",
          "name": "amount",
          "type": "uint256"
        }
      ],
      "name": "airDrop",
      "outputs": [],
      "stateMutability": "payable",
      "type": "function",
      "payable": true
    },
    {
      "inputs": [
        {
          "internalType": "string",
          "name": "name",
          "type": "string"
        },
        {
          "internalType": "string",
          "name": "userId",
          "type": "string"
        },
        {
          "internalType": "uint256",
          "name": "userType",
          "type": "uint256"
        }
      ],
      "name": "registerUser",
      "outputs": [],
      "stateMutability": "payable",
      "type": "function",
      "payable": true
    },
    {
      "inputs": [
        {
          "internalType": "string",
          "name": "name",
          "type": "string"
        },
        {
          "internalType": "string",
          "name": "componentId",
          "type": "string"
        },
        {
          "internalType": "uint256",
          "name": "price",
          "type": "uint256"
        },
        {
          "internalType": "string",
          "name": "description",
          "type": "string"
        }
      ],
      "name": "publishComponent",
      "outputs": [],
      "stateMutability": "payable",
      "type": "function",
      "payable": true
    },
    {
      "inputs": [],
      "name": "getAllComponents",
      "outputs": [
        {
          "components": [
            {
              "internalType": "string",
              "name": "name",
              "type": "string"
            },
            {
              "internalType": "string",
              "name": "componentId",
              "type": "string"
            },
            {
              "internalType": "uint256",
              "name": "price",
              "type": "uint256"
            },
            {
              "internalType": "bool",
              "name": "isSold",
              "type": "bool"
            },
            {
              "internalType": "string",
              "name": "ownerUUID",
              "type": "string"
            },
            {
              "internalType": "string",
              "name": "description",
              "type": "string"
            }
          ],
          "internalType": "struct FrontChain.Component[]",
          "name": "",
          "type": "tuple[]"
        }
      ],
      "stateMutability": "view",
      "type": "function",
      "constant": true
    },
    {
      "inputs": [
        {
          "internalType": "string",
          "name": "componentId",
          "type": "string"
        }
      ],
      "name": "getOwnerDetails",
      "outputs": [
        {
          "internalType": "address",
          "name": "",
          "type": "address"
        },
        {
          "components": [
            {
              "internalType": "string",
              "name": "name",
              "type": "string"
            },
            {
              "internalType": "string",
              "name": "userId",
              "type": "string"
            },
            {
              "internalType": "uint256",
              "name": "balance",
              "type": "uint256"
            },
            {
              "internalType": "enum FrontChain.UserType",
              "name": "userType",
              "type": "uint8"
            }
          ],
          "internalType": "struct FrontChain.User",
          "name": "",
          "type": "tuple"
        }
      ],
      "stateMutability": "view",
      "type": "function",
      "constant": true
    },
    {
      "inputs": [],
      "name": "getUser",
      "outputs": [
        {
          "components": [
            {
              "internalType": "string",
              "name": "name",
              "type": "string"
            },
            {
              "internalType": "string",
              "name": "userId",
              "type": "string"
            },
            {
              "internalType": "uint256",
              "name": "balance",
              "type": "uint256"
            },
            {
              "internalType": "enum FrontChain.UserType",
              "name": "userType",
              "type": "uint8"
            }
          ],
          "internalType": "struct FrontChain.User",
          "name": "",
          "type": "tuple"
        }
      ],
      "stateMutability": "view",
      "type": "function",
      "constant": true
    },
    {
      "inputs": [
        {
          "internalType": "string",
          "name": "componentId",
          "type": "string"
        }
      ],
      "name": "getComponentDetails",
      "outputs": [
        {
          "components": [
            {
              "internalType": "string",
              "name": "name",
              "type": "string"
            },
            {
              "internalType": "string",
              "name": "componentId",
              "type": "string"
            },
            {
              "internalType": "uint256",
              "name": "price",
              "type": "uint256"
            },
            {
              "internalType": "bool",
              "name": "isSold",
              "type": "bool"
            },
            {
              "internalType": "string",
              "name": "ownerUUID",
              "type": "string"
            },
            {
              "internalType": "string",
              "name": "description",
              "type": "string"
            }
          ],
          "internalType": "struct FrontChain.Component",
          "name": "",
          "type": "tuple"
        }
      ],
      "stateMutability": "view",
      "type": "function",
      "constant": true
    },
    {
      "inputs": [
        {
          "internalType": "string",
          "name": "description",
          "type": "string"
        },
        {
          "internalType": "string",
          "name": "reqId",
          "type": "string"
        },
        {
          "internalType": "string",
          "name": "timestamp",
          "type": "string"
        }
      ],
      "name": "addRequest",
      "outputs": [],
      "stateMutability": "nonpayable",
      "type": "function"
    },
    {
      "inputs": [],
      "name": "getAllRequests",
      "outputs": [
        {
          "components": [
            {
              "internalType": "string",
              "name": "description",
              "type": "string"
            },
            {
              "internalType": "string",
              "name": "reqId",
              "type": "string"
            },
            {
              "internalType": "string",
              "name": "timestamp",
              "type": "string"
            }
          ],
          "internalType": "struct FrontChain.Request[]",
          "name": "",
          "type": "tuple[]"
        }
      ],
      "stateMutability": "view",
      "type": "function",
      "constant": true
    },
    {
      "inputs": [
        {
          "internalType": "string",
          "name": "componentId",
          "type": "string"
        }
      ],
      "name": "purchaseComponent",
      "outputs": [],
      "stateMutability": "payable",
      "type": "function",
      "payable": true
    }
  ],
  "bytecode": "0x6080604052734fd550913dd3e93f8dd0312f92f47d5b3b50e8c8600760006101000a81548173ffffffffffffffffffffffffffffffffffffffff021916908373ffffffffffffffffffffffffffffffffffffffff16021790555034801561006557600080fd5b5033600660006101000a81548173ffffffffffffffffffffffffffffffffffffffff021916908373ffffffffffffffffffffffffffffffffffffffff1602179055506131de806100b66000396000f3fe6080604052600436106100dd5760003560e01c8063832880e71161007f578063d6a636ec11610059578063d6a636ec14610286578063d6b5da08146102b2578063f209e74f146102dd578063fb1a002a146102f9576100dd565b8063832880e714610216578063b27d118414610241578063b63ebba01461026a576100dd565b80632b31ce34116100bb5780632b31ce341461016757806349a0b0b11461019257806366fadf0b146101cf57806373c480a1146101fa576100dd565b8063045f7850146100e257806308fcf6e5146100fe5780630ecada531461013c575b600080fd5b6100fc60048036038101906100f791906123d6565b610324565b005b34801561010a57600080fd5b506101256004803603810190610120919061255c565b6105f5565b60405161013392919061272c565b60405180910390f35b34801561014857600080fd5b5061015161083a565b60405161015e919061276b565b60405180910390f35b34801561017357600080fd5b5061017c6108dd565b60405161018991906127a1565b60405180910390f35b34801561019e57600080fd5b506101b960048036038101906101b4919061255c565b610935565b6040516101c69190612869565b60405180910390f35b3480156101db57600080fd5b506101e4610bda565b6040516101f191906129eb565b60405180910390f35b610214600480360381019061020f919061255c565b610ea6565b005b34801561022257600080fd5b5061022b611435565b6040516102389190612a0d565b60405180910390f35b34801561024d57600080fd5b5061026860048036038101906102639190612a2f565b6115f5565b005b610284600480360381019061027f9190612ad6565b61169f565b005b34801561029257600080fd5b5061029b611a0f565b6040516102a9929190612b91565b60405180910390f35b3480156102be57600080fd5b506102c7611ad7565b6040516102d49190612bba565b60405180910390f35b6102f760048036038101906102f29190612bd5565b611aef565b005b34801561030557600080fd5b5061030e611f77565b60405161031b9190612d80565b60405180910390f35b600760009054906101000a900473ffffffffffffffffffffffffffffffffffffffff1673ffffffffffffffffffffffffffffffffffffffff166323b872dd600660009054906101000a900473ffffffffffffffffffffffffffffffffffffffff1684846040518463ffffffff1660e01b81526004016103a593929190612da2565b6020604051808303816000875af11580156103c4573d6000803e3d6000fd5b505050506040513d601f19601f820116820180604052508101906103e89190612e05565b50600760009054906101000a900473ffffffffffffffffffffffffffffffffffffffff1673ffffffffffffffffffffffffffffffffffffffff166370a08231600660009054906101000a900473ffffffffffffffffffffffffffffffffffffffff166040518263ffffffff1660e01b81526004016104669190612bba565b602060405180830381865afa158015610483573d6000803e3d6000fd5b505050506040513d601f19601f820116820180604052508101906104a79190612e47565b60036000600660009054906101000a900473ffffffffffffffffffffffffffffffffffffffff1673ffffffffffffffffffffffffffffffffffffffff1673ffffffffffffffffffffffffffffffffffffffff16815260200190815260200160002060020181905550600760009054906101000a900473ffffffffffffffffffffffffffffffffffffffff1673ffffffffffffffffffffffffffffffffffffffff166370a08231836040518263ffffffff1660e01b815260040161056a9190612bba565b602060405180830381865afa158015610587573d6000803e3d6000fd5b505050506040513d601f19601f820116820180604052508101906105ab9190612e47565b600360008473ffffffffffffffffffffffffffffffffffffffff1673ffffffffffffffffffffffffffffffffffffffff168152602001908152602001600020600201819055505050565b60006105ff61218c565b60008360405161060f9190612eb0565b908152602001604051809103902060009054906101000a900473ffffffffffffffffffffffffffffffffffffffff166003600080866040516106519190612eb0565b908152602001604051809103902060009054906101000a900473ffffffffffffffffffffffffffffffffffffffff1673ffffffffffffffffffffffffffffffffffffffff1673ffffffffffffffffffffffffffffffffffffffff168152602001908152602001600020806040518060800160405290816000820180546106d690612ef6565b80601f016020809104026020016040519081016040528092919081815260200182805461070290612ef6565b801561074f5780601f106107245761010080835404028352916020019161074f565b820191906000526020600020905b81548152906001019060200180831161073257829003601f168201915b5050505050815260200160018201805461076890612ef6565b80601f016020809104026020016040519081016040528092919081815260200182805461079490612ef6565b80156107e15780601f106107b6576101008083540402835291602001916107e1565b820191906000526020600020905b8154815290600101906020018083116107c457829003601f168201915b50505050508152602001600282015481526020016003820160009054906101000a900460ff1660028111156108195761081861264b565b5b600281111561082b5761082a61264b565b5b81525050905091509150915091565b6000600760009054906101000a900473ffffffffffffffffffffffffffffffffffffffff1673ffffffffffffffffffffffffffffffffffffffff166370a08231336040518263ffffffff1660e01b81526004016108979190612bba565b602060405180830381865afa1580156108b4573d6000803e3d6000fd5b505050506040513d601f19601f820116820180604052508101906108d89190612e47565b905090565b6000600660009054906101000a900473ffffffffffffffffffffffffffffffffffffffff1673ffffffffffffffffffffffffffffffffffffffff163373ffffffffffffffffffffffffffffffffffffffff1614905090565b61093d6121c6565b60018260405161094d9190612eb0565b90815260200160405180910390206040518060c001604052908160008201805461097690612ef6565b80601f01602080910402602001604051908101604052809291908181526020018280546109a290612ef6565b80156109ef5780601f106109c4576101008083540402835291602001916109ef565b820191906000526020600020905b8154815290600101906020018083116109d257829003601f168201915b50505050508152602001600182018054610a0890612ef6565b80601f0160208091040260200160405190810160405280929190818152602001828054610a3490612ef6565b8015610a815780601f10610a5657610100808354040283529160200191610a81565b820191906000526020600020905b815481529060010190602001808311610a6457829003601f168201915b50505050508152602001600282015481526020016003820160009054906101000a900460ff16151515158152602001600482018054610abf90612ef6565b80601f0160208091040260200160405190810160405280929190818152602001828054610aeb90612ef6565b8015610b385780601f10610b0d57610100808354040283529160200191610b38565b820191906000526020600020905b815481529060010190602001808311610b1b57829003601f168201915b50505050508152602001600582018054610b5190612ef6565b80601f0160208091040260200160405190810160405280929190818152602001828054610b7d90612ef6565b8015610bca5780601f10610b9f57610100808354040283529160200191610bca565b820191906000526020600020905b815481529060010190602001808311610bad57829003601f168201915b5050505050815250509050919050565b60606002805480602002602001604051908101604052809291908181526020016000905b82821015610e9d57838290600052602060002090600602016040518060c0016040529081600082018054610c3190612ef6565b80601f0160208091040260200160405190810160405280929190818152602001828054610c5d90612ef6565b8015610caa5780601f10610c7f57610100808354040283529160200191610caa565b820191906000526020600020905b815481529060010190602001808311610c8d57829003601f168201915b50505050508152602001600182018054610cc390612ef6565b80601f0160208091040260200160405190810160405280929190818152602001828054610cef90612ef6565b8015610d3c5780601f10610d1157610100808354040283529160200191610d3c565b820191906000526020600020905b815481529060010190602001808311610d1f57829003601f168201915b50505050508152602001600282015481526020016003820160009054906101000a900460ff16151515158152602001600482018054610d7a90612ef6565b80601f0160208091040260200160405190810160405280929190818152602001828054610da690612ef6565b8015610df35780601f10610dc857610100808354040283529160200191610df3565b820191906000526020600020905b815481529060010190602001808311610dd657829003601f168201915b50505050508152602001600582018054610e0c90612ef6565b80601f0160208091040260200160405190810160405280929190818152602001828054610e3890612ef6565b8015610e855780601f10610e5a57610100808354040283529160200191610e85565b820191906000526020600020905b815481529060010190602001808311610e6857829003601f168201915b50505050508152505081526020019060010190610bfe565b50505050905090565b6001806002811115610ebb57610eba61264b565b5b600360003373ffffffffffffffffffffffffffffffffffffffff1673ffffffffffffffffffffffffffffffffffffffff16815260200190815260200160002060030160009054906101000a900460ff166002811115610f1d57610f1c61264b565b5b14610f2757600080fd5b60008083604051610f389190612eb0565b908152602001604051809103902060009054906101000a900473ffffffffffffffffffffffffffffffffffffffff16905060018084604051610f7a9190612eb0565b908152602001604051809103902060030160006101000a81548160ff021916908315150217905550600360003373ffffffffffffffffffffffffffffffffffffffff1673ffffffffffffffffffffffffffffffffffffffff168152602001908152602001600020600101600184604051610ff49190612eb0565b908152602001604051809103902060040190805461101190612ef6565b61101c9291906121fe565b5060005b60028054905081101561114a5783805190602001206002828154811061104957611048612f28565b5b90600052602060002090600602016001016040516110679190612ff6565b604051809103902014156111375760016002828154811061108b5761108a612f28565b5b906000526020600020906006020160030160006101000a81548160ff021916908315150217905550600360003373ffffffffffffffffffffffffffffffffffffffff1673ffffffffffffffffffffffffffffffffffffffff1681526020019081526020016000206001016002828154811061110957611108612f28565b5b906000526020600020906006020160040190805461112690612ef6565b6111319291906121fe565b5061114a565b80806111429061303c565b915050611020565b503360008460405161115c9190612eb0565b908152602001604051809103902060006101000a81548173ffffffffffffffffffffffffffffffffffffffff021916908373ffffffffffffffffffffffffffffffffffffffff160217905550600760009054906101000a900473ffffffffffffffffffffffffffffffffffffffff1673ffffffffffffffffffffffffffffffffffffffff166323b872dd33836001876040516111f89190612eb0565b9081526020016040518091039020600201546040518463ffffffff1660e01b8152600401611228939291906130e4565b6020604051808303816000875af1158015611247573d6000803e3d6000fd5b505050506040513d601f19601f8201168201806040525081019061126b9190612e05565b50600760009054906101000a900473ffffffffffffffffffffffffffffffffffffffff1673ffffffffffffffffffffffffffffffffffffffff166370a08231336040518263ffffffff1660e01b81526004016112c79190612bba565b602060405180830381865afa1580156112e4573d6000803e3d6000fd5b505050506040513d601f19601f820116820180604052508101906113089190612e47565b600360003373ffffffffffffffffffffffffffffffffffffffff1673ffffffffffffffffffffffffffffffffffffffff16815260200190815260200160002060020181905550600760009054906101000a900473ffffffffffffffffffffffffffffffffffffffff1673ffffffffffffffffffffffffffffffffffffffff166370a08231826040518263ffffffff1660e01b81526004016113a9919061311b565b602060405180830381865afa1580156113c6573d6000803e3d6000fd5b505050506040513d601f19601f820116820180604052508101906113ea9190612e47565b600360008373ffffffffffffffffffffffffffffffffffffffff1673ffffffffffffffffffffffffffffffffffffffff16815260200190815260200160002060020181905550505050565b61143d61218c565b600360003373ffffffffffffffffffffffffffffffffffffffff1673ffffffffffffffffffffffffffffffffffffffff16815260200190815260200160002060405180608001604052908160008201805461149790612ef6565b80601f01602080910402602001604051908101604052809291908181526020018280546114c390612ef6565b80156115105780601f106114e557610100808354040283529160200191611510565b820191906000526020600020905b8154815290600101906020018083116114f357829003601f168201915b5050505050815260200160018201805461152990612ef6565b80601f016020809104026020016040519081016040528092919081815260200182805461155590612ef6565b80156115a25780601f10611577576101008083540402835291602001916115a2565b820191906000526020600020905b81548152906001019060200180831161158557829003601f168201915b50505050508152602001600282015481526020016003820160009054906101000a900460ff1660028111156115da576115d961264b565b5b60028111156115ec576115eb61264b565b5b81525050905090565b600060405180606001604052808581526020018481526020018381525090506005819080600181540180825580915050600190039060005260206000209060030201600090919091909150600082015181600001908051906020019061165c92919061228b565b50602082015181600101908051906020019061167992919061228b565b50604082015181600201908051906020019061169692919061228b565b50505050505050565b60008060028111156116b4576116b361264b565b5b600360003373ffffffffffffffffffffffffffffffffffffffff1673ffffffffffffffffffffffffffffffffffffffff16815260200190815260200160002060030160009054906101000a900460ff1660028111156117165761171561264b565b5b1461172057600080fd5b60006040518060c00160405280878152602001868152602001858152602001600015158152602001600360003373ffffffffffffffffffffffffffffffffffffffff1673ffffffffffffffffffffffffffffffffffffffff168152602001908152602001600020600101805461179590612ef6565b80601f01602080910402602001604051908101604052809291908181526020018280546117c190612ef6565b801561180e5780601f106117e35761010080835404028352916020019161180e565b820191906000526020600020905b8154815290600101906020018083116117f157829003601f168201915b505050505081526020018481525090506002819080600181540180825580915050600190039060005260206000209060060201600090919091909150600082015181600001908051906020019061186692919061228b565b50602082015181600101908051906020019061188392919061228b565b506040820151816002015560608201518160030160006101000a81548160ff02191690831515021790555060808201518160040190805190602001906118ca92919061228b565b5060a08201518160050190805190602001906118e792919061228b565b505050336000866040516118fb9190612eb0565b908152602001604051809103902060006101000a81548173ffffffffffffffffffffffffffffffffffffffff021916908373ffffffffffffffffffffffffffffffffffffffff160217905550806001866040516119589190612eb0565b9081526020016040518091039020600082015181600001908051906020019061198292919061228b565b50602082015181600101908051906020019061199f92919061228b565b506040820151816002015560608201518160030160006101000a81548160ff02191690831515021790555060808201518160040190805190602001906119e692919061228b565b5060a0820151816005019080519060200190611a0392919061228b565b50905050505050505050565b600080600760009054906101000a900473ffffffffffffffffffffffffffffffffffffffff1673ffffffffffffffffffffffffffffffffffffffff166318160ddd6040518163ffffffff1660e01b8152600401602060405180830381865afa158015611a7f573d6000803e3d6000fd5b505050506040513d601f19601f82011682018060405250810190611aa39190612e47565b734fd550913dd3e93f8dd0312f92f47d5b3b50e8c873ffffffffffffffffffffffffffffffffffffffff1631915091509091565b734fd550913dd3e93f8dd0312f92f47d5b3b50e8c881565b611af761218c565b600660009054906101000a900473ffffffffffffffffffffffffffffffffffffffff1673ffffffffffffffffffffffffffffffffffffffff163373ffffffffffffffffffffffffffffffffffffffff161415611c22576040518060800160405280858152602001848152602001600760009054906101000a900473ffffffffffffffffffffffffffffffffffffffff1673ffffffffffffffffffffffffffffffffffffffff166370a08231336040518263ffffffff1660e01b8152600401611bbf9190612bba565b602060405180830381865afa158015611bdc573d6000803e3d6000fd5b505050506040513d601f19601f82011682018060405250810190611c009190612e47565b8152602001600280811115611c1857611c1761264b565b5b8152509050611e8c565b600760009054906101000a900473ffffffffffffffffffffffffffffffffffffffff1673ffffffffffffffffffffffffffffffffffffffff166323b872dd600660009054906101000a900473ffffffffffffffffffffffffffffffffffffffff163360646040518463ffffffff1660e01b8152600401611ca493929190613171565b6020604051808303816000875af1158015611cc3573d6000803e3d6000fd5b505050506040513d601f19601f82011682018060405250810190611ce79190612e05565b50600760009054906101000a900473ffffffffffffffffffffffffffffffffffffffff1673ffffffffffffffffffffffffffffffffffffffff166370a08231600660009054906101000a900473ffffffffffffffffffffffffffffffffffffffff166040518263ffffffff1660e01b8152600401611d659190612bba565b602060405180830381865afa158015611d82573d6000803e3d6000fd5b505050506040513d601f19601f82011682018060405250810190611da69190612e47565b60036000600660009054906101000a900473ffffffffffffffffffffffffffffffffffffffff1673ffffffffffffffffffffffffffffffffffffffff1673ffffffffffffffffffffffffffffffffffffffff168152602001908152602001600020600201819055506000821415611e535760405180608001604052808581526020018481526020016064815260200160006002811115611e4957611e4861264b565b5b8152509050611e8b565b60405180608001604052808581526020018481526020016064815260200160016002811115611e8557611e8461264b565b5b81525090505b5b60405180602001604052806000815250805190602001208160200151805190602001201415611eba57600080fd5b80600360003373ffffffffffffffffffffffffffffffffffffffff1673ffffffffffffffffffffffffffffffffffffffff1681526020019081526020016000206000820151816000019080519060200190611f1692919061228b565b506020820151816001019080519060200190611f3392919061228b565b506040820151816002015560608201518160030160006101000a81548160ff02191690836002811115611f6957611f6861264b565b5b021790555090505050505050565b60606005805480602002602001604051908101604052809291908181526020016000905b828210156121835783829060005260206000209060030201604051806060016040529081600082018054611fce90612ef6565b80601f0160208091040260200160405190810160405280929190818152602001828054611ffa90612ef6565b80156120475780601f1061201c57610100808354040283529160200191612047565b820191906000526020600020905b81548152906001019060200180831161202a57829003601f168201915b5050505050815260200160018201805461206090612ef6565b80601f016020809104026020016040519081016040528092919081815260200182805461208c90612ef6565b80156120d95780601f106120ae576101008083540402835291602001916120d9565b820191906000526020600020905b8154815290600101906020018083116120bc57829003601f168201915b505050505081526020016002820180546120f290612ef6565b80601f016020809104026020016040519081016040528092919081815260200182805461211e90612ef6565b801561216b5780601f106121405761010080835404028352916020019161216b565b820191906000526020600020905b81548152906001019060200180831161214e57829003601f168201915b50505050508152505081526020019060010190611f9b565b50505050905090565b6040518060800160405280606081526020016060815260200160008152602001600060028111156121c0576121bf61264b565b5b81525090565b6040518060c0016040528060608152602001606081526020016000815260200160001515815260200160608152602001606081525090565b82805461220a90612ef6565b90600052602060002090601f01602090048101928261222c576000855561227a565b82601f1061223d578054855561227a565b8280016001018555821561227a57600052602060002091601f016020900482015b8281111561227957825482559160010191906001019061225e565b5b5090506122879190612311565b5090565b82805461229790612ef6565b90600052602060002090601f0160209004810192826122b95760008555612300565b82601f106122d257805160ff1916838001178555612300565b82800160010185558215612300579182015b828111156122ff5782518255916020019190600101906122e4565b5b50905061230d9190612311565b5090565b5b8082111561232a576000816000905550600101612312565b5090565b6000604051905090565b600080fd5b600080fd5b600073ffffffffffffffffffffffffffffffffffffffff82169050919050565b600061236d82612342565b9050919050565b61237d81612362565b811461238857600080fd5b50565b60008135905061239a81612374565b92915050565b6000819050919050565b6123b3816123a0565b81146123be57600080fd5b50565b6000813590506123d0816123aa565b92915050565b600080604083850312156123ed576123ec612338565b5b60006123fb8582860161238b565b925050602061240c858286016123c1565b9150509250929050565b600080fd5b600080fd5b6000601f19601f8301169050919050565b7f4e487b7100000000000000000000000000000000000000000000000000000000600052604160045260246000fd5b61246982612420565b810181811067ffffffffffffffff8211171561248857612487612431565b5b80604052505050565b600061249b61232e565b90506124a78282612460565b919050565b600067ffffffffffffffff8211156124c7576124c6612431565b5b6124d082612420565b9050602081019050919050565b82818337600083830152505050565b60006124ff6124fa846124ac565b612491565b90508281526020810184848401111561251b5761251a61241b565b5b6125268482856124dd565b509392505050565b600082601f83011261254357612542612416565b5b81356125538482602086016124ec565b91505092915050565b60006020828403121561257257612571612338565b5b600082013567ffffffffffffffff8111156125905761258f61233d565b5b61259c8482850161252e565b91505092915050565b6125ae81612362565b82525050565b600081519050919050565b600082825260208201905092915050565b60005b838110156125ee5780820151818401526020810190506125d3565b838111156125fd576000848401525b50505050565b600061260e826125b4565b61261881856125bf565b93506126288185602086016125d0565b61263181612420565b840191505092915050565b612645816123a0565b82525050565b7f4e487b7100000000000000000000000000000000000000000000000000000000600052602160045260246000fd5b6003811061268b5761268a61264b565b5b50565b600081905061269c8261267a565b919050565b60006126ac8261268e565b9050919050565b6126bc816126a1565b82525050565b600060808301600083015184820360008601526126df8282612603565b915050602083015184820360208601526126f98282612603565b915050604083015161270e604086018261263c565b50606083015161272160608601826126b3565b508091505092915050565b600060408201905061274160008301856125a5565b818103602083015261275381846126c2565b90509392505050565b612765816123a0565b82525050565b6000602082019050612780600083018461275c565b92915050565b60008115159050919050565b61279b81612786565b82525050565b60006020820190506127b66000830184612792565b92915050565b6127c581612786565b82525050565b600060c08301600083015184820360008601526127e88282612603565b915050602083015184820360208601526128028282612603565b9150506040830151612817604086018261263c565b50606083015161282a60608601826127bc565b50608083015184820360808601526128428282612603565b91505060a083015184820360a086015261285c8282612603565b9150508091505092915050565b6000602082019050818103600083015261288381846127cb565b905092915050565b600081519050919050565b600082825260208201905092915050565b6000819050602082019050919050565b600060c08301600083015184820360008601526128d48282612603565b915050602083015184820360208601526128ee8282612603565b9150506040830151612903604086018261263c565b50606083015161291660608601826127bc565b506080830151848203608086015261292e8282612603565b91505060a083015184820360a08601526129488282612603565b9150508091505092915050565b600061296183836128b7565b905092915050565b6000602082019050919050565b60006129818261288b565b61298b8185612896565b93508360208202850161299d856128a7565b8060005b858110156129d957848403895281516129ba8582612955565b94506129c583612969565b925060208a019950506001810190506129a1565b50829750879550505050505092915050565b60006020820190508181036000830152612a058184612976565b905092915050565b60006020820190508181036000830152612a2781846126c2565b905092915050565b600080600060608486031215612a4857612a47612338565b5b600084013567ffffffffffffffff811115612a6657612a6561233d565b5b612a728682870161252e565b935050602084013567ffffffffffffffff811115612a9357612a9261233d565b5b612a9f8682870161252e565b925050604084013567ffffffffffffffff811115612ac057612abf61233d565b5b612acc8682870161252e565b9150509250925092565b60008060008060808587031215612af057612aef612338565b5b600085013567ffffffffffffffff811115612b0e57612b0d61233d565b5b612b1a8782880161252e565b945050602085013567ffffffffffffffff811115612b3b57612b3a61233d565b5b612b478782880161252e565b9350506040612b58878288016123c1565b925050606085013567ffffffffffffffff811115612b7957612b7861233d565b5b612b858782880161252e565b91505092959194509250565b6000604082019050612ba6600083018561275c565b612bb3602083018461275c565b9392505050565b6000602082019050612bcf60008301846125a5565b92915050565b600080600060608486031215612bee57612bed612338565b5b600084013567ffffffffffffffff811115612c0c57612c0b61233d565b5b612c188682870161252e565b935050602084013567ffffffffffffffff811115612c3957612c3861233d565b5b612c458682870161252e565b9250506040612c56868287016123c1565b9150509250925092565b600081519050919050565b600082825260208201905092915050565b6000819050602082019050919050565b60006060830160008301518482036000860152612ca98282612603565b91505060208301518482036020860152612cc38282612603565b91505060408301518482036040860152612cdd8282612603565b9150508091505092915050565b6000612cf68383612c8c565b905092915050565b6000602082019050919050565b6000612d1682612c60565b612d208185612c6b565b935083602082028501612d3285612c7c565b8060005b85811015612d6e5784840389528151612d4f8582612cea565b9450612d5a83612cfe565b925060208a01995050600181019050612d36565b50829750879550505050505092915050565b60006020820190508181036000830152612d9a8184612d0b565b905092915050565b6000606082019050612db760008301866125a5565b612dc460208301856125a5565b612dd1604083018461275c565b949350505050565b612de281612786565b8114612ded57600080fd5b50565b600081519050612dff81612dd9565b92915050565b600060208284031215612e1b57612e1a612338565b5b6000612e2984828501612df0565b91505092915050565b600081519050612e41816123aa565b92915050565b600060208284031215612e5d57612e5c612338565b5b6000612e6b84828501612e32565b91505092915050565b600081905092915050565b6000612e8a826125b4565b612e948185612e74565b9350612ea48185602086016125d0565b80840191505092915050565b6000612ebc8284612e7f565b915081905092915050565b7f4e487b7100000000000000000000000000000000000000000000000000000000600052602260045260246000fd5b60006002820490506001821680612f0e57607f821691505b60208210811415612f2257612f21612ec7565b5b50919050565b7f4e487b7100000000000000000000000000000000000000000000000000000000600052603260045260246000fd5b600081905092915050565b60008190508160005260206000209050919050565b60008154612f8481612ef6565b612f8e8186612f57565b94506001821660008114612fa95760018114612fba57612fed565b60ff19831686528186019350612fed565b612fc385612f62565b60005b83811015612fe557815481890152600182019150602081019050612fc6565b838801955050505b50505092915050565b60006130028284612f77565b915081905092915050565b7f4e487b7100000000000000000000000000000000000000000000000000000000600052601160045260246000fd5b6000613047826123a0565b91507fffffffffffffffffffffffffffffffffffffffffffffffffffffffffffffffff82141561307a5761307961300d565b5b600182019050919050565b6000819050919050565b60006130aa6130a56130a084612342565b613085565b612342565b9050919050565b60006130bc8261308f565b9050919050565b60006130ce826130b1565b9050919050565b6130de816130c3565b82525050565b60006060820190506130f960008301866125a5565b61310660208301856130d5565b613113604083018461275c565b949350505050565b600060208201905061313060008301846130d5565b92915050565b6000819050919050565b600061315b61315661315184613136565b613085565b6123a0565b9050919050565b61316b81613140565b82525050565b600060608201905061318660008301866125a5565b61319360208301856125a5565b6131a06040830184613162565b94935050505056fea26469706673582212204d17c0df92a5dc63beaeaaefbfdfc589f22c19f9fa717b4e1165cdec6ae9806464736f6c634300080c0033",
  "immutableReferences": {},
  "source": "// SPDX-License-Identifier: MIT\n\npragma solidity ^0.8.12;\n\ninterface FrontCoinInterface {\n    function totalSupply() external view returns (uint256);\n    function transferFrom(address owner, address buyer, uint numTokens) external returns (bool);\n    function balanceOf(address tokenOwner) external view returns (uint);\n}\n\ncontract FrontChain {\n\n    // Struct component used to store the frontend component basic information\n    // It doesn't store the actual codes. Instead it stores a unique UUID which identifies\n    // it uniquely and can be used to fetch the component's codes through a central server.\n    struct Component {\n        string name;\n        string componentId; // UUID for components\n        uint price;\n        bool isSold;\n        string ownerUUID;\n        string description;\n    }\n    // MAPPING: componentId => owner\n    mapping(string => address) componentOwner;\n    // MAPPING: componentId => Component : To get the component details\n    mapping(string => Component) componentDetails;\n    // Stores all components\n    Component[] components;\n\n    // Used to store information regarding the user. Every user is identified uniquely by \n    // a userId which is a unique UUID generated at the time of Register from the DAPP UI.\n    struct User{\n        string name;\n        string userId;\n        uint balance;\n        UserType userType;\n    }\n    // MAPPING: address => User\n    mapping(address => User) userAddress;\n    // ENUM: user type | SELLER => 0; BUYER => 1\n    enum UserType{ SELLER, BUYER, CEO }\n\n    // Stores the information about any feature request for any FE component that is needed by \n    // the user\n    struct Request{\n        string description;\n        string reqId; // UUID for request | React\n        string timestamp;\n    }\n    // MAPPING: reqId => Request\n    mapping(string => Request) requestMap;\n    // Stores all requests\n    Request[] requests;\n\n    // stores the address of the contract deployer\n    address ceo;\n\n    // stored to compare null string values with\n    string constant NULL_STRING = '';\n\n    // Transfer event for cryptocurrency transfer between two accounts.\n    event Transfer(address indexed from, address indexed to, uint amount);\n\n    address public constant FC_ADDRESS = 0x4fD550913Dd3e93F8DD0312f92F47d5B3B50e8c8;\n    \n    FrontCoinInterface fcInterface = FrontCoinInterface(FC_ADDRESS);\n\n    constructor() {\n        ceo = msg.sender;\n    }\n\n    // Generic modifier based on enum UserType\n    modifier onlyUserType(UserType userType){\n        require(userAddress[msg.sender].userType == userType);\n        _;\n    }\n\n    modifier onlyBuyerAndCeo{\n        require(userAddress[msg.sender].userType == UserType.BUYER || msg.sender == ceo);\n        _;\n    }\n\n    modifier onlyCeo{\n        require(msg.sender == ceo);\n        _;\n    }\n\n    function getFCStartingBalance() view public returns (uint256, uint256) {\n        return (fcInterface.totalSupply(), address(FC_ADDRESS).balance);\n    }\n\n    function getFCUserBalance() view public returns (uint256) {\n        return fcInterface.balanceOf(msg.sender);\n    }\n\n    function isUserCeo() view public returns (bool){\n        return msg.sender == ceo;\n    }\n\n    function airDrop(address toAddress, uint amount) public payable {\n        fcInterface.transferFrom(ceo, toAddress, amount);\n        userAddress[ceo].balance = fcInterface.balanceOf(ceo);\n        userAddress[toAddress].balance = fcInterface.balanceOf(toAddress);\n    }\n\n    // [WORKING] REGISTER USER\n    // Registers a new user based on his user type and then maps its address with the struct User.\n    function registerUser(string memory name, string memory userId, uint userType) payable public {\n        // create new user\n        User memory newUser;\n\n        if(msg.sender == ceo){\n            // ceo registering\n            newUser = User(name, userId, fcInterface.balanceOf(msg.sender), UserType.CEO);\n        }else{\n            // other user registering\n            fcInterface.transferFrom(ceo, msg.sender, 100);\n            \n            // update balance of ceo after registration\n            userAddress[ceo].balance = fcInterface.balanceOf(ceo);\n\n            if(userType == 0)\n                newUser = User(name, userId, 100, UserType.SELLER);\n            else\n                newUser = User(name, userId, 100, UserType.BUYER);\n        }\n\n        // userId should not be null | Comparing userId string with Null String\n        require(keccak256(bytes(newUser.userId)) != keccak256(bytes(NULL_STRING)));\n        // map user address to its details\n        userAddress[msg.sender] = newUser;\n    }\n\n    // [WORKING] PUBLISH COMPONENT - Modifier: onlySeller\n    // This function accepts the component's name, its uuid, price and a description and none of the codes\n    // and stores this information onto the blockchain.\n    function publishComponent(string memory name, string memory componentId, uint price, string memory description) onlyUserType(UserType.SELLER) payable public{\n        Component memory newComponent = Component(name, componentId, price, false, userAddress[msg.sender].userId, description);\n        // push new component to all component list\n        components.push(newComponent);\n        // map owner of the new component\n        componentOwner[componentId] = msg.sender;\n        // map componentId to its details\n        componentDetails[componentId] = newComponent;\n    }\n\n    // [WORKING] GET ALL COMPONENTS\n    function getAllComponents() view public returns(Component[] memory) {\n        return components;\n    }\n\n    // [WORKING] GET COMPONENT OWNER\n    function getOwnerDetails(string memory componentId) view public returns(address, User memory) {\n        return (componentOwner[componentId], userAddress[componentOwner[componentId]]);\n    }\n\n    // GET ANY USER from Registered Users\n    function getUser() view public returns (User memory){\n        return userAddress[msg.sender];\n    }\n\n    // [WORKING] GET COMPONENT DETAILS\n    function getComponentDetails(string memory componentId) view public returns (Component memory) {\n        return componentDetails[componentId];\n    }\n\n    // ADD REQUEST\n    function addRequest(string memory description, string memory reqId, string memory timestamp) public {\n        Request memory temp = Request(description, reqId, timestamp);\n        // Push new request to all request list\n        requests.push(temp);\n    }\n\n    // GET ALL REQUESTS\n    function getAllRequests() view public returns(Request[] memory){\n        return requests;\n    }\n\n    // [WORKING] PURCHASE COMPONENT - Modifier: Owner can not purchase himself/herself. - onlyBuyer\n    function purchaseComponent(string memory componentId) payable onlyUserType(UserType.BUYER) public {\n\n        // GET OWNER ADDRESS\n        address payable ownerAddress = payable(componentOwner[componentId]);\n\n        // sell the component\n        componentDetails[componentId].isSold = true;\n        componentDetails[componentId].ownerUUID = userAddress[msg.sender].userId;\n\n        // change components list\n        for(uint i=0; i<components.length; i++){\n            if(keccak256(bytes(components[i].componentId)) == keccak256(bytes(componentId))){\n                // found\n                components[i].isSold = true;\n                components[i].ownerUUID = userAddress[msg.sender].userId;\n                break;\n            }\n        }\n\n        // transfer component mapping to buyer\n        componentOwner[componentId] = msg.sender;\n\n        // Pay Owner\n        fcInterface.transferFrom(msg.sender, ownerAddress, componentDetails[componentId].price);\n\n        // Change balances\n        userAddress[msg.sender].balance = fcInterface.balanceOf(msg.sender); // BUYER\n        userAddress[ownerAddress].balance = fcInterface.balanceOf(ownerAddress); // SELLER\n    }\n}\n",
  "sourcePath": "/Users/rahulsharma/Desktop/BlockChain-Sandbox/FrontChain/contracts/FrontChain.sol",
  "compiler": {
    "name": "solc",
    "version": "0.8.12+commit.f00d7308.Emscripten.clang"
  },
  "schemaVersion": "3.4.6",
  "updatedAt": "2022-04-25T06:54:04.194Z",
  "networkType": "ethereum",
  "devdoc": {
    "kind": "dev",
    "methods": {},
    "version": 1
  },
  "userdoc": {
    "kind": "user",
    "methods": {},
    "version": 1
  }
}