{
  "contractName": "FrontChain",
  "abi": [
    {
      "inputs": [],
      "stateMutability": "nonpayable",
      "type": "constructor"
    },
    {
      "anonymous": false,
      "inputs": [
        {
          "indexed": true,
          "internalType": "address",
          "name": "from",
          "type": "address"
        },
        {
          "indexed": true,
          "internalType": "address",
          "name": "to",
          "type": "address"
        },
        {
          "indexed": false,
          "internalType": "uint256",
          "name": "amount",
          "type": "uint256"
        }
      ],
      "name": "Transfer",
      "type": "event"
    },
    {
      "inputs": [],
      "name": "FC_ADDRESS",
      "outputs": [
        {
          "internalType": "address",
          "name": "",
          "type": "address"
        }
      ],
      "stateMutability": "view",
      "type": "function",
      "constant": true
    },
    {
      "inputs": [],
      "name": "getFCStartingBalance",
      "outputs": [
        {
          "internalType": "uint256",
          "name": "",
          "type": "uint256"
        },
        {
          "internalType": "uint256",
          "name": "",
          "type": "uint256"
        }
      ],
      "stateMutability": "view",
      "type": "function",
      "constant": true
    },
    {
      "inputs": [],
      "name": "getFCUserBalance",
      "outputs": [
        {
          "internalType": "uint256",
          "name": "",
          "type": "uint256"
        }
      ],
      "stateMutability": "view",
      "type": "function",
      "constant": true
    },
    {
      "inputs": [],
      "name": "isUserCeo",
      "outputs": [
        {
          "internalType": "bool",
          "name": "",
          "type": "bool"
        }
      ],
      "stateMutability": "view",
      "type": "function",
      "constant": true
    },
    {
      "inputs": [
        {
          "internalType": "string",
          "name": "name",
          "type": "string"
        },
        {
          "internalType": "string",
          "name": "userId",
          "type": "string"
        },
        {
          "internalType": "uint256",
          "name": "userType",
          "type": "uint256"
        }
      ],
      "name": "registerUser",
      "outputs": [],
      "stateMutability": "payable",
      "type": "function",
      "payable": true
    },
    {
      "inputs": [
        {
          "internalType": "string",
          "name": "name",
          "type": "string"
        },
        {
          "internalType": "string",
          "name": "componentId",
          "type": "string"
        },
        {
          "internalType": "uint256",
          "name": "price",
          "type": "uint256"
        },
        {
          "internalType": "string",
          "name": "description",
          "type": "string"
        }
      ],
      "name": "publishComponent",
      "outputs": [],
      "stateMutability": "payable",
      "type": "function",
      "payable": true
    },
    {
      "inputs": [],
      "name": "getAllComponents",
      "outputs": [
        {
          "components": [
            {
              "internalType": "string",
              "name": "name",
              "type": "string"
            },
            {
              "internalType": "string",
              "name": "componentId",
              "type": "string"
            },
            {
              "internalType": "uint256",
              "name": "price",
              "type": "uint256"
            },
            {
              "internalType": "bool",
              "name": "isSold",
              "type": "bool"
            },
            {
              "internalType": "string",
              "name": "ownerUUID",
              "type": "string"
            },
            {
              "internalType": "string",
              "name": "description",
              "type": "string"
            }
          ],
          "internalType": "struct FrontChain.Component[]",
          "name": "",
          "type": "tuple[]"
        }
      ],
      "stateMutability": "view",
      "type": "function",
      "constant": true
    },
    {
      "inputs": [
        {
          "internalType": "string",
          "name": "componentId",
          "type": "string"
        }
      ],
      "name": "getOwnerDetails",
      "outputs": [
        {
          "internalType": "address",
          "name": "",
          "type": "address"
        },
        {
          "components": [
            {
              "internalType": "string",
              "name": "name",
              "type": "string"
            },
            {
              "internalType": "string",
              "name": "userId",
              "type": "string"
            },
            {
              "internalType": "uint256",
              "name": "balance",
              "type": "uint256"
            },
            {
              "internalType": "enum FrontChain.UserType",
              "name": "userType",
              "type": "uint8"
            }
          ],
          "internalType": "struct FrontChain.User",
          "name": "",
          "type": "tuple"
        }
      ],
      "stateMutability": "view",
      "type": "function",
      "constant": true
    },
    {
      "inputs": [],
      "name": "getUser",
      "outputs": [
        {
          "components": [
            {
              "internalType": "string",
              "name": "name",
              "type": "string"
            },
            {
              "internalType": "string",
              "name": "userId",
              "type": "string"
            },
            {
              "internalType": "uint256",
              "name": "balance",
              "type": "uint256"
            },
            {
              "internalType": "enum FrontChain.UserType",
              "name": "userType",
              "type": "uint8"
            }
          ],
          "internalType": "struct FrontChain.User",
          "name": "",
          "type": "tuple"
        }
      ],
      "stateMutability": "view",
      "type": "function",
      "constant": true
    },
    {
      "inputs": [
        {
          "internalType": "string",
          "name": "componentId",
          "type": "string"
        }
      ],
      "name": "getComponentDetails",
      "outputs": [
        {
          "components": [
            {
              "internalType": "string",
              "name": "name",
              "type": "string"
            },
            {
              "internalType": "string",
              "name": "componentId",
              "type": "string"
            },
            {
              "internalType": "uint256",
              "name": "price",
              "type": "uint256"
            },
            {
              "internalType": "bool",
              "name": "isSold",
              "type": "bool"
            },
            {
              "internalType": "string",
              "name": "ownerUUID",
              "type": "string"
            },
            {
              "internalType": "string",
              "name": "description",
              "type": "string"
            }
          ],
          "internalType": "struct FrontChain.Component",
          "name": "",
          "type": "tuple"
        }
      ],
      "stateMutability": "view",
      "type": "function",
      "constant": true
    },
    {
      "inputs": [
        {
          "internalType": "string",
          "name": "description",
          "type": "string"
        },
        {
          "internalType": "string",
          "name": "reqId",
          "type": "string"
        },
        {
          "internalType": "string",
          "name": "timestamp",
          "type": "string"
        }
      ],
      "name": "addRequest",
      "outputs": [],
      "stateMutability": "nonpayable",
      "type": "function"
    },
    {
      "inputs": [],
      "name": "getAllRequests",
      "outputs": [
        {
          "components": [
            {
              "internalType": "string",
              "name": "description",
              "type": "string"
            },
            {
              "internalType": "string",
              "name": "reqId",
              "type": "string"
            },
            {
              "internalType": "string",
              "name": "timestamp",
              "type": "string"
            }
          ],
          "internalType": "struct FrontChain.Request[]",
          "name": "",
          "type": "tuple[]"
        }
      ],
      "stateMutability": "view",
      "type": "function",
      "constant": true
    },
    {
      "inputs": [
        {
          "internalType": "string",
          "name": "componentId",
          "type": "string"
        }
      ],
      "name": "purchaseComponent",
      "outputs": [],
      "stateMutability": "payable",
      "type": "function",
      "payable": true
    }
  ],
  "bytecode": "0x6080604052734fd550913dd3e93f8dd0312f92f47d5b3b50e8c8600760006101000a81548173ffffffffffffffffffffffffffffffffffffffff021916908373ffffffffffffffffffffffffffffffffffffffff16021790555034801561006557600080fd5b5033600660006101000a81548173ffffffffffffffffffffffffffffffffffffffff021916908373ffffffffffffffffffffffffffffffffffffffff160217905550612e33806100b66000396000f3fe6080604052600436106100c25760003560e01c8063832880e71161007f578063d6a636ec11610059578063d6a636ec1461024f578063d6b5da081461027b578063f209e74f146102a6578063fb1a002a146102c2576100c2565b8063832880e7146101df578063b27d11841461020a578063b63ebba014610233576100c2565b806308fcf6e5146100c75780630ecada53146101055780632b31ce341461013057806349a0b0b11461015b57806366fadf0b1461019857806373c480a1146101c3575b600080fd5b3480156100d357600080fd5b506100ee60048036038101906100e99190612180565b6102ed565b6040516100fc92919061238c565b60405180910390f35b34801561011157600080fd5b5061011a610532565b60405161012791906123cb565b60405180910390f35b34801561013c57600080fd5b506101456105d5565b6040516101529190612401565b60405180910390f35b34801561016757600080fd5b50610182600480360381019061017d9190612180565b61062d565b60405161018f91906124c9565b60405180910390f35b3480156101a457600080fd5b506101ad6108d2565b6040516101ba919061264b565b60405180910390f35b6101dd60048036038101906101d89190612180565b610b9e565b005b3480156101eb57600080fd5b506101f461112d565b604051610201919061266d565b60405180910390f35b34801561021657600080fd5b50610231600480360381019061022c919061268f565b6112ed565b005b61024d60048036038101906102489190612762565b611397565b005b34801561025b57600080fd5b50610264611707565b60405161027292919061281d565b60405180910390f35b34801561028757600080fd5b506102906117cf565b60405161029d9190612846565b60405180910390f35b6102c060048036038101906102bb9190612861565b6117e7565b005b3480156102ce57600080fd5b506102d7611c6f565b6040516102e49190612a0c565b60405180910390f35b60006102f7611e84565b6000836040516103079190612a6a565b908152602001604051809103902060009054906101000a900473ffffffffffffffffffffffffffffffffffffffff166003600080866040516103499190612a6a565b908152602001604051809103902060009054906101000a900473ffffffffffffffffffffffffffffffffffffffff1673ffffffffffffffffffffffffffffffffffffffff1673ffffffffffffffffffffffffffffffffffffffff168152602001908152602001600020806040518060800160405290816000820180546103ce90612ab0565b80601f01602080910402602001604051908101604052809291908181526020018280546103fa90612ab0565b80156104475780601f1061041c57610100808354040283529160200191610447565b820191906000526020600020905b81548152906001019060200180831161042a57829003601f168201915b5050505050815260200160018201805461046090612ab0565b80601f016020809104026020016040519081016040528092919081815260200182805461048c90612ab0565b80156104d95780601f106104ae576101008083540402835291602001916104d9565b820191906000526020600020905b8154815290600101906020018083116104bc57829003601f168201915b50505050508152602001600282015481526020016003820160009054906101000a900460ff166002811115610511576105106122ab565b5b6002811115610523576105226122ab565b5b81525050905091509150915091565b6000600760009054906101000a900473ffffffffffffffffffffffffffffffffffffffff1673ffffffffffffffffffffffffffffffffffffffff166370a08231336040518263ffffffff1660e01b815260040161058f9190612846565b602060405180830381865afa1580156105ac573d6000803e3d6000fd5b505050506040513d601f19601f820116820180604052508101906105d09190612af7565b905090565b6000600660009054906101000a900473ffffffffffffffffffffffffffffffffffffffff1673ffffffffffffffffffffffffffffffffffffffff163373ffffffffffffffffffffffffffffffffffffffff1614905090565b610635611ebe565b6001826040516106459190612a6a565b90815260200160405180910390206040518060c001604052908160008201805461066e90612ab0565b80601f016020809104026020016040519081016040528092919081815260200182805461069a90612ab0565b80156106e75780601f106106bc576101008083540402835291602001916106e7565b820191906000526020600020905b8154815290600101906020018083116106ca57829003601f168201915b5050505050815260200160018201805461070090612ab0565b80601f016020809104026020016040519081016040528092919081815260200182805461072c90612ab0565b80156107795780601f1061074e57610100808354040283529160200191610779565b820191906000526020600020905b81548152906001019060200180831161075c57829003601f168201915b50505050508152602001600282015481526020016003820160009054906101000a900460ff161515151581526020016004820180546107b790612ab0565b80601f01602080910402602001604051908101604052809291908181526020018280546107e390612ab0565b80156108305780601f1061080557610100808354040283529160200191610830565b820191906000526020600020905b81548152906001019060200180831161081357829003601f168201915b5050505050815260200160058201805461084990612ab0565b80601f016020809104026020016040519081016040528092919081815260200182805461087590612ab0565b80156108c25780601f10610897576101008083540402835291602001916108c2565b820191906000526020600020905b8154815290600101906020018083116108a557829003601f168201915b5050505050815250509050919050565b60606002805480602002602001604051908101604052809291908181526020016000905b82821015610b9557838290600052602060002090600602016040518060c001604052908160008201805461092990612ab0565b80601f016020809104026020016040519081016040528092919081815260200182805461095590612ab0565b80156109a25780601f10610977576101008083540402835291602001916109a2565b820191906000526020600020905b81548152906001019060200180831161098557829003601f168201915b505050505081526020016001820180546109bb90612ab0565b80601f01602080910402602001604051908101604052809291908181526020018280546109e790612ab0565b8015610a345780601f10610a0957610100808354040283529160200191610a34565b820191906000526020600020905b815481529060010190602001808311610a1757829003601f168201915b50505050508152602001600282015481526020016003820160009054906101000a900460ff16151515158152602001600482018054610a7290612ab0565b80601f0160208091040260200160405190810160405280929190818152602001828054610a9e90612ab0565b8015610aeb5780601f10610ac057610100808354040283529160200191610aeb565b820191906000526020600020905b815481529060010190602001808311610ace57829003601f168201915b50505050508152602001600582018054610b0490612ab0565b80601f0160208091040260200160405190810160405280929190818152602001828054610b3090612ab0565b8015610b7d5780601f10610b5257610100808354040283529160200191610b7d565b820191906000526020600020905b815481529060010190602001808311610b6057829003601f168201915b505050505081525050815260200190600101906108f6565b50505050905090565b6001806002811115610bb357610bb26122ab565b5b600360003373ffffffffffffffffffffffffffffffffffffffff1673ffffffffffffffffffffffffffffffffffffffff16815260200190815260200160002060030160009054906101000a900460ff166002811115610c1557610c146122ab565b5b14610c1f57600080fd5b60008083604051610c309190612a6a565b908152602001604051809103902060009054906101000a900473ffffffffffffffffffffffffffffffffffffffff16905060018084604051610c729190612a6a565b908152602001604051809103902060030160006101000a81548160ff021916908315150217905550600360003373ffffffffffffffffffffffffffffffffffffffff1673ffffffffffffffffffffffffffffffffffffffff168152602001908152602001600020600101600184604051610cec9190612a6a565b9081526020016040518091039020600401908054610d0990612ab0565b610d14929190611ef6565b5060005b600280549050811015610e4257838051906020012060028281548110610d4157610d40612b24565b5b9060005260206000209060060201600101604051610d5f9190612bf2565b60405180910390201415610e2f57600160028281548110610d8357610d82612b24565b5b906000526020600020906006020160030160006101000a81548160ff021916908315150217905550600360003373ffffffffffffffffffffffffffffffffffffffff1673ffffffffffffffffffffffffffffffffffffffff16815260200190815260200160002060010160028281548110610e0157610e00612b24565b5b9060005260206000209060060201600401908054610e1e90612ab0565b610e29929190611ef6565b50610e42565b8080610e3a90612c38565b915050610d18565b5033600084604051610e549190612a6a565b908152602001604051809103902060006101000a81548173ffffffffffffffffffffffffffffffffffffffff021916908373ffffffffffffffffffffffffffffffffffffffff160217905550600760009054906101000a900473ffffffffffffffffffffffffffffffffffffffff1673ffffffffffffffffffffffffffffffffffffffff166323b872dd3383600187604051610ef09190612a6a565b9081526020016040518091039020600201546040518463ffffffff1660e01b8152600401610f2093929190612ce0565b6020604051808303816000875af1158015610f3f573d6000803e3d6000fd5b505050506040513d601f19601f82011682018060405250810190610f639190612d43565b50600760009054906101000a900473ffffffffffffffffffffffffffffffffffffffff1673ffffffffffffffffffffffffffffffffffffffff166370a08231336040518263ffffffff1660e01b8152600401610fbf9190612846565b602060405180830381865afa158015610fdc573d6000803e3d6000fd5b505050506040513d601f19601f820116820180604052508101906110009190612af7565b600360003373ffffffffffffffffffffffffffffffffffffffff1673ffffffffffffffffffffffffffffffffffffffff16815260200190815260200160002060020181905550600760009054906101000a900473ffffffffffffffffffffffffffffffffffffffff1673ffffffffffffffffffffffffffffffffffffffff166370a08231826040518263ffffffff1660e01b81526004016110a19190612d70565b602060405180830381865afa1580156110be573d6000803e3d6000fd5b505050506040513d601f19601f820116820180604052508101906110e29190612af7565b600360008373ffffffffffffffffffffffffffffffffffffffff1673ffffffffffffffffffffffffffffffffffffffff16815260200190815260200160002060020181905550505050565b611135611e84565b600360003373ffffffffffffffffffffffffffffffffffffffff1673ffffffffffffffffffffffffffffffffffffffff16815260200190815260200160002060405180608001604052908160008201805461118f90612ab0565b80601f01602080910402602001604051908101604052809291908181526020018280546111bb90612ab0565b80156112085780601f106111dd57610100808354040283529160200191611208565b820191906000526020600020905b8154815290600101906020018083116111eb57829003601f168201915b5050505050815260200160018201805461122190612ab0565b80601f016020809104026020016040519081016040528092919081815260200182805461124d90612ab0565b801561129a5780601f1061126f5761010080835404028352916020019161129a565b820191906000526020600020905b81548152906001019060200180831161127d57829003601f168201915b50505050508152602001600282015481526020016003820160009054906101000a900460ff1660028111156112d2576112d16122ab565b5b60028111156112e4576112e36122ab565b5b81525050905090565b6000604051806060016040528085815260200184815260200183815250905060058190806001815401808255809150506001900390600052602060002090600302016000909190919091506000820151816000019080519060200190611354929190611f83565b506020820151816001019080519060200190611371929190611f83565b50604082015181600201908051906020019061138e929190611f83565b50505050505050565b60008060028111156113ac576113ab6122ab565b5b600360003373ffffffffffffffffffffffffffffffffffffffff1673ffffffffffffffffffffffffffffffffffffffff16815260200190815260200160002060030160009054906101000a900460ff16600281111561140e5761140d6122ab565b5b1461141857600080fd5b60006040518060c00160405280878152602001868152602001858152602001600015158152602001600360003373ffffffffffffffffffffffffffffffffffffffff1673ffffffffffffffffffffffffffffffffffffffff168152602001908152602001600020600101805461148d90612ab0565b80601f01602080910402602001604051908101604052809291908181526020018280546114b990612ab0565b80156115065780601f106114db57610100808354040283529160200191611506565b820191906000526020600020905b8154815290600101906020018083116114e957829003601f168201915b505050505081526020018481525090506002819080600181540180825580915050600190039060005260206000209060060201600090919091909150600082015181600001908051906020019061155e929190611f83565b50602082015181600101908051906020019061157b929190611f83565b506040820151816002015560608201518160030160006101000a81548160ff02191690831515021790555060808201518160040190805190602001906115c2929190611f83565b5060a08201518160050190805190602001906115df929190611f83565b505050336000866040516115f39190612a6a565b908152602001604051809103902060006101000a81548173ffffffffffffffffffffffffffffffffffffffff021916908373ffffffffffffffffffffffffffffffffffffffff160217905550806001866040516116509190612a6a565b9081526020016040518091039020600082015181600001908051906020019061167a929190611f83565b506020820151816001019080519060200190611697929190611f83565b506040820151816002015560608201518160030160006101000a81548160ff02191690831515021790555060808201518160040190805190602001906116de929190611f83565b5060a08201518160050190805190602001906116fb929190611f83565b50905050505050505050565b600080600760009054906101000a900473ffffffffffffffffffffffffffffffffffffffff1673ffffffffffffffffffffffffffffffffffffffff166318160ddd6040518163ffffffff1660e01b8152600401602060405180830381865afa158015611777573d6000803e3d6000fd5b505050506040513d601f19601f8201168201806040525081019061179b9190612af7565b734fd550913dd3e93f8dd0312f92f47d5b3b50e8c873ffffffffffffffffffffffffffffffffffffffff1631915091509091565b734fd550913dd3e93f8dd0312f92f47d5b3b50e8c881565b6117ef611e84565b600660009054906101000a900473ffffffffffffffffffffffffffffffffffffffff1673ffffffffffffffffffffffffffffffffffffffff163373ffffffffffffffffffffffffffffffffffffffff16141561191a576040518060800160405280858152602001848152602001600760009054906101000a900473ffffffffffffffffffffffffffffffffffffffff1673ffffffffffffffffffffffffffffffffffffffff166370a08231336040518263ffffffff1660e01b81526004016118b79190612846565b602060405180830381865afa1580156118d4573d6000803e3d6000fd5b505050506040513d601f19601f820116820180604052508101906118f89190612af7565b81526020016002808111156119105761190f6122ab565b5b8152509050611b84565b600760009054906101000a900473ffffffffffffffffffffffffffffffffffffffff1673ffffffffffffffffffffffffffffffffffffffff166323b872dd600660009054906101000a900473ffffffffffffffffffffffffffffffffffffffff163360646040518463ffffffff1660e01b815260040161199c93929190612dc6565b6020604051808303816000875af11580156119bb573d6000803e3d6000fd5b505050506040513d601f19601f820116820180604052508101906119df9190612d43565b50600760009054906101000a900473ffffffffffffffffffffffffffffffffffffffff1673ffffffffffffffffffffffffffffffffffffffff166370a08231600660009054906101000a900473ffffffffffffffffffffffffffffffffffffffff166040518263ffffffff1660e01b8152600401611a5d9190612846565b602060405180830381865afa158015611a7a573d6000803e3d6000fd5b505050506040513d601f19601f82011682018060405250810190611a9e9190612af7565b60036000600660009054906101000a900473ffffffffffffffffffffffffffffffffffffffff1673ffffffffffffffffffffffffffffffffffffffff1673ffffffffffffffffffffffffffffffffffffffff168152602001908152602001600020600201819055506000821415611b4b5760405180608001604052808581526020018481526020016064815260200160006002811115611b4157611b406122ab565b5b8152509050611b83565b60405180608001604052808581526020018481526020016064815260200160016002811115611b7d57611b7c6122ab565b5b81525090505b5b60405180602001604052806000815250805190602001208160200151805190602001201415611bb257600080fd5b80600360003373ffffffffffffffffffffffffffffffffffffffff1673ffffffffffffffffffffffffffffffffffffffff1681526020019081526020016000206000820151816000019080519060200190611c0e929190611f83565b506020820151816001019080519060200190611c2b929190611f83565b506040820151816002015560608201518160030160006101000a81548160ff02191690836002811115611c6157611c606122ab565b5b021790555090505050505050565b60606005805480602002602001604051908101604052809291908181526020016000905b82821015611e7b5783829060005260206000209060030201604051806060016040529081600082018054611cc690612ab0565b80601f0160208091040260200160405190810160405280929190818152602001828054611cf290612ab0565b8015611d3f5780601f10611d1457610100808354040283529160200191611d3f565b820191906000526020600020905b815481529060010190602001808311611d2257829003601f168201915b50505050508152602001600182018054611d5890612ab0565b80601f0160208091040260200160405190810160405280929190818152602001828054611d8490612ab0565b8015611dd15780601f10611da657610100808354040283529160200191611dd1565b820191906000526020600020905b815481529060010190602001808311611db457829003601f168201915b50505050508152602001600282018054611dea90612ab0565b80601f0160208091040260200160405190810160405280929190818152602001828054611e1690612ab0565b8015611e635780601f10611e3857610100808354040283529160200191611e63565b820191906000526020600020905b815481529060010190602001808311611e4657829003601f168201915b50505050508152505081526020019060010190611c93565b50505050905090565b604051806080016040528060608152602001606081526020016000815260200160006002811115611eb857611eb76122ab565b5b81525090565b6040518060c0016040528060608152602001606081526020016000815260200160001515815260200160608152602001606081525090565b828054611f0290612ab0565b90600052602060002090601f016020900481019282611f245760008555611f72565b82601f10611f355780548555611f72565b82800160010185558215611f7257600052602060002091601f016020900482015b82811115611f71578254825591600101919060010190611f56565b5b509050611f7f9190612009565b5090565b828054611f8f90612ab0565b90600052602060002090601f016020900481019282611fb15760008555611ff8565b82601f10611fca57805160ff1916838001178555611ff8565b82800160010185558215611ff8579182015b82811115611ff7578251825591602001919060010190611fdc565b5b5090506120059190612009565b5090565b5b8082111561202257600081600090555060010161200a565b5090565b6000604051905090565b600080fd5b600080fd5b600080fd5b600080fd5b6000601f19601f8301169050919050565b7f4e487b7100000000000000000000000000000000000000000000000000000000600052604160045260246000fd5b61208d82612044565b810181811067ffffffffffffffff821117156120ac576120ab612055565b5b80604052505050565b60006120bf612026565b90506120cb8282612084565b919050565b600067ffffffffffffffff8211156120eb576120ea612055565b5b6120f482612044565b9050602081019050919050565b82818337600083830152505050565b600061212361211e846120d0565b6120b5565b90508281526020810184848401111561213f5761213e61203f565b5b61214a848285612101565b509392505050565b600082601f8301126121675761216661203a565b5b8135612177848260208601612110565b91505092915050565b60006020828403121561219657612195612030565b5b600082013567ffffffffffffffff8111156121b4576121b3612035565b5b6121c084828501612152565b91505092915050565b600073ffffffffffffffffffffffffffffffffffffffff82169050919050565b60006121f4826121c9565b9050919050565b612204816121e9565b82525050565b600081519050919050565b600082825260208201905092915050565b60005b83811015612244578082015181840152602081019050612229565b83811115612253576000848401525b50505050565b60006122648261220a565b61226e8185612215565b935061227e818560208601612226565b61228781612044565b840191505092915050565b6000819050919050565b6122a581612292565b82525050565b7f4e487b7100000000000000000000000000000000000000000000000000000000600052602160045260246000fd5b600381106122eb576122ea6122ab565b5b50565b60008190506122fc826122da565b919050565b600061230c826122ee565b9050919050565b61231c81612301565b82525050565b6000608083016000830151848203600086015261233f8282612259565b915050602083015184820360208601526123598282612259565b915050604083015161236e604086018261229c565b5060608301516123816060860182612313565b508091505092915050565b60006040820190506123a160008301856121fb565b81810360208301526123b38184612322565b90509392505050565b6123c581612292565b82525050565b60006020820190506123e060008301846123bc565b92915050565b60008115159050919050565b6123fb816123e6565b82525050565b600060208201905061241660008301846123f2565b92915050565b612425816123e6565b82525050565b600060c08301600083015184820360008601526124488282612259565b915050602083015184820360208601526124628282612259565b9150506040830151612477604086018261229c565b50606083015161248a606086018261241c565b50608083015184820360808601526124a28282612259565b91505060a083015184820360a08601526124bc8282612259565b9150508091505092915050565b600060208201905081810360008301526124e3818461242b565b905092915050565b600081519050919050565b600082825260208201905092915050565b6000819050602082019050919050565b600060c08301600083015184820360008601526125348282612259565b9150506020830151848203602086015261254e8282612259565b9150506040830151612563604086018261229c565b506060830151612576606086018261241c565b506080830151848203608086015261258e8282612259565b91505060a083015184820360a08601526125a88282612259565b9150508091505092915050565b60006125c18383612517565b905092915050565b6000602082019050919050565b60006125e1826124eb565b6125eb81856124f6565b9350836020820285016125fd85612507565b8060005b85811015612639578484038952815161261a85826125b5565b9450612625836125c9565b925060208a01995050600181019050612601565b50829750879550505050505092915050565b6000602082019050818103600083015261266581846125d6565b905092915050565b600060208201905081810360008301526126878184612322565b905092915050565b6000806000606084860312156126a8576126a7612030565b5b600084013567ffffffffffffffff8111156126c6576126c5612035565b5b6126d286828701612152565b935050602084013567ffffffffffffffff8111156126f3576126f2612035565b5b6126ff86828701612152565b925050604084013567ffffffffffffffff8111156127205761271f612035565b5b61272c86828701612152565b9150509250925092565b61273f81612292565b811461274a57600080fd5b50565b60008135905061275c81612736565b92915050565b6000806000806080858703121561277c5761277b612030565b5b600085013567ffffffffffffffff81111561279a57612799612035565b5b6127a687828801612152565b945050602085013567ffffffffffffffff8111156127c7576127c6612035565b5b6127d387828801612152565b93505060406127e48782880161274d565b925050606085013567ffffffffffffffff81111561280557612804612035565b5b61281187828801612152565b91505092959194509250565b600060408201905061283260008301856123bc565b61283f60208301846123bc565b9392505050565b600060208201905061285b60008301846121fb565b92915050565b60008060006060848603121561287a57612879612030565b5b600084013567ffffffffffffffff81111561289857612897612035565b5b6128a486828701612152565b935050602084013567ffffffffffffffff8111156128c5576128c4612035565b5b6128d186828701612152565b92505060406128e28682870161274d565b9150509250925092565b600081519050919050565b600082825260208201905092915050565b6000819050602082019050919050565b600060608301600083015184820360008601526129358282612259565b9150506020830151848203602086015261294f8282612259565b915050604083015184820360408601526129698282612259565b9150508091505092915050565b60006129828383612918565b905092915050565b6000602082019050919050565b60006129a2826128ec565b6129ac81856128f7565b9350836020820285016129be85612908565b8060005b858110156129fa57848403895281516129db8582612976565b94506129e68361298a565b925060208a019950506001810190506129c2565b50829750879550505050505092915050565b60006020820190508181036000830152612a268184612997565b905092915050565b600081905092915050565b6000612a448261220a565b612a4e8185612a2e565b9350612a5e818560208601612226565b80840191505092915050565b6000612a768284612a39565b915081905092915050565b7f4e487b7100000000000000000000000000000000000000000000000000000000600052602260045260246000fd5b60006002820490506001821680612ac857607f821691505b60208210811415612adc57612adb612a81565b5b50919050565b600081519050612af181612736565b92915050565b600060208284031215612b0d57612b0c612030565b5b6000612b1b84828501612ae2565b91505092915050565b7f4e487b7100000000000000000000000000000000000000000000000000000000600052603260045260246000fd5b600081905092915050565b60008190508160005260206000209050919050565b60008154612b8081612ab0565b612b8a8186612b53565b94506001821660008114612ba55760018114612bb657612be9565b60ff19831686528186019350612be9565b612bbf85612b5e565b60005b83811015612be157815481890152600182019150602081019050612bc2565b838801955050505b50505092915050565b6000612bfe8284612b73565b915081905092915050565b7f4e487b7100000000000000000000000000000000000000000000000000000000600052601160045260246000fd5b6000612c4382612292565b91507fffffffffffffffffffffffffffffffffffffffffffffffffffffffffffffffff821415612c7657612c75612c09565b5b600182019050919050565b6000819050919050565b6000612ca6612ca1612c9c846121c9565b612c81565b6121c9565b9050919050565b6000612cb882612c8b565b9050919050565b6000612cca82612cad565b9050919050565b612cda81612cbf565b82525050565b6000606082019050612cf560008301866121fb565b612d026020830185612cd1565b612d0f60408301846123bc565b949350505050565b612d20816123e6565b8114612d2b57600080fd5b50565b600081519050612d3d81612d17565b92915050565b600060208284031215612d5957612d58612030565b5b6000612d6784828501612d2e565b91505092915050565b6000602082019050612d856000830184612cd1565b92915050565b6000819050919050565b6000612db0612dab612da684612d8b565b612c81565b612292565b9050919050565b612dc081612d95565b82525050565b6000606082019050612ddb60008301866121fb565b612de860208301856121fb565b612df56040830184612db7565b94935050505056fea2646970667358221220d71aa4cb8acb7281112f52be10acb6bc672ddbe86eb1b08f9a63eacee9a980f264736f6c634300080c0033",
  "immutableReferences": {},
  "source": "// SPDX-License-Identifier: MIT\n\npragma solidity ^0.8.12;\n\ninterface FrontCoinInterface {\n    function totalSupply() external view returns (uint256);\n    function transferFrom(address owner, address buyer, uint numTokens) external returns (bool);\n    function balanceOf(address tokenOwner) external view returns (uint);\n}\n\ncontract FrontChain {\n\n    // Struct component used to store the frontend component basic information\n    // It doesn't store the actual codes. Instead it stores a unique UUID which identifies\n    // it uniquely and can be used to fetch the component's codes through a central server.\n    struct Component {\n        string name;\n        string componentId; // UUID for components\n        uint price;\n        bool isSold;\n        string ownerUUID;\n        string description;\n    }\n    // MAPPING: componentId => owner\n    mapping(string => address) componentOwner;\n    // MAPPING: componentId => Component : To get the component details\n    mapping(string => Component) componentDetails;\n    // Stores all components\n    Component[] components;\n\n    // Used to store information regarding the user. Every user is identified uniquely by \n    // a userId which is a unique UUID generated at the time of Register from the DAPP UI.\n    struct User{\n        string name;\n        string userId;\n        uint balance;\n        UserType userType;\n    }\n    // MAPPING: address => User\n    mapping(address => User) userAddress;\n    // ENUM: user type | SELLER => 0; BUYER => 1\n    enum UserType{ SELLER, BUYER, CEO }\n\n    // Stores the information about any feature request for any FE component that is needed by \n    // the user\n    struct Request{\n        string description;\n        string reqId; // UUID for request | React\n        string timestamp;\n    }\n    // MAPPING: reqId => Request\n    mapping(string => Request) requestMap;\n    // Stores all requests\n    Request[] requests;\n\n    // stores the address of the contract deployer\n    address ceo;\n\n    // stored to compare null string values with\n    string constant NULL_STRING = '';\n\n    // Transfer event for cryptocurrency transfer between two accounts.\n    event Transfer(address indexed from, address indexed to, uint amount);\n\n    address public constant FC_ADDRESS = 0x4fD550913Dd3e93F8DD0312f92F47d5B3B50e8c8;\n    \n    FrontCoinInterface fcInterface = FrontCoinInterface(FC_ADDRESS);\n\n    constructor() {\n        ceo = msg.sender;\n    }\n\n    // Generic modifier based on enum UserType\n    modifier onlyUserType(UserType userType){\n        require(userAddress[msg.sender].userType == userType);\n        _;\n    }\n\n    modifier onlyBuyerAndCeo{\n        require(userAddress[msg.sender].userType == UserType.BUYER || msg.sender == ceo);\n        _;\n    }\n\n    modifier onlyCeo{\n        require(msg.sender == ceo);\n        _;\n    }\n\n    function getFCStartingBalance() view public returns (uint256, uint256) {\n        return (fcInterface.totalSupply(), address(FC_ADDRESS).balance);\n    }\n\n    function getFCUserBalance() view public returns (uint256) {\n        return fcInterface.balanceOf(msg.sender);\n    }\n\n    function isUserCeo() view public returns (bool){\n        return msg.sender == ceo;\n    }\n\n    // [WORKING] REGISTER USER\n    // Registers a new user based on his user type and then maps its address with the struct User.\n    function registerUser(string memory name, string memory userId, uint userType) payable public {\n        // create new user\n        User memory newUser;\n\n        if(msg.sender == ceo){\n            // ceo registering\n            newUser = User(name, userId, fcInterface.balanceOf(msg.sender), UserType.CEO);\n        }else{\n            // other user registering\n            fcInterface.transferFrom(ceo, msg.sender, 100);\n            \n            // update balance of ceo after registration\n            userAddress[ceo].balance = fcInterface.balanceOf(ceo);\n\n            if(userType == 0)\n                newUser = User(name, userId, 100, UserType.SELLER);\n            else\n                newUser = User(name, userId, 100, UserType.BUYER);\n        }\n\n        // userId should not be null | Comparing userId string with Null String\n        require(keccak256(bytes(newUser.userId)) != keccak256(bytes(NULL_STRING)));\n        // map user address to its details\n        userAddress[msg.sender] = newUser;\n    }\n\n    // [WORKING] PUBLISH COMPONENT - Modifier: onlySeller\n    // This function accepts the component's name, its uuid, price and a description and none of the codes\n    // and stores this information onto the blockchain.\n    function publishComponent(string memory name, string memory componentId, uint price, string memory description) onlyUserType(UserType.SELLER) payable public{\n        Component memory newComponent = Component(name, componentId, price, false, userAddress[msg.sender].userId, description);\n        // push new component to all component list\n        components.push(newComponent);\n        // map owner of the new component\n        componentOwner[componentId] = msg.sender;\n        // map componentId to its details\n        componentDetails[componentId] = newComponent;\n    }\n\n    // [WORKING] GET ALL COMPONENTS\n    function getAllComponents() view public returns(Component[] memory) {\n        return components;\n    }\n\n    // [WORKING] GET COMPONENT OWNER\n    function getOwnerDetails(string memory componentId) view public returns(address, User memory) {\n        return (componentOwner[componentId], userAddress[componentOwner[componentId]]);\n    }\n\n    // GET ANY USER from Registered Users\n    function getUser() view public returns (User memory){\n        return userAddress[msg.sender];\n    }\n\n    // [WORKING] GET COMPONENT DETAILS\n    function getComponentDetails(string memory componentId) view public returns (Component memory) {\n        return componentDetails[componentId];\n    }\n\n    // ADD REQUEST\n    function addRequest(string memory description, string memory reqId, string memory timestamp) public {\n        Request memory temp = Request(description, reqId, timestamp);\n        // Push new request to all request list\n        requests.push(temp);\n    }\n\n    // GET ALL REQUESTS\n    function getAllRequests() view public returns(Request[] memory){\n        return requests;\n    }\n\n    // [WORKING] PURCHASE COMPONENT - Modifier: Owner can not purchase himself/herself. - onlyBuyer\n    function purchaseComponent(string memory componentId) payable onlyUserType(UserType.BUYER) public {\n\n        // GET OWNER ADDRESS\n        address payable ownerAddress = payable(componentOwner[componentId]);\n\n        // sell the component\n        componentDetails[componentId].isSold = true;\n        componentDetails[componentId].ownerUUID = userAddress[msg.sender].userId;\n\n        // change components list\n        for(uint i=0; i<components.length; i++){\n            if(keccak256(bytes(components[i].componentId)) == keccak256(bytes(componentId))){\n                // found\n                components[i].isSold = true;\n                components[i].ownerUUID = userAddress[msg.sender].userId;\n                break;\n            }\n        }\n\n        // transfer component mapping to buyer\n        componentOwner[componentId] = msg.sender;\n\n        // Pay Owner\n        fcInterface.transferFrom(msg.sender, ownerAddress, componentDetails[componentId].price);\n\n        // Change balances\n        userAddress[msg.sender].balance = fcInterface.balanceOf(msg.sender); // BUYER\n        userAddress[ownerAddress].balance = fcInterface.balanceOf(ownerAddress); // SELLER\n    }\n}\n",
  "sourcePath": "/Users/rahulsharma/Desktop/BlockChain-Sandbox/FrontChain/contracts/FrontChain.sol",
  "compiler": {
    "name": "solc",
    "version": "0.8.12+commit.f00d7308.Emscripten.clang"
  },
  "schemaVersion": "3.4.6",
  "updatedAt": "2022-04-24T18:49:19.349Z",
  "networkType": "ethereum",
  "devdoc": {
    "kind": "dev",
    "methods": {},
    "version": 1
  },
  "userdoc": {
    "kind": "user",
    "methods": {},
    "version": 1
  }
}