{
  "contractName": "FrontCoin",
  "abi": [
    {
      "inputs": [],
      "stateMutability": "nonpayable",
      "type": "constructor"
    },
    {
      "anonymous": false,
      "inputs": [
        {
          "indexed": true,
          "internalType": "address",
          "name": "from",
          "type": "address"
        },
        {
          "indexed": true,
          "internalType": "address",
          "name": "to",
          "type": "address"
        },
        {
          "indexed": false,
          "internalType": "uint256",
          "name": "tokens",
          "type": "uint256"
        }
      ],
      "name": "Transfer",
      "type": "event"
    },
    {
      "inputs": [],
      "name": "decimals",
      "outputs": [
        {
          "internalType": "uint8",
          "name": "",
          "type": "uint8"
        }
      ],
      "stateMutability": "view",
      "type": "function"
    },
    {
      "inputs": [],
      "name": "name",
      "outputs": [
        {
          "internalType": "string",
          "name": "",
          "type": "string"
        }
      ],
      "stateMutability": "view",
      "type": "function"
    },
    {
      "inputs": [],
      "name": "symbol",
      "outputs": [
        {
          "internalType": "string",
          "name": "",
          "type": "string"
        }
      ],
      "stateMutability": "view",
      "type": "function"
    },
    {
      "inputs": [],
      "name": "totalSupply",
      "outputs": [
        {
          "internalType": "uint256",
          "name": "",
          "type": "uint256"
        }
      ],
      "stateMutability": "view",
      "type": "function"
    },
    {
      "inputs": [
        {
          "internalType": "address",
          "name": "tokenOwner",
          "type": "address"
        }
      ],
      "name": "balanceOf",
      "outputs": [
        {
          "internalType": "uint256",
          "name": "",
          "type": "uint256"
        }
      ],
      "stateMutability": "view",
      "type": "function"
    },
    {
      "inputs": [
        {
          "internalType": "address",
          "name": "owner",
          "type": "address"
        },
        {
          "internalType": "address",
          "name": "buyer",
          "type": "address"
        },
        {
          "internalType": "uint256",
          "name": "numTokens",
          "type": "uint256"
        }
      ],
      "name": "transferFrom",
      "outputs": [
        {
          "internalType": "bool",
          "name": "",
          "type": "bool"
        }
      ],
      "stateMutability": "nonpayable",
      "type": "function"
    }
  ],
  "bytecode": "0x608060405234801561001057600080fd5b50620f4240600281905550600254600160003373ffffffffffffffffffffffffffffffffffffffff1673ffffffffffffffffffffffffffffffffffffffff16815260200190815260200160002081905550336000806101000a81548173ffffffffffffffffffffffffffffffffffffffff021916908373ffffffffffffffffffffffffffffffffffffffff160217905550610781806100b06000396000f3fe608060405234801561001057600080fd5b50600436106100625760003560e01c806306fdde031461006757806318160ddd1461008557806323b872dd146100a3578063313ce567146100d357806370a08231146100f157806395d89b4114610121575b600080fd5b61006f61013f565b60405161007c9190610491565b60405180910390f35b61008d610178565b60405161009a91906104cc565b60405180910390f35b6100bd60048036038101906100b89190610576565b610182565b6040516100ca91906105e4565b60405180910390f35b6100db61031e565b6040516100e8919061061b565b60405180910390f35b61010b60048036038101906101069190610636565b610323565b60405161011891906104cc565b60405180910390f35b61012961036c565b6040516101369190610491565b60405180910390f35b6040518060400160405280600981526020017f46524f4e54434f494e000000000000000000000000000000000000000000000081525081565b6000600254905090565b60006101d682600160008773ffffffffffffffffffffffffffffffffffffffff1673ffffffffffffffffffffffffffffffffffffffff168152602001908152602001600020546103a590919063ffffffff16565b600160008673ffffffffffffffffffffffffffffffffffffffff1673ffffffffffffffffffffffffffffffffffffffff1681526020019081526020016000208190555061026b82600160008673ffffffffffffffffffffffffffffffffffffffff1673ffffffffffffffffffffffffffffffffffffffff168152602001908152602001600020546103cc90919063ffffffff16565b600160008573ffffffffffffffffffffffffffffffffffffffff1673ffffffffffffffffffffffffffffffffffffffff168152602001908152602001600020819055508273ffffffffffffffffffffffffffffffffffffffff168473ffffffffffffffffffffffffffffffffffffffff167fddf252ad1be2c89b69c2b068fc378daa952ba7f163c4a11628f55a4df523b3ef8460405161030b91906104cc565b60405180910390a3600190509392505050565b600281565b6000600160008373ffffffffffffffffffffffffffffffffffffffff1673ffffffffffffffffffffffffffffffffffffffff168152602001908152602001600020549050919050565b6040518060400160405280600581526020017f46524f4e5400000000000000000000000000000000000000000000000000000081525081565b6000828211156103b8576103b7610663565b5b81836103c491906106c1565b905092915050565b60008082846103db91906106f5565b9050838110156103ee576103ed610663565b5b8091505092915050565b600081519050919050565b600082825260208201905092915050565b60005b83811015610432578082015181840152602081019050610417565b83811115610441576000848401525b50505050565b6000601f19601f8301169050919050565b6000610463826103f8565b61046d8185610403565b935061047d818560208601610414565b61048681610447565b840191505092915050565b600060208201905081810360008301526104ab8184610458565b905092915050565b6000819050919050565b6104c6816104b3565b82525050565b60006020820190506104e160008301846104bd565b92915050565b600080fd5b600073ffffffffffffffffffffffffffffffffffffffff82169050919050565b6000610517826104ec565b9050919050565b6105278161050c565b811461053257600080fd5b50565b6000813590506105448161051e565b92915050565b610553816104b3565b811461055e57600080fd5b50565b6000813590506105708161054a565b92915050565b60008060006060848603121561058f5761058e6104e7565b5b600061059d86828701610535565b93505060206105ae86828701610535565b92505060406105bf86828701610561565b9150509250925092565b60008115159050919050565b6105de816105c9565b82525050565b60006020820190506105f960008301846105d5565b92915050565b600060ff82169050919050565b610615816105ff565b82525050565b6000602082019050610630600083018461060c565b92915050565b60006020828403121561064c5761064b6104e7565b5b600061065a84828501610535565b91505092915050565b7f4e487b7100000000000000000000000000000000000000000000000000000000600052600160045260246000fd5b7f4e487b7100000000000000000000000000000000000000000000000000000000600052601160045260246000fd5b60006106cc826104b3565b91506106d7836104b3565b9250828210156106ea576106e9610692565b5b828203905092915050565b6000610700826104b3565b915061070b836104b3565b9250827fffffffffffffffffffffffffffffffffffffffffffffffffffffffffffffffff038211156107405761073f610692565b5b82820190509291505056fea2646970667358221220df792747e6f0a968cffd458609382fd75921f7531b4dd4b37ffbaf4c4c73bf4964736f6c634300080c0033",
  "immutableReferences": {},
  "source": "// SPDX-License-Identifier: MIT\n\npragma solidity ^0.8.12;\n\n\ncontract FrontCoin {\n\n    string public constant name = \"FRONTCOIN\";\n    string public constant symbol = \"FRONT\";\n    uint8 public constant decimals = 2; \n   \n    address ERCowner; //#1\n\n    event Transfer(address indexed from, address indexed to, uint tokens);\n\n    mapping(address => uint256) balances;\n    \n    uint256 totalSupply_;\n\n    using SafeMath for uint256;\n\n   constructor() {  \n        totalSupply_ = 1000000;\n        balances[msg.sender] = totalSupply_;\n        ERCowner = msg.sender; //#2\n    }  \n\n    function totalSupply() public view returns (uint256) {\n\t    return totalSupply_;\n    }\n    \n    function balanceOf(address tokenOwner) public view returns (uint) {\n        return balances[tokenOwner];\n    }\n\n    function transferFrom(address owner, address buyer, uint numTokens) public returns (bool) {\n        balances[owner] = balances[owner].sub(numTokens);\n        balances[buyer] = balances[buyer].add(numTokens);\n        emit Transfer(owner, buyer, numTokens);\n        return true;\n    }\n \n}\n\nlibrary SafeMath { \n    function sub(uint256 a, uint256 b) internal pure returns (uint256) {\n      assert(b <= a);\n      return a - b;\n    }\n    \n    function add(uint256 a, uint256 b) internal pure returns (uint256) {\n      uint256 c = a + b;\n      assert(c >= a);\n      return c;\n    }\n}",
  "sourcePath": "/Users/rahulsharma/Desktop/BlockChain-Sandbox/FrontChain/contracts/frontCoin.sol",
  "compiler": {
    "name": "solc",
    "version": "0.8.12+commit.f00d7308.Emscripten.clang"
  },
  "schemaVersion": "3.4.6",
  "updatedAt": "2022-04-24T18:42:37.612Z",
  "devdoc": {
    "kind": "dev",
    "methods": {},
    "version": 1
  },
  "userdoc": {
    "kind": "user",
    "methods": {},
    "version": 1
  }
}